{
	"Fundme.sol": {
		"FundMe": {
			"abi": [
				{
					"inputs": [],
					"stateMutability": "nonpayable",
					"type": "constructor"
				},
				{
					"stateMutability": "payable",
					"type": "fallback"
				},
				{
					"inputs": [
						{
							"internalType": "address",
							"name": "",
							"type": "address"
						}
					],
					"name": "addressToAmountFund",
					"outputs": [
						{
							"internalType": "uint256",
							"name": "",
							"type": "uint256"
						}
					],
					"stateMutability": "view",
					"type": "function"
				},
				{
					"inputs": [
						{
							"internalType": "uint256",
							"name": "",
							"type": "uint256"
						}
					],
					"name": "funders",
					"outputs": [
						{
							"internalType": "address",
							"name": "",
							"type": "address"
						}
					],
					"stateMutability": "view",
					"type": "function"
				},
				{
					"inputs": [],
					"name": "fundme",
					"outputs": [],
					"stateMutability": "payable",
					"type": "function"
				},
				{
					"inputs": [],
					"name": "minUSD",
					"outputs": [
						{
							"internalType": "uint256",
							"name": "",
							"type": "uint256"
						}
					],
					"stateMutability": "view",
					"type": "function"
				},
				{
					"inputs": [],
					"name": "owner",
					"outputs": [
						{
							"internalType": "address",
							"name": "",
							"type": "address"
						}
					],
					"stateMutability": "view",
					"type": "function"
				},
				{
					"inputs": [],
					"name": "withdraw",
					"outputs": [],
					"stateMutability": "nonpayable",
					"type": "function"
				},
				{
					"stateMutability": "payable",
					"type": "receive"
				}
			],
			"devdoc": {
				"kind": "dev",
				"methods": {},
				"version": 1
			},
			"evm": {
				"assembly": "    /* \"Fundme.sol\":89:1223  contract FundMe{... */\n  mstore(0x40, 0x80)\n    /* \"Fundme.sol\":174:183  50 * 1e18 */\n  0x02b5e3af16b1880000\n    /* \"Fundme.sol\":150:183  uint256 public minUSD = 50 * 1e18 */\n  0x00\n  sstore\n    /* \"Fundme.sol\":308:356  constructor(){... */\n  callvalue\n  dup1\n  iszero\n  tag_1\n  jumpi\n  0x00\n  dup1\n  revert\ntag_1:\n  pop\n    /* \"Fundme.sol\":339:349  msg.sender */\n  caller\n    /* \"Fundme.sol\":331:336  owner */\n  0x03\n  0x00\n    /* \"Fundme.sol\":331:349  owner = msg.sender */\n  0x0100\n  exp\n  dup2\n  sload\n  dup2\n  0xffffffffffffffffffffffffffffffffffffffff\n  mul\n  not\n  and\n  swap1\n  dup4\n  0xffffffffffffffffffffffffffffffffffffffff\n  and\n  mul\n  or\n  swap1\n  sstore\n  pop\n    /* \"Fundme.sol\":89:1223  contract FundMe{... */\n  dataSize(sub_0)\n  dup1\n  dataOffset(sub_0)\n  0x00\n  codecopy\n  0x00\n  return\nstop\n\nsub_0: assembly {\n        /* \"Fundme.sol\":89:1223  contract FundMe{... */\n      mstore(0x40, 0x80)\n      jumpi(tag_1, lt(calldatasize, 0x04))\n      shr(0xe0, calldataload(0x00))\n      dup1\n      0x3ccfd60b\n      eq\n      tag_3\n      jumpi\n      dup1\n      0x8c04995f\n      eq\n      tag_4\n      jumpi\n      dup1\n      0x8da5cb5b\n      eq\n      tag_5\n      jumpi\n      dup1\n      0xd1d9165d\n      eq\n      tag_6\n      jumpi\n      dup1\n      0xdc0d3dff\n      eq\n      tag_7\n      jumpi\n      dup1\n      0xdc992aa0\n      eq\n      tag_8\n      jumpi\n      jump(tag_2)\n    tag_1:\n      jumpi(tag_2, calldatasize)\n        /* \"Fundme.sol\":1141:1149  fundme() */\n      tag_11\n        /* \"Fundme.sol\":1141:1147  fundme */\n      tag_12\n        /* \"Fundme.sol\":1141:1149  fundme() */\n      jump\t// in\n    tag_11:\n        /* \"Fundme.sol\":89:1223  contract FundMe{... */\n      stop\n    tag_2:\n        /* \"Fundme.sol\":1201:1209  fundme() */\n      tag_15\n        /* \"Fundme.sol\":1201:1207  fundme */\n      tag_12\n        /* \"Fundme.sol\":1201:1209  fundme() */\n      jump\t// in\n    tag_15:\n        /* \"Fundme.sol\":89:1223  contract FundMe{... */\n      stop\n        /* \"Fundme.sol\":579:987  function withdraw() public onlyOwner {... */\n    tag_3:\n      callvalue\n      dup1\n      iszero\n      tag_16\n      jumpi\n      0x00\n      dup1\n      revert\n    tag_16:\n      pop\n      tag_17\n      tag_18\n      jump\t// in\n    tag_17:\n      stop\n        /* \"Fundme.sol\":221:275  mapping(address => uint256) public addressToAmountFund */\n    tag_4:\n      callvalue\n      dup1\n      iszero\n      tag_19\n      jumpi\n      0x00\n      dup1\n      revert\n    tag_19:\n      pop\n      tag_20\n      0x04\n      dup1\n      calldatasize\n      sub\n      dup2\n      add\n      swap1\n      tag_21\n      swap2\n      swap1\n      tag_22\n      jump\t// in\n    tag_21:\n      tag_23\n      jump\t// in\n    tag_20:\n      mload(0x40)\n      tag_24\n      swap2\n      swap1\n      tag_25\n      jump\t// in\n    tag_24:\n      mload(0x40)\n      dup1\n      swap2\n      sub\n      swap1\n      return\n        /* \"Fundme.sol\":282:302  address public owner */\n    tag_5:\n      callvalue\n      dup1\n      iszero\n      tag_26\n      jumpi\n      0x00\n      dup1\n      revert\n    tag_26:\n      pop\n      tag_27\n      tag_28\n      jump\t// in\n    tag_27:\n      mload(0x40)\n      tag_29\n      swap2\n      swap1\n      tag_30\n      jump\t// in\n    tag_29:\n      mload(0x40)\n      dup1\n      swap2\n      sub\n      swap1\n      return\n        /* \"Fundme.sol\":362:573  function fundme() public payable {... */\n    tag_6:\n      tag_31\n      tag_12\n      jump\t// in\n    tag_31:\n      stop\n        /* \"Fundme.sol\":190:214  address[] public funders */\n    tag_7:\n      callvalue\n      dup1\n      iszero\n      tag_32\n      jumpi\n      0x00\n      dup1\n      revert\n    tag_32:\n      pop\n      tag_33\n      0x04\n      dup1\n      calldatasize\n      sub\n      dup2\n      add\n      swap1\n      tag_34\n      swap2\n      swap1\n      tag_35\n      jump\t// in\n    tag_34:\n      tag_36\n      jump\t// in\n    tag_33:\n      mload(0x40)\n      tag_37\n      swap2\n      swap1\n      tag_30\n      jump\t// in\n    tag_37:\n      mload(0x40)\n      dup1\n      swap2\n      sub\n      swap1\n      return\n        /* \"Fundme.sol\":150:183  uint256 public minUSD = 50 * 1e18 */\n    tag_8:\n      callvalue\n      dup1\n      iszero\n      tag_38\n      jumpi\n      0x00\n      dup1\n      revert\n    tag_38:\n      pop\n      tag_39\n      tag_40\n      jump\t// in\n    tag_39:\n      mload(0x40)\n      tag_41\n      swap2\n      swap1\n      tag_25\n      jump\t// in\n    tag_41:\n      mload(0x40)\n      dup1\n      swap2\n      sub\n      swap1\n      return\n        /* \"Fundme.sol\":362:573  function fundme() public payable {... */\n    tag_12:\n        /* \"Fundme.sol\":447:453  minUSD */\n      sload(0x00)\n        /* \"Fundme.sol\":414:443  msg.value.getConvertionRate() */\n      tag_43\n        /* \"Fundme.sol\":414:423  msg.value */\n      callvalue\n        /* \"Fundme.sol\":414:441  msg.value.getConvertionRate */\n      tag_44\n        /* \"Fundme.sol\":414:443  msg.value.getConvertionRate() */\n      jump\t// in\n    tag_43:\n        /* \"Fundme.sol\":414:453  msg.value.getConvertionRate() >= minUSD */\n      lt\n      iszero\n        /* \"Fundme.sol\":406:478  require(msg.value.getConvertionRate() >= minUSD, \"Send more than 1 eth\") */\n      tag_45\n      jumpi\n      mload(0x40)\n      0x08c379a000000000000000000000000000000000000000000000000000000000\n      dup2\n      mstore\n      0x04\n      add\n      tag_46\n      swap1\n      tag_47\n      jump\t// in\n    tag_46:\n      mload(0x40)\n      dup1\n      swap2\n      sub\n      swap1\n      revert\n    tag_45:\n        /* \"Fundme.sol\":488:495  funders */\n      0x01\n        /* \"Fundme.sol\":501:511  msg.sender */\n      caller\n        /* \"Fundme.sol\":488:512  funders.push(msg.sender) */\n      swap1\n      dup1\n      0x01\n      dup2\n      sload\n      add\n      dup1\n      dup3\n      sstore\n      dup1\n      swap2\n      pop\n      pop\n      0x01\n      swap1\n      sub\n      swap1\n      0x00\n      mstore\n      keccak256(0x00, 0x20)\n      add\n      0x00\n      swap1\n      swap2\n      swap1\n      swap2\n      swap1\n      swap2\n      0x0100\n      exp\n      dup2\n      sload\n      dup2\n      0xffffffffffffffffffffffffffffffffffffffff\n      mul\n      not\n      and\n      swap1\n      dup4\n      0xffffffffffffffffffffffffffffffffffffffff\n      and\n      mul\n      or\n      swap1\n      sstore\n      pop\n        /* \"Fundme.sol\":557:566  msg.value */\n      callvalue\n        /* \"Fundme.sol\":522:541  addressToAmountFund */\n      0x02\n        /* \"Fundme.sol\":522:553  addressToAmountFund[msg.sender] */\n      0x00\n        /* \"Fundme.sol\":542:552  msg.sender */\n      caller\n        /* \"Fundme.sol\":522:553  addressToAmountFund[msg.sender] */\n      0xffffffffffffffffffffffffffffffffffffffff\n      and\n      0xffffffffffffffffffffffffffffffffffffffff\n      and\n      dup2\n      mstore\n      0x20\n      add\n      swap1\n      dup2\n      mstore\n      0x20\n      add\n      0x00\n      keccak256\n      0x00\n        /* \"Fundme.sol\":522:566  addressToAmountFund[msg.sender] += msg.value */\n      dup3\n      dup3\n      sload\n      tag_49\n      swap2\n      swap1\n      tag_50\n      jump\t// in\n    tag_49:\n      swap3\n      pop\n      pop\n      dup2\n      swap1\n      sstore\n      pop\n        /* \"Fundme.sol\":362:573  function fundme() public payable {... */\n      jump\t// out\n        /* \"Fundme.sol\":579:987  function withdraw() public onlyOwner {... */\n    tag_18:\n        /* \"Fundme.sol\":1043:1048  owner */\n      0x03\n      0x00\n      swap1\n      sload\n      swap1\n      0x0100\n      exp\n      swap1\n      div\n      0xffffffffffffffffffffffffffffffffffffffff\n      and\n        /* \"Fundme.sol\":1029:1048  msg.sender == owner */\n      0xffffffffffffffffffffffffffffffffffffffff\n      and\n        /* \"Fundme.sol\":1029:1039  msg.sender */\n      caller\n        /* \"Fundme.sol\":1029:1048  msg.sender == owner */\n      0xffffffffffffffffffffffffffffffffffffffff\n      and\n      eq\n        /* \"Fundme.sol\":1021:1079  require(msg.sender == owner,\"The sender is not the owner\") */\n      tag_52\n      jumpi\n      mload(0x40)\n      0x08c379a000000000000000000000000000000000000000000000000000000000\n      dup2\n      mstore\n      0x04\n      add\n      tag_53\n      swap1\n      tag_54\n      jump\t// in\n    tag_53:\n      mload(0x40)\n      dup1\n      swap2\n      sub\n      swap1\n      revert\n    tag_52:\n        /* \"Fundme.sol\":631:650  uint256 funderIndex */\n      0x00\n        /* \"Fundme.sol\":626:807  for (uint256 funderIndex = 0; funderIndex < funders.length; funderIndex++){... */\n    tag_56:\n        /* \"Fundme.sol\":670:677  funders */\n      0x01\n        /* \"Fundme.sol\":670:684  funders.length */\n      dup1\n      sload\n      swap1\n      pop\n        /* \"Fundme.sol\":656:667  funderIndex */\n      dup2\n        /* \"Fundme.sol\":656:684  funderIndex < funders.length */\n      lt\n        /* \"Fundme.sol\":626:807  for (uint256 funderIndex = 0; funderIndex < funders.length; funderIndex++){... */\n      iszero\n      tag_57\n      jumpi\n        /* \"Fundme.sol\":714:728  address funder */\n      0x00\n        /* \"Fundme.sol\":731:738  funders */\n      0x01\n        /* \"Fundme.sol\":739:750  funderIndex */\n      dup3\n        /* \"Fundme.sol\":731:751  funders[funderIndex] */\n      dup2\n      sload\n      dup2\n      lt\n      tag_59\n      jumpi\n      tag_60\n      tag_61\n      jump\t// in\n    tag_60:\n    tag_59:\n      swap1\n      0x00\n      mstore\n      keccak256(0x00, 0x20)\n      add\n      0x00\n      swap1\n      sload\n      swap1\n      0x0100\n      exp\n      swap1\n      div\n      0xffffffffffffffffffffffffffffffffffffffff\n      and\n        /* \"Fundme.sol\":714:751  address funder = funders[funderIndex] */\n      swap1\n      pop\n        /* \"Fundme.sol\":795:796  0 */\n      0x00\n        /* \"Fundme.sol\":765:784  addressToAmountFund */\n      0x02\n        /* \"Fundme.sol\":765:792  addressToAmountFund[funder] */\n      0x00\n        /* \"Fundme.sol\":785:791  funder */\n      dup4\n        /* \"Fundme.sol\":765:792  addressToAmountFund[funder] */\n      0xffffffffffffffffffffffffffffffffffffffff\n      and\n      0xffffffffffffffffffffffffffffffffffffffff\n      and\n      dup2\n      mstore\n      0x20\n      add\n      swap1\n      dup2\n      mstore\n      0x20\n      add\n      0x00\n      keccak256\n        /* \"Fundme.sol\":765:796  addressToAmountFund[funder] = 0 */\n      dup2\n      swap1\n      sstore\n      pop\n        /* \"Fundme.sol\":700:807  {... */\n      pop\n        /* \"Fundme.sol\":686:699  funderIndex++ */\n      dup1\n      dup1\n      tag_63\n      swap1\n      tag_64\n      jump\t// in\n    tag_63:\n      swap2\n      pop\n      pop\n        /* \"Fundme.sol\":626:807  for (uint256 funderIndex = 0; funderIndex < funders.length; funderIndex++){... */\n      jump(tag_56)\n    tag_57:\n      pop\n        /* \"Fundme.sol\":841:842  0 */\n      0x00\n        /* \"Fundme.sol\":827:843  new address[](0) */\n      0xffffffffffffffff\n      dup2\n      gt\n      iszero\n      tag_65\n      jumpi\n      tag_66\n      tag_67\n      jump\t// in\n    tag_66:\n    tag_65:\n      mload(0x40)\n      swap1\n      dup1\n      dup3\n      mstore\n      dup1\n      0x20\n      mul\n      0x20\n      add\n      dup3\n      add\n      0x40\n      mstore\n      dup1\n      iszero\n      tag_68\n      jumpi\n      dup2\n      0x20\n      add\n      0x20\n      dup3\n      mul\n      dup1\n      calldatasize\n      dup4\n      calldatacopy\n      dup1\n      dup3\n      add\n      swap2\n      pop\n      pop\n      swap1\n      pop\n    tag_68:\n      pop\n        /* \"Fundme.sol\":817:824  funders */\n      0x01\n        /* \"Fundme.sol\":817:843  funders = new address[](0) */\n      swap1\n      dup1\n      mload\n      swap1\n      0x20\n      add\n      swap1\n      tag_69\n      swap3\n      swap2\n      swap1\n      tag_70\n      jump\t// in\n    tag_69:\n      pop\n        /* \"Fundme.sol\":854:870  bool callSuccess */\n      0x00\n        /* \"Fundme.sol\":884:894  msg.sender */\n      caller\n        /* \"Fundme.sol\":876:900  payable(msg.sender).call */\n      0xffffffffffffffffffffffffffffffffffffffff\n      and\n        /* \"Fundme.sol\":908:929  address(this).balance */\n      selfbalance\n        /* \"Fundme.sol\":876:934  payable(msg.sender).call{value: address(this).balance}(\"\") */\n      mload(0x40)\n      tag_71\n      swap1\n      tag_72\n      jump\t// in\n    tag_71:\n      0x00\n      mload(0x40)\n      dup1\n      dup4\n      sub\n      dup2\n      dup6\n      dup8\n      gas\n      call\n      swap3\n      pop\n      pop\n      pop\n      returndatasize\n      dup1\n      0x00\n      dup2\n      eq\n      tag_75\n      jumpi\n      mload(0x40)\n      swap2\n      pop\n      and(add(returndatasize, 0x3f), not(0x1f))\n      dup3\n      add\n      0x40\n      mstore\n      returndatasize\n      dup3\n      mstore\n      returndatasize\n      0x00\n      0x20\n      dup5\n      add\n      returndatacopy\n      jump(tag_74)\n    tag_75:\n      0x60\n      swap2\n      pop\n    tag_74:\n      pop\n        /* \"Fundme.sol\":853:934  (bool callSuccess, ) = payable(msg.sender).call{value: address(this).balance}(\"\") */\n      pop\n      swap1\n      pop\n        /* \"Fundme.sol\":953:964  callSuccess */\n      dup1\n        /* \"Fundme.sol\":945:980  require(callSuccess, \"Call failed\") */\n      tag_76\n      jumpi\n      mload(0x40)\n      0x08c379a000000000000000000000000000000000000000000000000000000000\n      dup2\n      mstore\n      0x04\n      add\n      tag_77\n      swap1\n      tag_78\n      jump\t// in\n    tag_77:\n      mload(0x40)\n      dup1\n      swap2\n      sub\n      swap1\n      revert\n    tag_76:\n        /* \"Fundme.sol\":616:987  {... */\n      pop\n        /* \"Fundme.sol\":579:987  function withdraw() public onlyOwner {... */\n      jump\t// out\n        /* \"Fundme.sol\":221:275  mapping(address => uint256) public addressToAmountFund */\n    tag_23:\n      mstore(0x20, 0x02)\n      dup1\n      0x00\n      mstore\n      keccak256(0x00, 0x40)\n      0x00\n      swap2\n      pop\n      swap1\n      pop\n      sload\n      dup2\n      jump\t// out\n        /* \"Fundme.sol\":282:302  address public owner */\n    tag_28:\n      0x03\n      0x00\n      swap1\n      sload\n      swap1\n      0x0100\n      exp\n      swap1\n      div\n      0xffffffffffffffffffffffffffffffffffffffff\n      and\n      dup2\n      jump\t// out\n        /* \"Fundme.sol\":190:214  address[] public funders */\n    tag_36:\n      0x01\n      dup2\n      dup2\n      sload\n      dup2\n      lt\n      tag_79\n      jumpi\n      0x00\n      dup1\n      revert\n    tag_79:\n      swap1\n      0x00\n      mstore\n      keccak256(0x00, 0x20)\n      add\n      0x00\n      swap2\n      pop\n      sload\n      swap1\n      0x0100\n      exp\n      swap1\n      div\n      0xffffffffffffffffffffffffffffffffffffffff\n      and\n      dup2\n      jump\t// out\n        /* \"Fundme.sol\":150:183  uint256 public minUSD = 50 * 1e18 */\n    tag_40:\n      sload(0x00)\n      dup2\n      jump\t// out\n        /* \"priceConverter.sol\":501:722  function getConvertionRate(uint256 ethAmmount) internal view returns(uint256){... */\n    tag_44:\n        /* \"priceConverter.sol\":570:577  uint256 */\n      0x00\n        /* \"priceConverter.sol\":588:604  uint256 ethPrice */\n      dup1\n        /* \"priceConverter.sol\":607:617  getPrice() */\n      tag_82\n        /* \"priceConverter.sol\":607:615  getPrice */\n      tag_83\n        /* \"priceConverter.sol\":607:617  getPrice() */\n      jump\t// in\n    tag_82:\n        /* \"priceConverter.sol\":588:617  uint256 ethPrice = getPrice() */\n      swap1\n      pop\n        /* \"priceConverter.sol\":628:650  uint256 ethAmountInUSD */\n      0x00\n        /* \"priceConverter.sol\":679:683  1e18 */\n      0x0de0b6b3a7640000\n        /* \"priceConverter.sol\":665:675  ethAmmount */\n      dup5\n        /* \"priceConverter.sol\":654:662  ethPrice */\n      dup4\n        /* \"priceConverter.sol\":654:675  ethPrice * ethAmmount */\n      tag_84\n      swap2\n      swap1\n      tag_85\n      jump\t// in\n    tag_84:\n        /* \"priceConverter.sol\":653:683  (ethPrice * ethAmmount) / 1e18 */\n      tag_86\n      swap2\n      swap1\n      tag_87\n      jump\t// in\n    tag_86:\n        /* \"priceConverter.sol\":628:683  uint256 ethAmountInUSD = (ethPrice * ethAmmount) / 1e18 */\n      swap1\n      pop\n        /* \"priceConverter.sol\":700:714  ethAmountInUSD */\n      dup1\n        /* \"priceConverter.sol\":693:714  return ethAmountInUSD */\n      swap3\n      pop\n      pop\n      pop\n        /* \"priceConverter.sol\":501:722  function getConvertionRate(uint256 ethAmmount) internal view returns(uint256){... */\n      swap2\n      swap1\n      pop\n      jump\t// out\n        /* \"priceConverter.sol\":223:495  function getPrice() internal view returns(uint256){... */\n    tag_83:\n        /* \"priceConverter.sol\":265:272  uint256 */\n      0x00\n        /* \"priceConverter.sol\":283:314  AggregatorV3Interface priceFeed */\n      dup1\n        /* \"priceConverter.sol\":338:380  0x694AA1769357215DE4FAC081bf1f309aDC325306 */\n      0x694aa1769357215de4fac081bf1f309adc325306\n        /* \"priceConverter.sol\":283:381  AggregatorV3Interface priceFeed =AggregatorV3Interface(0x694AA1769357215DE4FAC081bf1f309aDC325306) */\n      swap1\n      pop\n        /* \"priceConverter.sol\":394:407  int256 answer */\n      0x00\n        /* \"priceConverter.sol\":412:421  priceFeed */\n      dup2\n        /* \"priceConverter.sol\":412:437  priceFeed.latestRoundData */\n      0xffffffffffffffffffffffffffffffffffffffff\n      and\n      0xfeaf968c\n        /* \"priceConverter.sol\":412:439  priceFeed.latestRoundData() */\n      mload(0x40)\n      dup2\n      0xffffffff\n      and\n      0xe0\n      shl\n      dup2\n      mstore\n      0x04\n      add\n      0xa0\n      mload(0x40)\n      dup1\n      dup4\n      sub\n      dup2\n      dup7\n      gas\n      staticcall\n      iszero\n      dup1\n      iszero\n      tag_90\n      jumpi\n      returndatasize\n      0x00\n      dup1\n      returndatacopy\n      revert(0x00, returndatasize)\n    tag_90:\n      pop\n      pop\n      pop\n      pop\n      mload(0x40)\n      returndatasize\n      not(0x1f)\n      0x1f\n      dup3\n      add\n      and\n      dup3\n      add\n      dup1\n      0x40\n      mstore\n      pop\n      dup2\n      add\n      swap1\n      tag_91\n      swap2\n      swap1\n      tag_92\n      jump\t// in\n    tag_91:\n        /* \"priceConverter.sol\":392:439  (,int256 answer,,,)=priceFeed.latestRoundData() */\n      pop\n      pop\n      pop\n      swap2\n      pop\n      pop\n        /* \"priceConverter.sol\":474:478  1e10 */\n      0x02540be400\n        /* \"priceConverter.sol\":465:471  answer */\n      dup2\n        /* \"priceConverter.sol\":465:478  answer * 1e10 */\n      tag_93\n      swap2\n      swap1\n      tag_94\n      jump\t// in\n    tag_93:\n        /* \"priceConverter.sol\":450:479  return uint256(answer * 1e10) */\n      swap3\n      pop\n      pop\n      pop\n        /* \"priceConverter.sol\":223:495  function getPrice() internal view returns(uint256){... */\n      swap1\n      jump\t// out\n    tag_70:\n      dup3\n      dup1\n      sload\n      dup3\n      dup3\n      sstore\n      swap1\n      0x00\n      mstore\n      keccak256(0x00, 0x20)\n      swap1\n      dup2\n      add\n      swap3\n      dup3\n      iszero\n      tag_95\n      jumpi\n      swap2\n      0x20\n      mul\n      dup3\n      add\n    tag_96:\n      dup3\n      dup2\n      gt\n      iszero\n      tag_97\n      jumpi\n      dup3\n      mload\n      dup3\n      exp(0x0100, 0x00)\n      dup2\n      sload\n      dup2\n      0xffffffffffffffffffffffffffffffffffffffff\n      mul\n      not\n      and\n      swap1\n      dup4\n      0xffffffffffffffffffffffffffffffffffffffff\n      and\n      mul\n      or\n      swap1\n      sstore\n      pop\n      swap2\n      0x20\n      add\n      swap2\n      swap1\n      0x01\n      add\n      swap1\n      jump(tag_96)\n    tag_97:\n    tag_95:\n      pop\n      swap1\n      pop\n      tag_98\n      swap2\n      swap1\n      tag_99\n      jump\t// in\n    tag_98:\n      pop\n      swap1\n      jump\t// out\n    tag_99:\n    tag_100:\n      dup1\n      dup3\n      gt\n      iszero\n      tag_101\n      jumpi\n      0x00\n      dup2\n      0x00\n      swap1\n      sstore\n      pop\n      0x01\n      add\n      jump(tag_100)\n    tag_101:\n      pop\n      swap1\n      jump\t// out\n        /* \"#utility.yul\":88:205   */\n    tag_103:\n        /* \"#utility.yul\":197:198   */\n      0x00\n        /* \"#utility.yul\":194:195   */\n      dup1\n        /* \"#utility.yul\":187:199   */\n      revert\n        /* \"#utility.yul\":334:460   */\n    tag_105:\n        /* \"#utility.yul\":371:378   */\n      0x00\n        /* \"#utility.yul\":411:453   */\n      0xffffffffffffffffffffffffffffffffffffffff\n        /* \"#utility.yul\":404:409   */\n      dup3\n        /* \"#utility.yul\":400:454   */\n      and\n        /* \"#utility.yul\":389:454   */\n      swap1\n      pop\n        /* \"#utility.yul\":334:460   */\n      swap2\n      swap1\n      pop\n      jump\t// out\n        /* \"#utility.yul\":466:562   */\n    tag_106:\n        /* \"#utility.yul\":503:510   */\n      0x00\n        /* \"#utility.yul\":532:556   */\n      tag_139\n        /* \"#utility.yul\":550:555   */\n      dup3\n        /* \"#utility.yul\":532:556   */\n      tag_105\n      jump\t// in\n    tag_139:\n        /* \"#utility.yul\":521:556   */\n      swap1\n      pop\n        /* \"#utility.yul\":466:562   */\n      swap2\n      swap1\n      pop\n      jump\t// out\n        /* \"#utility.yul\":568:690   */\n    tag_107:\n        /* \"#utility.yul\":641:665   */\n      tag_141\n        /* \"#utility.yul\":659:664   */\n      dup2\n        /* \"#utility.yul\":641:665   */\n      tag_106\n      jump\t// in\n    tag_141:\n        /* \"#utility.yul\":634:639   */\n      dup2\n        /* \"#utility.yul\":631:666   */\n      eq\n        /* \"#utility.yul\":621:684   */\n      tag_142\n      jumpi\n        /* \"#utility.yul\":680:681   */\n      0x00\n        /* \"#utility.yul\":677:678   */\n      dup1\n        /* \"#utility.yul\":670:682   */\n      revert\n        /* \"#utility.yul\":621:684   */\n    tag_142:\n        /* \"#utility.yul\":568:690   */\n      pop\n      jump\t// out\n        /* \"#utility.yul\":696:835   */\n    tag_108:\n        /* \"#utility.yul\":742:747   */\n      0x00\n        /* \"#utility.yul\":780:786   */\n      dup2\n        /* \"#utility.yul\":767:787   */\n      calldataload\n        /* \"#utility.yul\":758:787   */\n      swap1\n      pop\n        /* \"#utility.yul\":796:829   */\n      tag_144\n        /* \"#utility.yul\":823:828   */\n      dup2\n        /* \"#utility.yul\":796:829   */\n      tag_107\n      jump\t// in\n    tag_144:\n        /* \"#utility.yul\":696:835   */\n      swap3\n      swap2\n      pop\n      pop\n      jump\t// out\n        /* \"#utility.yul\":841:1170   */\n    tag_22:\n        /* \"#utility.yul\":900:906   */\n      0x00\n        /* \"#utility.yul\":949:951   */\n      0x20\n        /* \"#utility.yul\":937:946   */\n      dup3\n        /* \"#utility.yul\":928:935   */\n      dup5\n        /* \"#utility.yul\":924:947   */\n      sub\n        /* \"#utility.yul\":920:952   */\n      slt\n        /* \"#utility.yul\":917:1036   */\n      iszero\n      tag_146\n      jumpi\n        /* \"#utility.yul\":955:1034   */\n      tag_147\n      tag_103\n      jump\t// in\n    tag_147:\n        /* \"#utility.yul\":917:1036   */\n    tag_146:\n        /* \"#utility.yul\":1075:1076   */\n      0x00\n        /* \"#utility.yul\":1100:1153   */\n      tag_148\n        /* \"#utility.yul\":1145:1152   */\n      dup5\n        /* \"#utility.yul\":1136:1142   */\n      dup3\n        /* \"#utility.yul\":1125:1134   */\n      dup6\n        /* \"#utility.yul\":1121:1143   */\n      add\n        /* \"#utility.yul\":1100:1153   */\n      tag_108\n      jump\t// in\n    tag_148:\n        /* \"#utility.yul\":1090:1153   */\n      swap2\n      pop\n        /* \"#utility.yul\":1046:1163   */\n      pop\n        /* \"#utility.yul\":841:1170   */\n      swap3\n      swap2\n      pop\n      pop\n      jump\t// out\n        /* \"#utility.yul\":1176:1253   */\n    tag_109:\n        /* \"#utility.yul\":1213:1220   */\n      0x00\n        /* \"#utility.yul\":1242:1247   */\n      dup2\n        /* \"#utility.yul\":1231:1247   */\n      swap1\n      pop\n        /* \"#utility.yul\":1176:1253   */\n      swap2\n      swap1\n      pop\n      jump\t// out\n        /* \"#utility.yul\":1259:1377   */\n    tag_110:\n        /* \"#utility.yul\":1346:1370   */\n      tag_151\n        /* \"#utility.yul\":1364:1369   */\n      dup2\n        /* \"#utility.yul\":1346:1370   */\n      tag_109\n      jump\t// in\n    tag_151:\n        /* \"#utility.yul\":1341:1344   */\n      dup3\n        /* \"#utility.yul\":1334:1371   */\n      mstore\n        /* \"#utility.yul\":1259:1377   */\n      pop\n      pop\n      jump\t// out\n        /* \"#utility.yul\":1383:1605   */\n    tag_25:\n        /* \"#utility.yul\":1476:1480   */\n      0x00\n        /* \"#utility.yul\":1514:1516   */\n      0x20\n        /* \"#utility.yul\":1503:1512   */\n      dup3\n        /* \"#utility.yul\":1499:1517   */\n      add\n        /* \"#utility.yul\":1491:1517   */\n      swap1\n      pop\n        /* \"#utility.yul\":1527:1598   */\n      tag_153\n        /* \"#utility.yul\":1595:1596   */\n      0x00\n        /* \"#utility.yul\":1584:1593   */\n      dup4\n        /* \"#utility.yul\":1580:1597   */\n      add\n        /* \"#utility.yul\":1571:1577   */\n      dup5\n        /* \"#utility.yul\":1527:1598   */\n      tag_110\n      jump\t// in\n    tag_153:\n        /* \"#utility.yul\":1383:1605   */\n      swap3\n      swap2\n      pop\n      pop\n      jump\t// out\n        /* \"#utility.yul\":1611:1729   */\n    tag_111:\n        /* \"#utility.yul\":1698:1722   */\n      tag_155\n        /* \"#utility.yul\":1716:1721   */\n      dup2\n        /* \"#utility.yul\":1698:1722   */\n      tag_106\n      jump\t// in\n    tag_155:\n        /* \"#utility.yul\":1693:1696   */\n      dup3\n        /* \"#utility.yul\":1686:1723   */\n      mstore\n        /* \"#utility.yul\":1611:1729   */\n      pop\n      pop\n      jump\t// out\n        /* \"#utility.yul\":1735:1957   */\n    tag_30:\n        /* \"#utility.yul\":1828:1832   */\n      0x00\n        /* \"#utility.yul\":1866:1868   */\n      0x20\n        /* \"#utility.yul\":1855:1864   */\n      dup3\n        /* \"#utility.yul\":1851:1869   */\n      add\n        /* \"#utility.yul\":1843:1869   */\n      swap1\n      pop\n        /* \"#utility.yul\":1879:1950   */\n      tag_157\n        /* \"#utility.yul\":1947:1948   */\n      0x00\n        /* \"#utility.yul\":1936:1945   */\n      dup4\n        /* \"#utility.yul\":1932:1949   */\n      add\n        /* \"#utility.yul\":1923:1929   */\n      dup5\n        /* \"#utility.yul\":1879:1950   */\n      tag_111\n      jump\t// in\n    tag_157:\n        /* \"#utility.yul\":1735:1957   */\n      swap3\n      swap2\n      pop\n      pop\n      jump\t// out\n        /* \"#utility.yul\":1963:2085   */\n    tag_112:\n        /* \"#utility.yul\":2036:2060   */\n      tag_159\n        /* \"#utility.yul\":2054:2059   */\n      dup2\n        /* \"#utility.yul\":2036:2060   */\n      tag_109\n      jump\t// in\n    tag_159:\n        /* \"#utility.yul\":2029:2034   */\n      dup2\n        /* \"#utility.yul\":2026:2061   */\n      eq\n        /* \"#utility.yul\":2016:2079   */\n      tag_160\n      jumpi\n        /* \"#utility.yul\":2075:2076   */\n      0x00\n        /* \"#utility.yul\":2072:2073   */\n      dup1\n        /* \"#utility.yul\":2065:2077   */\n      revert\n        /* \"#utility.yul\":2016:2079   */\n    tag_160:\n        /* \"#utility.yul\":1963:2085   */\n      pop\n      jump\t// out\n        /* \"#utility.yul\":2091:2230   */\n    tag_113:\n        /* \"#utility.yul\":2137:2142   */\n      0x00\n        /* \"#utility.yul\":2175:2181   */\n      dup2\n        /* \"#utility.yul\":2162:2182   */\n      calldataload\n        /* \"#utility.yul\":2153:2182   */\n      swap1\n      pop\n        /* \"#utility.yul\":2191:2224   */\n      tag_162\n        /* \"#utility.yul\":2218:2223   */\n      dup2\n        /* \"#utility.yul\":2191:2224   */\n      tag_112\n      jump\t// in\n    tag_162:\n        /* \"#utility.yul\":2091:2230   */\n      swap3\n      swap2\n      pop\n      pop\n      jump\t// out\n        /* \"#utility.yul\":2236:2565   */\n    tag_35:\n        /* \"#utility.yul\":2295:2301   */\n      0x00\n        /* \"#utility.yul\":2344:2346   */\n      0x20\n        /* \"#utility.yul\":2332:2341   */\n      dup3\n        /* \"#utility.yul\":2323:2330   */\n      dup5\n        /* \"#utility.yul\":2319:2342   */\n      sub\n        /* \"#utility.yul\":2315:2347   */\n      slt\n        /* \"#utility.yul\":2312:2431   */\n      iszero\n      tag_164\n      jumpi\n        /* \"#utility.yul\":2350:2429   */\n      tag_165\n      tag_103\n      jump\t// in\n    tag_165:\n        /* \"#utility.yul\":2312:2431   */\n    tag_164:\n        /* \"#utility.yul\":2470:2471   */\n      0x00\n        /* \"#utility.yul\":2495:2548   */\n      tag_166\n        /* \"#utility.yul\":2540:2547   */\n      dup5\n        /* \"#utility.yul\":2531:2537   */\n      dup3\n        /* \"#utility.yul\":2520:2529   */\n      dup6\n        /* \"#utility.yul\":2516:2538   */\n      add\n        /* \"#utility.yul\":2495:2548   */\n      tag_113\n      jump\t// in\n    tag_166:\n        /* \"#utility.yul\":2485:2548   */\n      swap2\n      pop\n        /* \"#utility.yul\":2441:2558   */\n      pop\n        /* \"#utility.yul\":2236:2565   */\n      swap3\n      swap2\n      pop\n      pop\n      jump\t// out\n        /* \"#utility.yul\":2571:2740   */\n    tag_114:\n        /* \"#utility.yul\":2655:2666   */\n      0x00\n        /* \"#utility.yul\":2689:2695   */\n      dup3\n        /* \"#utility.yul\":2684:2687   */\n      dup3\n        /* \"#utility.yul\":2677:2696   */\n      mstore\n        /* \"#utility.yul\":2729:2733   */\n      0x20\n        /* \"#utility.yul\":2724:2727   */\n      dup3\n        /* \"#utility.yul\":2720:2734   */\n      add\n        /* \"#utility.yul\":2705:2734   */\n      swap1\n      pop\n        /* \"#utility.yul\":2571:2740   */\n      swap3\n      swap2\n      pop\n      pop\n      jump\t// out\n        /* \"#utility.yul\":2746:2916   */\n    tag_115:\n        /* \"#utility.yul\":2886:2908   */\n      0x53656e64206d6f7265207468616e203120657468000000000000000000000000\n        /* \"#utility.yul\":2882:2883   */\n      0x00\n        /* \"#utility.yul\":2874:2880   */\n      dup3\n        /* \"#utility.yul\":2870:2884   */\n      add\n        /* \"#utility.yul\":2863:2909   */\n      mstore\n        /* \"#utility.yul\":2746:2916   */\n      pop\n      jump\t// out\n        /* \"#utility.yul\":2922:3288   */\n    tag_116:\n        /* \"#utility.yul\":3064:3067   */\n      0x00\n        /* \"#utility.yul\":3085:3152   */\n      tag_170\n        /* \"#utility.yul\":3149:3151   */\n      0x14\n        /* \"#utility.yul\":3144:3147   */\n      dup4\n        /* \"#utility.yul\":3085:3152   */\n      tag_114\n      jump\t// in\n    tag_170:\n        /* \"#utility.yul\":3078:3152   */\n      swap2\n      pop\n        /* \"#utility.yul\":3161:3254   */\n      tag_171\n        /* \"#utility.yul\":3250:3253   */\n      dup3\n        /* \"#utility.yul\":3161:3254   */\n      tag_115\n      jump\t// in\n    tag_171:\n        /* \"#utility.yul\":3279:3281   */\n      0x20\n        /* \"#utility.yul\":3274:3277   */\n      dup3\n        /* \"#utility.yul\":3270:3282   */\n      add\n        /* \"#utility.yul\":3263:3282   */\n      swap1\n      pop\n        /* \"#utility.yul\":2922:3288   */\n      swap2\n      swap1\n      pop\n      jump\t// out\n        /* \"#utility.yul\":3294:3713   */\n    tag_47:\n        /* \"#utility.yul\":3460:3464   */\n      0x00\n        /* \"#utility.yul\":3498:3500   */\n      0x20\n        /* \"#utility.yul\":3487:3496   */\n      dup3\n        /* \"#utility.yul\":3483:3501   */\n      add\n        /* \"#utility.yul\":3475:3501   */\n      swap1\n      pop\n        /* \"#utility.yul\":3547:3556   */\n      dup2\n        /* \"#utility.yul\":3541:3545   */\n      dup2\n        /* \"#utility.yul\":3537:3557   */\n      sub\n        /* \"#utility.yul\":3533:3534   */\n      0x00\n        /* \"#utility.yul\":3522:3531   */\n      dup4\n        /* \"#utility.yul\":3518:3535   */\n      add\n        /* \"#utility.yul\":3511:3558   */\n      mstore\n        /* \"#utility.yul\":3575:3706   */\n      tag_173\n        /* \"#utility.yul\":3701:3705   */\n      dup2\n        /* \"#utility.yul\":3575:3706   */\n      tag_116\n      jump\t// in\n    tag_173:\n        /* \"#utility.yul\":3567:3706   */\n      swap1\n      pop\n        /* \"#utility.yul\":3294:3713   */\n      swap2\n      swap1\n      pop\n      jump\t// out\n        /* \"#utility.yul\":3719:3899   */\n    tag_117:\n        /* \"#utility.yul\":3767:3844   */\n      0x4e487b7100000000000000000000000000000000000000000000000000000000\n        /* \"#utility.yul\":3764:3765   */\n      0x00\n        /* \"#utility.yul\":3757:3845   */\n      mstore\n        /* \"#utility.yul\":3864:3868   */\n      0x11\n        /* \"#utility.yul\":3861:3862   */\n      0x04\n        /* \"#utility.yul\":3854:3869   */\n      mstore\n        /* \"#utility.yul\":3888:3892   */\n      0x24\n        /* \"#utility.yul\":3885:3886   */\n      0x00\n        /* \"#utility.yul\":3878:3893   */\n      revert\n        /* \"#utility.yul\":3905:4096   */\n    tag_50:\n        /* \"#utility.yul\":3945:3948   */\n      0x00\n        /* \"#utility.yul\":3964:3984   */\n      tag_176\n        /* \"#utility.yul\":3982:3983   */\n      dup3\n        /* \"#utility.yul\":3964:3984   */\n      tag_109\n      jump\t// in\n    tag_176:\n        /* \"#utility.yul\":3959:3984   */\n      swap2\n      pop\n        /* \"#utility.yul\":3998:4018   */\n      tag_177\n        /* \"#utility.yul\":4016:4017   */\n      dup4\n        /* \"#utility.yul\":3998:4018   */\n      tag_109\n      jump\t// in\n    tag_177:\n        /* \"#utility.yul\":3993:4018   */\n      swap3\n      pop\n        /* \"#utility.yul\":4041:4042   */\n      dup3\n        /* \"#utility.yul\":4038:4039   */\n      dup3\n        /* \"#utility.yul\":4034:4043   */\n      add\n        /* \"#utility.yul\":4027:4043   */\n      swap1\n      pop\n        /* \"#utility.yul\":4062:4065   */\n      dup1\n        /* \"#utility.yul\":4059:4060   */\n      dup3\n        /* \"#utility.yul\":4056:4066   */\n      gt\n        /* \"#utility.yul\":4053:4089   */\n      iszero\n      tag_178\n      jumpi\n        /* \"#utility.yul\":4069:4087   */\n      tag_179\n      tag_117\n      jump\t// in\n    tag_179:\n        /* \"#utility.yul\":4053:4089   */\n    tag_178:\n        /* \"#utility.yul\":3905:4096   */\n      swap3\n      swap2\n      pop\n      pop\n      jump\t// out\n        /* \"#utility.yul\":4102:4279   */\n    tag_118:\n        /* \"#utility.yul\":4242:4271   */\n      0x5468652073656e646572206973206e6f7420746865206f776e65720000000000\n        /* \"#utility.yul\":4238:4239   */\n      0x00\n        /* \"#utility.yul\":4230:4236   */\n      dup3\n        /* \"#utility.yul\":4226:4240   */\n      add\n        /* \"#utility.yul\":4219:4272   */\n      mstore\n        /* \"#utility.yul\":4102:4279   */\n      pop\n      jump\t// out\n        /* \"#utility.yul\":4285:4651   */\n    tag_119:\n        /* \"#utility.yul\":4427:4430   */\n      0x00\n        /* \"#utility.yul\":4448:4515   */\n      tag_182\n        /* \"#utility.yul\":4512:4514   */\n      0x1b\n        /* \"#utility.yul\":4507:4510   */\n      dup4\n        /* \"#utility.yul\":4448:4515   */\n      tag_114\n      jump\t// in\n    tag_182:\n        /* \"#utility.yul\":4441:4515   */\n      swap2\n      pop\n        /* \"#utility.yul\":4524:4617   */\n      tag_183\n        /* \"#utility.yul\":4613:4616   */\n      dup3\n        /* \"#utility.yul\":4524:4617   */\n      tag_118\n      jump\t// in\n    tag_183:\n        /* \"#utility.yul\":4642:4644   */\n      0x20\n        /* \"#utility.yul\":4637:4640   */\n      dup3\n        /* \"#utility.yul\":4633:4645   */\n      add\n        /* \"#utility.yul\":4626:4645   */\n      swap1\n      pop\n        /* \"#utility.yul\":4285:4651   */\n      swap2\n      swap1\n      pop\n      jump\t// out\n        /* \"#utility.yul\":4657:5076   */\n    tag_54:\n        /* \"#utility.yul\":4823:4827   */\n      0x00\n        /* \"#utility.yul\":4861:4863   */\n      0x20\n        /* \"#utility.yul\":4850:4859   */\n      dup3\n        /* \"#utility.yul\":4846:4864   */\n      add\n        /* \"#utility.yul\":4838:4864   */\n      swap1\n      pop\n        /* \"#utility.yul\":4910:4919   */\n      dup2\n        /* \"#utility.yul\":4904:4908   */\n      dup2\n        /* \"#utility.yul\":4900:4920   */\n      sub\n        /* \"#utility.yul\":4896:4897   */\n      0x00\n        /* \"#utility.yul\":4885:4894   */\n      dup4\n        /* \"#utility.yul\":4881:4898   */\n      add\n        /* \"#utility.yul\":4874:4921   */\n      mstore\n        /* \"#utility.yul\":4938:5069   */\n      tag_185\n        /* \"#utility.yul\":5064:5068   */\n      dup2\n        /* \"#utility.yul\":4938:5069   */\n      tag_119\n      jump\t// in\n    tag_185:\n        /* \"#utility.yul\":4930:5069   */\n      swap1\n      pop\n        /* \"#utility.yul\":4657:5076   */\n      swap2\n      swap1\n      pop\n      jump\t// out\n        /* \"#utility.yul\":5082:5262   */\n    tag_61:\n        /* \"#utility.yul\":5130:5207   */\n      0x4e487b7100000000000000000000000000000000000000000000000000000000\n        /* \"#utility.yul\":5127:5128   */\n      0x00\n        /* \"#utility.yul\":5120:5208   */\n      mstore\n        /* \"#utility.yul\":5227:5231   */\n      0x32\n        /* \"#utility.yul\":5224:5225   */\n      0x04\n        /* \"#utility.yul\":5217:5232   */\n      mstore\n        /* \"#utility.yul\":5251:5255   */\n      0x24\n        /* \"#utility.yul\":5248:5249   */\n      0x00\n        /* \"#utility.yul\":5241:5256   */\n      revert\n        /* \"#utility.yul\":5268:5501   */\n    tag_64:\n        /* \"#utility.yul\":5307:5310   */\n      0x00\n        /* \"#utility.yul\":5330:5354   */\n      tag_188\n        /* \"#utility.yul\":5348:5353   */\n      dup3\n        /* \"#utility.yul\":5330:5354   */\n      tag_109\n      jump\t// in\n    tag_188:\n        /* \"#utility.yul\":5321:5354   */\n      swap2\n      pop\n        /* \"#utility.yul\":5376:5442   */\n      0xffffffffffffffffffffffffffffffffffffffffffffffffffffffffffffffff\n        /* \"#utility.yul\":5369:5374   */\n      dup3\n        /* \"#utility.yul\":5366:5443   */\n      sub\n        /* \"#utility.yul\":5363:5466   */\n      tag_189\n      jumpi\n        /* \"#utility.yul\":5446:5464   */\n      tag_190\n      tag_117\n      jump\t// in\n    tag_190:\n        /* \"#utility.yul\":5363:5466   */\n    tag_189:\n        /* \"#utility.yul\":5493:5494   */\n      0x01\n        /* \"#utility.yul\":5486:5491   */\n      dup3\n        /* \"#utility.yul\":5482:5495   */\n      add\n        /* \"#utility.yul\":5475:5495   */\n      swap1\n      pop\n        /* \"#utility.yul\":5268:5501   */\n      swap2\n      swap1\n      pop\n      jump\t// out\n        /* \"#utility.yul\":5507:5687   */\n    tag_67:\n        /* \"#utility.yul\":5555:5632   */\n      0x4e487b7100000000000000000000000000000000000000000000000000000000\n        /* \"#utility.yul\":5552:5553   */\n      0x00\n        /* \"#utility.yul\":5545:5633   */\n      mstore\n        /* \"#utility.yul\":5652:5656   */\n      0x41\n        /* \"#utility.yul\":5649:5650   */\n      0x04\n        /* \"#utility.yul\":5642:5657   */\n      mstore\n        /* \"#utility.yul\":5676:5680   */\n      0x24\n        /* \"#utility.yul\":5673:5674   */\n      0x00\n        /* \"#utility.yul\":5666:5681   */\n      revert\n        /* \"#utility.yul\":5693:5840   */\n    tag_120:\n        /* \"#utility.yul\":5794:5805   */\n      0x00\n        /* \"#utility.yul\":5831:5834   */\n      dup2\n        /* \"#utility.yul\":5816:5834   */\n      swap1\n      pop\n        /* \"#utility.yul\":5693:5840   */\n      swap3\n      swap2\n      pop\n      pop\n      jump\t// out\n        /* \"#utility.yul\":5846:5960   */\n    tag_121:\n      pop\n      jump\t// out\n        /* \"#utility.yul\":5966:6364   */\n    tag_122:\n        /* \"#utility.yul\":6125:6128   */\n      0x00\n        /* \"#utility.yul\":6146:6229   */\n      tag_195\n        /* \"#utility.yul\":6227:6228   */\n      0x00\n        /* \"#utility.yul\":6222:6225   */\n      dup4\n        /* \"#utility.yul\":6146:6229   */\n      tag_120\n      jump\t// in\n    tag_195:\n        /* \"#utility.yul\":6139:6229   */\n      swap2\n      pop\n        /* \"#utility.yul\":6238:6331   */\n      tag_196\n        /* \"#utility.yul\":6327:6330   */\n      dup3\n        /* \"#utility.yul\":6238:6331   */\n      tag_121\n      jump\t// in\n    tag_196:\n        /* \"#utility.yul\":6356:6357   */\n      0x00\n        /* \"#utility.yul\":6351:6354   */\n      dup3\n        /* \"#utility.yul\":6347:6358   */\n      add\n        /* \"#utility.yul\":6340:6358   */\n      swap1\n      pop\n        /* \"#utility.yul\":5966:6364   */\n      swap2\n      swap1\n      pop\n      jump\t// out\n        /* \"#utility.yul\":6370:6749   */\n    tag_72:\n        /* \"#utility.yul\":6554:6557   */\n      0x00\n        /* \"#utility.yul\":6576:6723   */\n      tag_198\n        /* \"#utility.yul\":6719:6722   */\n      dup3\n        /* \"#utility.yul\":6576:6723   */\n      tag_122\n      jump\t// in\n    tag_198:\n        /* \"#utility.yul\":6569:6723   */\n      swap2\n      pop\n        /* \"#utility.yul\":6740:6743   */\n      dup2\n        /* \"#utility.yul\":6733:6743   */\n      swap1\n      pop\n        /* \"#utility.yul\":6370:6749   */\n      swap2\n      swap1\n      pop\n      jump\t// out\n        /* \"#utility.yul\":6755:6916   */\n    tag_123:\n        /* \"#utility.yul\":6895:6908   */\n      0x43616c6c206661696c6564000000000000000000000000000000000000000000\n        /* \"#utility.yul\":6891:6892   */\n      0x00\n        /* \"#utility.yul\":6883:6889   */\n      dup3\n        /* \"#utility.yul\":6879:6893   */\n      add\n        /* \"#utility.yul\":6872:6909   */\n      mstore\n        /* \"#utility.yul\":6755:6916   */\n      pop\n      jump\t// out\n        /* \"#utility.yul\":6922:7288   */\n    tag_124:\n        /* \"#utility.yul\":7064:7067   */\n      0x00\n        /* \"#utility.yul\":7085:7152   */\n      tag_201\n        /* \"#utility.yul\":7149:7151   */\n      0x0b\n        /* \"#utility.yul\":7144:7147   */\n      dup4\n        /* \"#utility.yul\":7085:7152   */\n      tag_114\n      jump\t// in\n    tag_201:\n        /* \"#utility.yul\":7078:7152   */\n      swap2\n      pop\n        /* \"#utility.yul\":7161:7254   */\n      tag_202\n        /* \"#utility.yul\":7250:7253   */\n      dup3\n        /* \"#utility.yul\":7161:7254   */\n      tag_123\n      jump\t// in\n    tag_202:\n        /* \"#utility.yul\":7279:7281   */\n      0x20\n        /* \"#utility.yul\":7274:7277   */\n      dup3\n        /* \"#utility.yul\":7270:7282   */\n      add\n        /* \"#utility.yul\":7263:7282   */\n      swap1\n      pop\n        /* \"#utility.yul\":6922:7288   */\n      swap2\n      swap1\n      pop\n      jump\t// out\n        /* \"#utility.yul\":7294:7713   */\n    tag_78:\n        /* \"#utility.yul\":7460:7464   */\n      0x00\n        /* \"#utility.yul\":7498:7500   */\n      0x20\n        /* \"#utility.yul\":7487:7496   */\n      dup3\n        /* \"#utility.yul\":7483:7501   */\n      add\n        /* \"#utility.yul\":7475:7501   */\n      swap1\n      pop\n        /* \"#utility.yul\":7547:7556   */\n      dup2\n        /* \"#utility.yul\":7541:7545   */\n      dup2\n        /* \"#utility.yul\":7537:7557   */\n      sub\n        /* \"#utility.yul\":7533:7534   */\n      0x00\n        /* \"#utility.yul\":7522:7531   */\n      dup4\n        /* \"#utility.yul\":7518:7535   */\n      add\n        /* \"#utility.yul\":7511:7558   */\n      mstore\n        /* \"#utility.yul\":7575:7706   */\n      tag_204\n        /* \"#utility.yul\":7701:7705   */\n      dup2\n        /* \"#utility.yul\":7575:7706   */\n      tag_124\n      jump\t// in\n    tag_204:\n        /* \"#utility.yul\":7567:7706   */\n      swap1\n      pop\n        /* \"#utility.yul\":7294:7713   */\n      swap2\n      swap1\n      pop\n      jump\t// out\n        /* \"#utility.yul\":7719:8129   */\n    tag_85:\n        /* \"#utility.yul\":7759:7766   */\n      0x00\n        /* \"#utility.yul\":7782:7802   */\n      tag_206\n        /* \"#utility.yul\":7800:7801   */\n      dup3\n        /* \"#utility.yul\":7782:7802   */\n      tag_109\n      jump\t// in\n    tag_206:\n        /* \"#utility.yul\":7777:7802   */\n      swap2\n      pop\n        /* \"#utility.yul\":7816:7836   */\n      tag_207\n        /* \"#utility.yul\":7834:7835   */\n      dup4\n        /* \"#utility.yul\":7816:7836   */\n      tag_109\n      jump\t// in\n    tag_207:\n        /* \"#utility.yul\":7811:7836   */\n      swap3\n      pop\n        /* \"#utility.yul\":7871:7872   */\n      dup3\n        /* \"#utility.yul\":7868:7869   */\n      dup3\n        /* \"#utility.yul\":7864:7873   */\n      mul\n        /* \"#utility.yul\":7893:7923   */\n      tag_208\n        /* \"#utility.yul\":7911:7922   */\n      dup2\n        /* \"#utility.yul\":7893:7923   */\n      tag_109\n      jump\t// in\n    tag_208:\n        /* \"#utility.yul\":7882:7923   */\n      swap2\n      pop\n        /* \"#utility.yul\":8072:8073   */\n      dup3\n        /* \"#utility.yul\":8063:8070   */\n      dup3\n        /* \"#utility.yul\":8059:8074   */\n      div\n        /* \"#utility.yul\":8056:8057   */\n      dup5\n        /* \"#utility.yul\":8053:8075   */\n      eq\n        /* \"#utility.yul\":8033:8034   */\n      dup4\n        /* \"#utility.yul\":8026:8035   */\n      iszero\n        /* \"#utility.yul\":8006:8089   */\n      or\n        /* \"#utility.yul\":7983:8122   */\n      tag_209\n      jumpi\n        /* \"#utility.yul\":8102:8120   */\n      tag_210\n      tag_117\n      jump\t// in\n    tag_210:\n        /* \"#utility.yul\":7983:8122   */\n    tag_209:\n        /* \"#utility.yul\":7767:8129   */\n      pop\n        /* \"#utility.yul\":7719:8129   */\n      swap3\n      swap2\n      pop\n      pop\n      jump\t// out\n        /* \"#utility.yul\":8135:8315   */\n    tag_125:\n        /* \"#utility.yul\":8183:8260   */\n      0x4e487b7100000000000000000000000000000000000000000000000000000000\n        /* \"#utility.yul\":8180:8181   */\n      0x00\n        /* \"#utility.yul\":8173:8261   */\n      mstore\n        /* \"#utility.yul\":8280:8284   */\n      0x12\n        /* \"#utility.yul\":8277:8278   */\n      0x04\n        /* \"#utility.yul\":8270:8285   */\n      mstore\n        /* \"#utility.yul\":8304:8308   */\n      0x24\n        /* \"#utility.yul\":8301:8302   */\n      0x00\n        /* \"#utility.yul\":8294:8309   */\n      revert\n        /* \"#utility.yul\":8321:8506   */\n    tag_87:\n        /* \"#utility.yul\":8361:8362   */\n      0x00\n        /* \"#utility.yul\":8378:8398   */\n      tag_213\n        /* \"#utility.yul\":8396:8397   */\n      dup3\n        /* \"#utility.yul\":8378:8398   */\n      tag_109\n      jump\t// in\n    tag_213:\n        /* \"#utility.yul\":8373:8398   */\n      swap2\n      pop\n        /* \"#utility.yul\":8412:8432   */\n      tag_214\n        /* \"#utility.yul\":8430:8431   */\n      dup4\n        /* \"#utility.yul\":8412:8432   */\n      tag_109\n      jump\t// in\n    tag_214:\n        /* \"#utility.yul\":8407:8432   */\n      swap3\n      pop\n        /* \"#utility.yul\":8451:8452   */\n      dup3\n        /* \"#utility.yul\":8441:8476   */\n      tag_215\n      jumpi\n        /* \"#utility.yul\":8456:8474   */\n      tag_216\n      tag_125\n      jump\t// in\n    tag_216:\n        /* \"#utility.yul\":8441:8476   */\n    tag_215:\n        /* \"#utility.yul\":8498:8499   */\n      dup3\n        /* \"#utility.yul\":8495:8496   */\n      dup3\n        /* \"#utility.yul\":8491:8500   */\n      div\n        /* \"#utility.yul\":8486:8500   */\n      swap1\n      pop\n        /* \"#utility.yul\":8321:8506   */\n      swap3\n      swap2\n      pop\n      pop\n      jump\t// out\n        /* \"#utility.yul\":8512:8617   */\n    tag_126:\n        /* \"#utility.yul\":8548:8555   */\n      0x00\n        /* \"#utility.yul\":8588:8610   */\n      0xffffffffffffffffffff\n        /* \"#utility.yul\":8581:8586   */\n      dup3\n        /* \"#utility.yul\":8577:8611   */\n      and\n        /* \"#utility.yul\":8566:8611   */\n      swap1\n      pop\n        /* \"#utility.yul\":8512:8617   */\n      swap2\n      swap1\n      pop\n      jump\t// out\n        /* \"#utility.yul\":8623:8743   */\n    tag_127:\n        /* \"#utility.yul\":8695:8718   */\n      tag_219\n        /* \"#utility.yul\":8712:8717   */\n      dup2\n        /* \"#utility.yul\":8695:8718   */\n      tag_126\n      jump\t// in\n    tag_219:\n        /* \"#utility.yul\":8688:8693   */\n      dup2\n        /* \"#utility.yul\":8685:8719   */\n      eq\n        /* \"#utility.yul\":8675:8737   */\n      tag_220\n      jumpi\n        /* \"#utility.yul\":8733:8734   */\n      0x00\n        /* \"#utility.yul\":8730:8731   */\n      dup1\n        /* \"#utility.yul\":8723:8735   */\n      revert\n        /* \"#utility.yul\":8675:8737   */\n    tag_220:\n        /* \"#utility.yul\":8623:8743   */\n      pop\n      jump\t// out\n        /* \"#utility.yul\":8749:8890   */\n    tag_128:\n        /* \"#utility.yul\":8805:8810   */\n      0x00\n        /* \"#utility.yul\":8836:8842   */\n      dup2\n        /* \"#utility.yul\":8830:8843   */\n      mload\n        /* \"#utility.yul\":8821:8843   */\n      swap1\n      pop\n        /* \"#utility.yul\":8852:8884   */\n      tag_222\n        /* \"#utility.yul\":8878:8883   */\n      dup2\n        /* \"#utility.yul\":8852:8884   */\n      tag_127\n      jump\t// in\n    tag_222:\n        /* \"#utility.yul\":8749:8890   */\n      swap3\n      swap2\n      pop\n      pop\n      jump\t// out\n        /* \"#utility.yul\":8896:8972   */\n    tag_129:\n        /* \"#utility.yul\":8932:8939   */\n      0x00\n        /* \"#utility.yul\":8961:8966   */\n      dup2\n        /* \"#utility.yul\":8950:8966   */\n      swap1\n      pop\n        /* \"#utility.yul\":8896:8972   */\n      swap2\n      swap1\n      pop\n      jump\t// out\n        /* \"#utility.yul\":8978:9098   */\n    tag_130:\n        /* \"#utility.yul\":9050:9073   */\n      tag_225\n        /* \"#utility.yul\":9067:9072   */\n      dup2\n        /* \"#utility.yul\":9050:9073   */\n      tag_129\n      jump\t// in\n    tag_225:\n        /* \"#utility.yul\":9043:9048   */\n      dup2\n        /* \"#utility.yul\":9040:9074   */\n      eq\n        /* \"#utility.yul\":9030:9092   */\n      tag_226\n      jumpi\n        /* \"#utility.yul\":9088:9089   */\n      0x00\n        /* \"#utility.yul\":9085:9086   */\n      dup1\n        /* \"#utility.yul\":9078:9090   */\n      revert\n        /* \"#utility.yul\":9030:9092   */\n    tag_226:\n        /* \"#utility.yul\":8978:9098   */\n      pop\n      jump\t// out\n        /* \"#utility.yul\":9104:9245   */\n    tag_131:\n        /* \"#utility.yul\":9160:9165   */\n      0x00\n        /* \"#utility.yul\":9191:9197   */\n      dup2\n        /* \"#utility.yul\":9185:9198   */\n      mload\n        /* \"#utility.yul\":9176:9198   */\n      swap1\n      pop\n        /* \"#utility.yul\":9207:9239   */\n      tag_228\n        /* \"#utility.yul\":9233:9238   */\n      dup2\n        /* \"#utility.yul\":9207:9239   */\n      tag_130\n      jump\t// in\n    tag_228:\n        /* \"#utility.yul\":9104:9245   */\n      swap3\n      swap2\n      pop\n      pop\n      jump\t// out\n        /* \"#utility.yul\":9251:9394   */\n    tag_132:\n        /* \"#utility.yul\":9308:9313   */\n      0x00\n        /* \"#utility.yul\":9339:9345   */\n      dup2\n        /* \"#utility.yul\":9333:9346   */\n      mload\n        /* \"#utility.yul\":9324:9346   */\n      swap1\n      pop\n        /* \"#utility.yul\":9355:9388   */\n      tag_230\n        /* \"#utility.yul\":9382:9387   */\n      dup2\n        /* \"#utility.yul\":9355:9388   */\n      tag_112\n      jump\t// in\n    tag_230:\n        /* \"#utility.yul\":9251:9394   */\n      swap3\n      swap2\n      pop\n      pop\n      jump\t// out\n        /* \"#utility.yul\":9400:10371   */\n    tag_92:\n        /* \"#utility.yul\":9503:9509   */\n      0x00\n        /* \"#utility.yul\":9511:9517   */\n      dup1\n        /* \"#utility.yul\":9519:9525   */\n      0x00\n        /* \"#utility.yul\":9527:9533   */\n      dup1\n        /* \"#utility.yul\":9535:9541   */\n      0x00\n        /* \"#utility.yul\":9584:9587   */\n      0xa0\n        /* \"#utility.yul\":9572:9581   */\n      dup7\n        /* \"#utility.yul\":9563:9570   */\n      dup9\n        /* \"#utility.yul\":9559:9582   */\n      sub\n        /* \"#utility.yul\":9555:9588   */\n      slt\n        /* \"#utility.yul\":9552:9672   */\n      iszero\n      tag_232\n      jumpi\n        /* \"#utility.yul\":9591:9670   */\n      tag_233\n      tag_103\n      jump\t// in\n    tag_233:\n        /* \"#utility.yul\":9552:9672   */\n    tag_232:\n        /* \"#utility.yul\":9711:9712   */\n      0x00\n        /* \"#utility.yul\":9736:9799   */\n      tag_234\n        /* \"#utility.yul\":9791:9798   */\n      dup9\n        /* \"#utility.yul\":9782:9788   */\n      dup3\n        /* \"#utility.yul\":9771:9780   */\n      dup10\n        /* \"#utility.yul\":9767:9789   */\n      add\n        /* \"#utility.yul\":9736:9799   */\n      tag_128\n      jump\t// in\n    tag_234:\n        /* \"#utility.yul\":9726:9799   */\n      swap6\n      pop\n        /* \"#utility.yul\":9682:9809   */\n      pop\n        /* \"#utility.yul\":9848:9850   */\n      0x20\n        /* \"#utility.yul\":9874:9937   */\n      tag_235\n        /* \"#utility.yul\":9929:9936   */\n      dup9\n        /* \"#utility.yul\":9920:9926   */\n      dup3\n        /* \"#utility.yul\":9909:9918   */\n      dup10\n        /* \"#utility.yul\":9905:9927   */\n      add\n        /* \"#utility.yul\":9874:9937   */\n      tag_131\n      jump\t// in\n    tag_235:\n        /* \"#utility.yul\":9864:9937   */\n      swap5\n      pop\n        /* \"#utility.yul\":9819:9947   */\n      pop\n        /* \"#utility.yul\":9986:9988   */\n      0x40\n        /* \"#utility.yul\":10012:10076   */\n      tag_236\n        /* \"#utility.yul\":10068:10075   */\n      dup9\n        /* \"#utility.yul\":10059:10065   */\n      dup3\n        /* \"#utility.yul\":10048:10057   */\n      dup10\n        /* \"#utility.yul\":10044:10066   */\n      add\n        /* \"#utility.yul\":10012:10076   */\n      tag_132\n      jump\t// in\n    tag_236:\n        /* \"#utility.yul\":10002:10076   */\n      swap4\n      pop\n        /* \"#utility.yul\":9957:10086   */\n      pop\n        /* \"#utility.yul\":10125:10127   */\n      0x60\n        /* \"#utility.yul\":10151:10215   */\n      tag_237\n        /* \"#utility.yul\":10207:10214   */\n      dup9\n        /* \"#utility.yul\":10198:10204   */\n      dup3\n        /* \"#utility.yul\":10187:10196   */\n      dup10\n        /* \"#utility.yul\":10183:10205   */\n      add\n        /* \"#utility.yul\":10151:10215   */\n      tag_132\n      jump\t// in\n    tag_237:\n        /* \"#utility.yul\":10141:10215   */\n      swap3\n      pop\n        /* \"#utility.yul\":10096:10225   */\n      pop\n        /* \"#utility.yul\":10264:10267   */\n      0x80\n        /* \"#utility.yul\":10291:10354   */\n      tag_238\n        /* \"#utility.yul\":10346:10353   */\n      dup9\n        /* \"#utility.yul\":10337:10343   */\n      dup3\n        /* \"#utility.yul\":10326:10335   */\n      dup10\n        /* \"#utility.yul\":10322:10344   */\n      add\n        /* \"#utility.yul\":10291:10354   */\n      tag_128\n      jump\t// in\n    tag_238:\n        /* \"#utility.yul\":10281:10354   */\n      swap2\n      pop\n        /* \"#utility.yul\":10235:10364   */\n      pop\n        /* \"#utility.yul\":9400:10371   */\n      swap3\n      swap6\n      pop\n      swap3\n      swap6\n      swap1\n      swap4\n      pop\n      jump\t// out\n        /* \"#utility.yul\":10377:10933   */\n    tag_94:\n        /* \"#utility.yul\":10416:10423   */\n      0x00\n        /* \"#utility.yul\":10439:10458   */\n      tag_240\n        /* \"#utility.yul\":10456:10457   */\n      dup3\n        /* \"#utility.yul\":10439:10458   */\n      tag_129\n      jump\t// in\n    tag_240:\n        /* \"#utility.yul\":10434:10458   */\n      swap2\n      pop\n        /* \"#utility.yul\":10472:10491   */\n      tag_241\n        /* \"#utility.yul\":10489:10490   */\n      dup4\n        /* \"#utility.yul\":10472:10491   */\n      tag_129\n      jump\t// in\n    tag_241:\n        /* \"#utility.yul\":10467:10491   */\n      swap3\n      pop\n        /* \"#utility.yul\":10526:10527   */\n      dup3\n        /* \"#utility.yul\":10523:10524   */\n      dup3\n        /* \"#utility.yul\":10519:10528   */\n      mul\n        /* \"#utility.yul\":10548:10577   */\n      tag_242\n        /* \"#utility.yul\":10565:10576   */\n      dup2\n        /* \"#utility.yul\":10548:10577   */\n      tag_129\n      jump\t// in\n    tag_242:\n        /* \"#utility.yul\":10537:10577   */\n      swap2\n      pop\n        /* \"#utility.yul\":10635:10701   */\n      0x8000000000000000000000000000000000000000000000000000000000000000\n        /* \"#utility.yul\":10632:10633   */\n      dup5\n        /* \"#utility.yul\":10629:10702   */\n      eq\n        /* \"#utility.yul\":10625:10626   */\n      0x00\n        /* \"#utility.yul\":10622:10623   */\n      dup5\n        /* \"#utility.yul\":10618:10627   */\n      slt\n        /* \"#utility.yul\":10614:10703   */\n      and\n        /* \"#utility.yul\":10611:10726   */\n      iszero\n      tag_243\n      jumpi\n        /* \"#utility.yul\":10706:10724   */\n      tag_244\n      tag_117\n      jump\t// in\n    tag_244:\n        /* \"#utility.yul\":10611:10726   */\n    tag_243:\n        /* \"#utility.yul\":10876:10877   */\n      dup3\n        /* \"#utility.yul\":10867:10874   */\n      dup3\n        /* \"#utility.yul\":10862:10878   */\n      sdiv\n        /* \"#utility.yul\":10859:10860   */\n      dup5\n        /* \"#utility.yul\":10856:10879   */\n      eq\n        /* \"#utility.yul\":10836:10837   */\n      dup4\n        /* \"#utility.yul\":10829:10838   */\n      iszero\n        /* \"#utility.yul\":10809:10893   */\n      or\n        /* \"#utility.yul\":10786:10926   */\n      tag_245\n      jumpi\n        /* \"#utility.yul\":10906:10924   */\n      tag_246\n      tag_117\n      jump\t// in\n    tag_246:\n        /* \"#utility.yul\":10786:10926   */\n    tag_245:\n        /* \"#utility.yul\":10424:10933   */\n      pop\n        /* \"#utility.yul\":10377:10933   */\n      swap3\n      swap2\n      pop\n      pop\n      jump\t// out\n\n    auxdata: 0xa264697066735822122026675a4c52764bdf9d0cebc44b5db11f2ab9791b1002c39e025e6cf8f47d04b164736f6c63430008120033\n}\n",
				"bytecode": {
					"linkReferences": {},
					"object": "60806040526802b5e3af16b188000060005534801561001d57600080fd5b5033600360006101000a81548173ffffffffffffffffffffffffffffffffffffffff021916908373ffffffffffffffffffffffffffffffffffffffff160217905550610d078061006e6000396000f3fe6080604052600436106100595760003560e01c80633ccfd60b146100725780638c04995f146100895780638da5cb5b146100c6578063d1d9165d146100f1578063dc0d3dff146100fb578063dc992aa01461013857610068565b3661006857610066610163565b005b610070610163565b005b34801561007e57600080fd5b5061008761026b565b005b34801561009557600080fd5b506100b060048036038101906100ab9190610727565b6104b7565b6040516100bd919061076d565b60405180910390f35b3480156100d257600080fd5b506100db6104cf565b6040516100e89190610797565b60405180910390f35b6100f9610163565b005b34801561010757600080fd5b50610122600480360381019061011d91906107de565b6104f5565b60405161012f9190610797565b60405180910390f35b34801561014457600080fd5b5061014d610534565b60405161015a919061076d565b60405180910390f35b60005461016f3461053a565b10156101b0576040517f08c379a00000000000000000000000000000000000000000000000000000000081526004016101a790610868565b60405180910390fd5b6001339080600181540180825580915050600190039060005260206000200160009091909190916101000a81548173ffffffffffffffffffffffffffffffffffffffff021916908373ffffffffffffffffffffffffffffffffffffffff16021790555034600260003373ffffffffffffffffffffffffffffffffffffffff1673ffffffffffffffffffffffffffffffffffffffff168152602001908152602001600020600082825461026291906108b7565b92505081905550565b600360009054906101000a900473ffffffffffffffffffffffffffffffffffffffff1673ffffffffffffffffffffffffffffffffffffffff163373ffffffffffffffffffffffffffffffffffffffff16146102fb576040517f08c379a00000000000000000000000000000000000000000000000000000000081526004016102f290610937565b60405180910390fd5b60005b6001805490508110156103a75760006001828154811061032157610320610957565b5b9060005260206000200160009054906101000a900473ffffffffffffffffffffffffffffffffffffffff1690506000600260008373ffffffffffffffffffffffffffffffffffffffff1673ffffffffffffffffffffffffffffffffffffffff1681526020019081526020016000208190555050808061039f90610986565b9150506102fe565b50600067ffffffffffffffff8111156103c3576103c26109ce565b5b6040519080825280602002602001820160405280156103f15781602001602082028036833780820191505090505b506001908051906020019061040792919061061d565b5060003373ffffffffffffffffffffffffffffffffffffffff164760405161042e90610a2e565b60006040518083038185875af1925050503d806000811461046b576040519150601f19603f3d011682016040523d82523d6000602084013e610470565b606091505b50509050806104b4576040517f08c379a00000000000000000000000000000000000000000000000000000000081526004016104ab90610a8f565b60405180910390fd5b50565b60026020528060005260406000206000915090505481565b600360009054906101000a900473ffffffffffffffffffffffffffffffffffffffff1681565b6001818154811061050557600080fd5b906000526020600020016000915054906101000a900473ffffffffffffffffffffffffffffffffffffffff1681565b60005481565b600080610545610574565b90506000670de0b6b3a7640000848361055e9190610aaf565b6105689190610b20565b90508092505050919050565b60008073694aa1769357215de4fac081bf1f309adc325306905060008173ffffffffffffffffffffffffffffffffffffffff1663feaf968c6040518163ffffffff1660e01b815260040160a060405180830381865afa1580156105db573d6000803e3d6000fd5b505050506040513d601f19601f820116820180604052508101906105ff9190610bde565b5050509150506402540be400816106169190610c59565b9250505090565b828054828255906000526020600020908101928215610696579160200282015b828111156106955782518260006101000a81548173ffffffffffffffffffffffffffffffffffffffff021916908373ffffffffffffffffffffffffffffffffffffffff1602179055509160200191906001019061063d565b5b5090506106a391906106a7565b5090565b5b808211156106c05760008160009055506001016106a8565b5090565b600080fd5b600073ffffffffffffffffffffffffffffffffffffffff82169050919050565b60006106f4826106c9565b9050919050565b610704816106e9565b811461070f57600080fd5b50565b600081359050610721816106fb565b92915050565b60006020828403121561073d5761073c6106c4565b5b600061074b84828501610712565b91505092915050565b6000819050919050565b61076781610754565b82525050565b6000602082019050610782600083018461075e565b92915050565b610791816106e9565b82525050565b60006020820190506107ac6000830184610788565b92915050565b6107bb81610754565b81146107c657600080fd5b50565b6000813590506107d8816107b2565b92915050565b6000602082840312156107f4576107f36106c4565b5b6000610802848285016107c9565b91505092915050565b600082825260208201905092915050565b7f53656e64206d6f7265207468616e203120657468000000000000000000000000600082015250565b600061085260148361080b565b915061085d8261081c565b602082019050919050565b6000602082019050818103600083015261088181610845565b9050919050565b7f4e487b7100000000000000000000000000000000000000000000000000000000600052601160045260246000fd5b60006108c282610754565b91506108cd83610754565b92508282019050808211156108e5576108e4610888565b5b92915050565b7f5468652073656e646572206973206e6f7420746865206f776e65720000000000600082015250565b6000610921601b8361080b565b915061092c826108eb565b602082019050919050565b6000602082019050818103600083015261095081610914565b9050919050565b7f4e487b7100000000000000000000000000000000000000000000000000000000600052603260045260246000fd5b600061099182610754565b91507fffffffffffffffffffffffffffffffffffffffffffffffffffffffffffffffff82036109c3576109c2610888565b5b600182019050919050565b7f4e487b7100000000000000000000000000000000000000000000000000000000600052604160045260246000fd5b600081905092915050565b50565b6000610a186000836109fd565b9150610a2382610a08565b600082019050919050565b6000610a3982610a0b565b9150819050919050565b7f43616c6c206661696c6564000000000000000000000000000000000000000000600082015250565b6000610a79600b8361080b565b9150610a8482610a43565b602082019050919050565b60006020820190508181036000830152610aa881610a6c565b9050919050565b6000610aba82610754565b9150610ac583610754565b9250828202610ad381610754565b91508282048414831517610aea57610ae9610888565b5b5092915050565b7f4e487b7100000000000000000000000000000000000000000000000000000000600052601260045260246000fd5b6000610b2b82610754565b9150610b3683610754565b925082610b4657610b45610af1565b5b828204905092915050565b600069ffffffffffffffffffff82169050919050565b610b7081610b51565b8114610b7b57600080fd5b50565b600081519050610b8d81610b67565b92915050565b6000819050919050565b610ba681610b93565b8114610bb157600080fd5b50565b600081519050610bc381610b9d565b92915050565b600081519050610bd8816107b2565b92915050565b600080600080600060a08688031215610bfa57610bf96106c4565b5b6000610c0888828901610b7e565b9550506020610c1988828901610bb4565b9450506040610c2a88828901610bc9565b9350506060610c3b88828901610bc9565b9250506080610c4c88828901610b7e565b9150509295509295909350565b6000610c6482610b93565b9150610c6f83610b93565b9250828202610c7d81610b93565b91507f80000000000000000000000000000000000000000000000000000000000000008414600084121615610cb557610cb4610888565b5b8282058414831517610cca57610cc9610888565b5b509291505056fea264697066735822122026675a4c52764bdf9d0cebc44b5db11f2ab9791b1002c39e025e6cf8f47d04b164736f6c63430008120033",
					"opcodes": "PUSH1 0x80 PUSH1 0x40 MSTORE PUSH9 0x2B5E3AF16B1880000 PUSH1 0x0 SSTORE CALLVALUE DUP1 ISZERO PUSH2 0x1D JUMPI PUSH1 0x0 DUP1 REVERT JUMPDEST POP CALLER PUSH1 0x3 PUSH1 0x0 PUSH2 0x100 EXP DUP2 SLOAD DUP2 PUSH20 0xFFFFFFFFFFFFFFFFFFFFFFFFFFFFFFFFFFFFFFFF MUL NOT AND SWAP1 DUP4 PUSH20 0xFFFFFFFFFFFFFFFFFFFFFFFFFFFFFFFFFFFFFFFF AND MUL OR SWAP1 SSTORE POP PUSH2 0xD07 DUP1 PUSH2 0x6E PUSH1 0x0 CODECOPY PUSH1 0x0 RETURN INVALID PUSH1 0x80 PUSH1 0x40 MSTORE PUSH1 0x4 CALLDATASIZE LT PUSH2 0x59 JUMPI PUSH1 0x0 CALLDATALOAD PUSH1 0xE0 SHR DUP1 PUSH4 0x3CCFD60B EQ PUSH2 0x72 JUMPI DUP1 PUSH4 0x8C04995F EQ PUSH2 0x89 JUMPI DUP1 PUSH4 0x8DA5CB5B EQ PUSH2 0xC6 JUMPI DUP1 PUSH4 0xD1D9165D EQ PUSH2 0xF1 JUMPI DUP1 PUSH4 0xDC0D3DFF EQ PUSH2 0xFB JUMPI DUP1 PUSH4 0xDC992AA0 EQ PUSH2 0x138 JUMPI PUSH2 0x68 JUMP JUMPDEST CALLDATASIZE PUSH2 0x68 JUMPI PUSH2 0x66 PUSH2 0x163 JUMP JUMPDEST STOP JUMPDEST PUSH2 0x70 PUSH2 0x163 JUMP JUMPDEST STOP JUMPDEST CALLVALUE DUP1 ISZERO PUSH2 0x7E JUMPI PUSH1 0x0 DUP1 REVERT JUMPDEST POP PUSH2 0x87 PUSH2 0x26B JUMP JUMPDEST STOP JUMPDEST CALLVALUE DUP1 ISZERO PUSH2 0x95 JUMPI PUSH1 0x0 DUP1 REVERT JUMPDEST POP PUSH2 0xB0 PUSH1 0x4 DUP1 CALLDATASIZE SUB DUP2 ADD SWAP1 PUSH2 0xAB SWAP2 SWAP1 PUSH2 0x727 JUMP JUMPDEST PUSH2 0x4B7 JUMP JUMPDEST PUSH1 0x40 MLOAD PUSH2 0xBD SWAP2 SWAP1 PUSH2 0x76D JUMP JUMPDEST PUSH1 0x40 MLOAD DUP1 SWAP2 SUB SWAP1 RETURN JUMPDEST CALLVALUE DUP1 ISZERO PUSH2 0xD2 JUMPI PUSH1 0x0 DUP1 REVERT JUMPDEST POP PUSH2 0xDB PUSH2 0x4CF JUMP JUMPDEST PUSH1 0x40 MLOAD PUSH2 0xE8 SWAP2 SWAP1 PUSH2 0x797 JUMP JUMPDEST PUSH1 0x40 MLOAD DUP1 SWAP2 SUB SWAP1 RETURN JUMPDEST PUSH2 0xF9 PUSH2 0x163 JUMP JUMPDEST STOP JUMPDEST CALLVALUE DUP1 ISZERO PUSH2 0x107 JUMPI PUSH1 0x0 DUP1 REVERT JUMPDEST POP PUSH2 0x122 PUSH1 0x4 DUP1 CALLDATASIZE SUB DUP2 ADD SWAP1 PUSH2 0x11D SWAP2 SWAP1 PUSH2 0x7DE JUMP JUMPDEST PUSH2 0x4F5 JUMP JUMPDEST PUSH1 0x40 MLOAD PUSH2 0x12F SWAP2 SWAP1 PUSH2 0x797 JUMP JUMPDEST PUSH1 0x40 MLOAD DUP1 SWAP2 SUB SWAP1 RETURN JUMPDEST CALLVALUE DUP1 ISZERO PUSH2 0x144 JUMPI PUSH1 0x0 DUP1 REVERT JUMPDEST POP PUSH2 0x14D PUSH2 0x534 JUMP JUMPDEST PUSH1 0x40 MLOAD PUSH2 0x15A SWAP2 SWAP1 PUSH2 0x76D JUMP JUMPDEST PUSH1 0x40 MLOAD DUP1 SWAP2 SUB SWAP1 RETURN JUMPDEST PUSH1 0x0 SLOAD PUSH2 0x16F CALLVALUE PUSH2 0x53A JUMP JUMPDEST LT ISZERO PUSH2 0x1B0 JUMPI PUSH1 0x40 MLOAD PUSH32 0x8C379A000000000000000000000000000000000000000000000000000000000 DUP2 MSTORE PUSH1 0x4 ADD PUSH2 0x1A7 SWAP1 PUSH2 0x868 JUMP JUMPDEST PUSH1 0x40 MLOAD DUP1 SWAP2 SUB SWAP1 REVERT JUMPDEST PUSH1 0x1 CALLER SWAP1 DUP1 PUSH1 0x1 DUP2 SLOAD ADD DUP1 DUP3 SSTORE DUP1 SWAP2 POP POP PUSH1 0x1 SWAP1 SUB SWAP1 PUSH1 0x0 MSTORE PUSH1 0x20 PUSH1 0x0 KECCAK256 ADD PUSH1 0x0 SWAP1 SWAP2 SWAP1 SWAP2 SWAP1 SWAP2 PUSH2 0x100 EXP DUP2 SLOAD DUP2 PUSH20 0xFFFFFFFFFFFFFFFFFFFFFFFFFFFFFFFFFFFFFFFF MUL NOT AND SWAP1 DUP4 PUSH20 0xFFFFFFFFFFFFFFFFFFFFFFFFFFFFFFFFFFFFFFFF AND MUL OR SWAP1 SSTORE POP CALLVALUE PUSH1 0x2 PUSH1 0x0 CALLER PUSH20 0xFFFFFFFFFFFFFFFFFFFFFFFFFFFFFFFFFFFFFFFF AND PUSH20 0xFFFFFFFFFFFFFFFFFFFFFFFFFFFFFFFFFFFFFFFF AND DUP2 MSTORE PUSH1 0x20 ADD SWAP1 DUP2 MSTORE PUSH1 0x20 ADD PUSH1 0x0 KECCAK256 PUSH1 0x0 DUP3 DUP3 SLOAD PUSH2 0x262 SWAP2 SWAP1 PUSH2 0x8B7 JUMP JUMPDEST SWAP3 POP POP DUP2 SWAP1 SSTORE POP JUMP JUMPDEST PUSH1 0x3 PUSH1 0x0 SWAP1 SLOAD SWAP1 PUSH2 0x100 EXP SWAP1 DIV PUSH20 0xFFFFFFFFFFFFFFFFFFFFFFFFFFFFFFFFFFFFFFFF AND PUSH20 0xFFFFFFFFFFFFFFFFFFFFFFFFFFFFFFFFFFFFFFFF AND CALLER PUSH20 0xFFFFFFFFFFFFFFFFFFFFFFFFFFFFFFFFFFFFFFFF AND EQ PUSH2 0x2FB JUMPI PUSH1 0x40 MLOAD PUSH32 0x8C379A000000000000000000000000000000000000000000000000000000000 DUP2 MSTORE PUSH1 0x4 ADD PUSH2 0x2F2 SWAP1 PUSH2 0x937 JUMP JUMPDEST PUSH1 0x40 MLOAD DUP1 SWAP2 SUB SWAP1 REVERT JUMPDEST PUSH1 0x0 JUMPDEST PUSH1 0x1 DUP1 SLOAD SWAP1 POP DUP2 LT ISZERO PUSH2 0x3A7 JUMPI PUSH1 0x0 PUSH1 0x1 DUP3 DUP2 SLOAD DUP2 LT PUSH2 0x321 JUMPI PUSH2 0x320 PUSH2 0x957 JUMP JUMPDEST JUMPDEST SWAP1 PUSH1 0x0 MSTORE PUSH1 0x20 PUSH1 0x0 KECCAK256 ADD PUSH1 0x0 SWAP1 SLOAD SWAP1 PUSH2 0x100 EXP SWAP1 DIV PUSH20 0xFFFFFFFFFFFFFFFFFFFFFFFFFFFFFFFFFFFFFFFF AND SWAP1 POP PUSH1 0x0 PUSH1 0x2 PUSH1 0x0 DUP4 PUSH20 0xFFFFFFFFFFFFFFFFFFFFFFFFFFFFFFFFFFFFFFFF AND PUSH20 0xFFFFFFFFFFFFFFFFFFFFFFFFFFFFFFFFFFFFFFFF AND DUP2 MSTORE PUSH1 0x20 ADD SWAP1 DUP2 MSTORE PUSH1 0x20 ADD PUSH1 0x0 KECCAK256 DUP2 SWAP1 SSTORE POP POP DUP1 DUP1 PUSH2 0x39F SWAP1 PUSH2 0x986 JUMP JUMPDEST SWAP2 POP POP PUSH2 0x2FE JUMP JUMPDEST POP PUSH1 0x0 PUSH8 0xFFFFFFFFFFFFFFFF DUP2 GT ISZERO PUSH2 0x3C3 JUMPI PUSH2 0x3C2 PUSH2 0x9CE JUMP JUMPDEST JUMPDEST PUSH1 0x40 MLOAD SWAP1 DUP1 DUP3 MSTORE DUP1 PUSH1 0x20 MUL PUSH1 0x20 ADD DUP3 ADD PUSH1 0x40 MSTORE DUP1 ISZERO PUSH2 0x3F1 JUMPI DUP2 PUSH1 0x20 ADD PUSH1 0x20 DUP3 MUL DUP1 CALLDATASIZE DUP4 CALLDATACOPY DUP1 DUP3 ADD SWAP2 POP POP SWAP1 POP JUMPDEST POP PUSH1 0x1 SWAP1 DUP1 MLOAD SWAP1 PUSH1 0x20 ADD SWAP1 PUSH2 0x407 SWAP3 SWAP2 SWAP1 PUSH2 0x61D JUMP JUMPDEST POP PUSH1 0x0 CALLER PUSH20 0xFFFFFFFFFFFFFFFFFFFFFFFFFFFFFFFFFFFFFFFF AND SELFBALANCE PUSH1 0x40 MLOAD PUSH2 0x42E SWAP1 PUSH2 0xA2E JUMP JUMPDEST PUSH1 0x0 PUSH1 0x40 MLOAD DUP1 DUP4 SUB DUP2 DUP6 DUP8 GAS CALL SWAP3 POP POP POP RETURNDATASIZE DUP1 PUSH1 0x0 DUP2 EQ PUSH2 0x46B JUMPI PUSH1 0x40 MLOAD SWAP2 POP PUSH1 0x1F NOT PUSH1 0x3F RETURNDATASIZE ADD AND DUP3 ADD PUSH1 0x40 MSTORE RETURNDATASIZE DUP3 MSTORE RETURNDATASIZE PUSH1 0x0 PUSH1 0x20 DUP5 ADD RETURNDATACOPY PUSH2 0x470 JUMP JUMPDEST PUSH1 0x60 SWAP2 POP JUMPDEST POP POP SWAP1 POP DUP1 PUSH2 0x4B4 JUMPI PUSH1 0x40 MLOAD PUSH32 0x8C379A000000000000000000000000000000000000000000000000000000000 DUP2 MSTORE PUSH1 0x4 ADD PUSH2 0x4AB SWAP1 PUSH2 0xA8F JUMP JUMPDEST PUSH1 0x40 MLOAD DUP1 SWAP2 SUB SWAP1 REVERT JUMPDEST POP JUMP JUMPDEST PUSH1 0x2 PUSH1 0x20 MSTORE DUP1 PUSH1 0x0 MSTORE PUSH1 0x40 PUSH1 0x0 KECCAK256 PUSH1 0x0 SWAP2 POP SWAP1 POP SLOAD DUP2 JUMP JUMPDEST PUSH1 0x3 PUSH1 0x0 SWAP1 SLOAD SWAP1 PUSH2 0x100 EXP SWAP1 DIV PUSH20 0xFFFFFFFFFFFFFFFFFFFFFFFFFFFFFFFFFFFFFFFF AND DUP2 JUMP JUMPDEST PUSH1 0x1 DUP2 DUP2 SLOAD DUP2 LT PUSH2 0x505 JUMPI PUSH1 0x0 DUP1 REVERT JUMPDEST SWAP1 PUSH1 0x0 MSTORE PUSH1 0x20 PUSH1 0x0 KECCAK256 ADD PUSH1 0x0 SWAP2 POP SLOAD SWAP1 PUSH2 0x100 EXP SWAP1 DIV PUSH20 0xFFFFFFFFFFFFFFFFFFFFFFFFFFFFFFFFFFFFFFFF AND DUP2 JUMP JUMPDEST PUSH1 0x0 SLOAD DUP2 JUMP JUMPDEST PUSH1 0x0 DUP1 PUSH2 0x545 PUSH2 0x574 JUMP JUMPDEST SWAP1 POP PUSH1 0x0 PUSH8 0xDE0B6B3A7640000 DUP5 DUP4 PUSH2 0x55E SWAP2 SWAP1 PUSH2 0xAAF JUMP JUMPDEST PUSH2 0x568 SWAP2 SWAP1 PUSH2 0xB20 JUMP JUMPDEST SWAP1 POP DUP1 SWAP3 POP POP POP SWAP2 SWAP1 POP JUMP JUMPDEST PUSH1 0x0 DUP1 PUSH20 0x694AA1769357215DE4FAC081BF1F309ADC325306 SWAP1 POP PUSH1 0x0 DUP2 PUSH20 0xFFFFFFFFFFFFFFFFFFFFFFFFFFFFFFFFFFFFFFFF AND PUSH4 0xFEAF968C PUSH1 0x40 MLOAD DUP2 PUSH4 0xFFFFFFFF AND PUSH1 0xE0 SHL DUP2 MSTORE PUSH1 0x4 ADD PUSH1 0xA0 PUSH1 0x40 MLOAD DUP1 DUP4 SUB DUP2 DUP7 GAS STATICCALL ISZERO DUP1 ISZERO PUSH2 0x5DB JUMPI RETURNDATASIZE PUSH1 0x0 DUP1 RETURNDATACOPY RETURNDATASIZE PUSH1 0x0 REVERT JUMPDEST POP POP POP POP PUSH1 0x40 MLOAD RETURNDATASIZE PUSH1 0x1F NOT PUSH1 0x1F DUP3 ADD AND DUP3 ADD DUP1 PUSH1 0x40 MSTORE POP DUP2 ADD SWAP1 PUSH2 0x5FF SWAP2 SWAP1 PUSH2 0xBDE JUMP JUMPDEST POP POP POP SWAP2 POP POP PUSH5 0x2540BE400 DUP2 PUSH2 0x616 SWAP2 SWAP1 PUSH2 0xC59 JUMP JUMPDEST SWAP3 POP POP POP SWAP1 JUMP JUMPDEST DUP3 DUP1 SLOAD DUP3 DUP3 SSTORE SWAP1 PUSH1 0x0 MSTORE PUSH1 0x20 PUSH1 0x0 KECCAK256 SWAP1 DUP2 ADD SWAP3 DUP3 ISZERO PUSH2 0x696 JUMPI SWAP2 PUSH1 0x20 MUL DUP3 ADD JUMPDEST DUP3 DUP2 GT ISZERO PUSH2 0x695 JUMPI DUP3 MLOAD DUP3 PUSH1 0x0 PUSH2 0x100 EXP DUP2 SLOAD DUP2 PUSH20 0xFFFFFFFFFFFFFFFFFFFFFFFFFFFFFFFFFFFFFFFF MUL NOT AND SWAP1 DUP4 PUSH20 0xFFFFFFFFFFFFFFFFFFFFFFFFFFFFFFFFFFFFFFFF AND MUL OR SWAP1 SSTORE POP SWAP2 PUSH1 0x20 ADD SWAP2 SWAP1 PUSH1 0x1 ADD SWAP1 PUSH2 0x63D JUMP JUMPDEST JUMPDEST POP SWAP1 POP PUSH2 0x6A3 SWAP2 SWAP1 PUSH2 0x6A7 JUMP JUMPDEST POP SWAP1 JUMP JUMPDEST JUMPDEST DUP1 DUP3 GT ISZERO PUSH2 0x6C0 JUMPI PUSH1 0x0 DUP2 PUSH1 0x0 SWAP1 SSTORE POP PUSH1 0x1 ADD PUSH2 0x6A8 JUMP JUMPDEST POP SWAP1 JUMP JUMPDEST PUSH1 0x0 DUP1 REVERT JUMPDEST PUSH1 0x0 PUSH20 0xFFFFFFFFFFFFFFFFFFFFFFFFFFFFFFFFFFFFFFFF DUP3 AND SWAP1 POP SWAP2 SWAP1 POP JUMP JUMPDEST PUSH1 0x0 PUSH2 0x6F4 DUP3 PUSH2 0x6C9 JUMP JUMPDEST SWAP1 POP SWAP2 SWAP1 POP JUMP JUMPDEST PUSH2 0x704 DUP2 PUSH2 0x6E9 JUMP JUMPDEST DUP2 EQ PUSH2 0x70F JUMPI PUSH1 0x0 DUP1 REVERT JUMPDEST POP JUMP JUMPDEST PUSH1 0x0 DUP2 CALLDATALOAD SWAP1 POP PUSH2 0x721 DUP2 PUSH2 0x6FB JUMP JUMPDEST SWAP3 SWAP2 POP POP JUMP JUMPDEST PUSH1 0x0 PUSH1 0x20 DUP3 DUP5 SUB SLT ISZERO PUSH2 0x73D JUMPI PUSH2 0x73C PUSH2 0x6C4 JUMP JUMPDEST JUMPDEST PUSH1 0x0 PUSH2 0x74B DUP5 DUP3 DUP6 ADD PUSH2 0x712 JUMP JUMPDEST SWAP2 POP POP SWAP3 SWAP2 POP POP JUMP JUMPDEST PUSH1 0x0 DUP2 SWAP1 POP SWAP2 SWAP1 POP JUMP JUMPDEST PUSH2 0x767 DUP2 PUSH2 0x754 JUMP JUMPDEST DUP3 MSTORE POP POP JUMP JUMPDEST PUSH1 0x0 PUSH1 0x20 DUP3 ADD SWAP1 POP PUSH2 0x782 PUSH1 0x0 DUP4 ADD DUP5 PUSH2 0x75E JUMP JUMPDEST SWAP3 SWAP2 POP POP JUMP JUMPDEST PUSH2 0x791 DUP2 PUSH2 0x6E9 JUMP JUMPDEST DUP3 MSTORE POP POP JUMP JUMPDEST PUSH1 0x0 PUSH1 0x20 DUP3 ADD SWAP1 POP PUSH2 0x7AC PUSH1 0x0 DUP4 ADD DUP5 PUSH2 0x788 JUMP JUMPDEST SWAP3 SWAP2 POP POP JUMP JUMPDEST PUSH2 0x7BB DUP2 PUSH2 0x754 JUMP JUMPDEST DUP2 EQ PUSH2 0x7C6 JUMPI PUSH1 0x0 DUP1 REVERT JUMPDEST POP JUMP JUMPDEST PUSH1 0x0 DUP2 CALLDATALOAD SWAP1 POP PUSH2 0x7D8 DUP2 PUSH2 0x7B2 JUMP JUMPDEST SWAP3 SWAP2 POP POP JUMP JUMPDEST PUSH1 0x0 PUSH1 0x20 DUP3 DUP5 SUB SLT ISZERO PUSH2 0x7F4 JUMPI PUSH2 0x7F3 PUSH2 0x6C4 JUMP JUMPDEST JUMPDEST PUSH1 0x0 PUSH2 0x802 DUP5 DUP3 DUP6 ADD PUSH2 0x7C9 JUMP JUMPDEST SWAP2 POP POP SWAP3 SWAP2 POP POP JUMP JUMPDEST PUSH1 0x0 DUP3 DUP3 MSTORE PUSH1 0x20 DUP3 ADD SWAP1 POP SWAP3 SWAP2 POP POP JUMP JUMPDEST PUSH32 0x53656E64206D6F7265207468616E203120657468000000000000000000000000 PUSH1 0x0 DUP3 ADD MSTORE POP JUMP JUMPDEST PUSH1 0x0 PUSH2 0x852 PUSH1 0x14 DUP4 PUSH2 0x80B JUMP JUMPDEST SWAP2 POP PUSH2 0x85D DUP3 PUSH2 0x81C JUMP JUMPDEST PUSH1 0x20 DUP3 ADD SWAP1 POP SWAP2 SWAP1 POP JUMP JUMPDEST PUSH1 0x0 PUSH1 0x20 DUP3 ADD SWAP1 POP DUP2 DUP2 SUB PUSH1 0x0 DUP4 ADD MSTORE PUSH2 0x881 DUP2 PUSH2 0x845 JUMP JUMPDEST SWAP1 POP SWAP2 SWAP1 POP JUMP JUMPDEST PUSH32 0x4E487B7100000000000000000000000000000000000000000000000000000000 PUSH1 0x0 MSTORE PUSH1 0x11 PUSH1 0x4 MSTORE PUSH1 0x24 PUSH1 0x0 REVERT JUMPDEST PUSH1 0x0 PUSH2 0x8C2 DUP3 PUSH2 0x754 JUMP JUMPDEST SWAP2 POP PUSH2 0x8CD DUP4 PUSH2 0x754 JUMP JUMPDEST SWAP3 POP DUP3 DUP3 ADD SWAP1 POP DUP1 DUP3 GT ISZERO PUSH2 0x8E5 JUMPI PUSH2 0x8E4 PUSH2 0x888 JUMP JUMPDEST JUMPDEST SWAP3 SWAP2 POP POP JUMP JUMPDEST PUSH32 0x5468652073656E646572206973206E6F7420746865206F776E65720000000000 PUSH1 0x0 DUP3 ADD MSTORE POP JUMP JUMPDEST PUSH1 0x0 PUSH2 0x921 PUSH1 0x1B DUP4 PUSH2 0x80B JUMP JUMPDEST SWAP2 POP PUSH2 0x92C DUP3 PUSH2 0x8EB JUMP JUMPDEST PUSH1 0x20 DUP3 ADD SWAP1 POP SWAP2 SWAP1 POP JUMP JUMPDEST PUSH1 0x0 PUSH1 0x20 DUP3 ADD SWAP1 POP DUP2 DUP2 SUB PUSH1 0x0 DUP4 ADD MSTORE PUSH2 0x950 DUP2 PUSH2 0x914 JUMP JUMPDEST SWAP1 POP SWAP2 SWAP1 POP JUMP JUMPDEST PUSH32 0x4E487B7100000000000000000000000000000000000000000000000000000000 PUSH1 0x0 MSTORE PUSH1 0x32 PUSH1 0x4 MSTORE PUSH1 0x24 PUSH1 0x0 REVERT JUMPDEST PUSH1 0x0 PUSH2 0x991 DUP3 PUSH2 0x754 JUMP JUMPDEST SWAP2 POP PUSH32 0xFFFFFFFFFFFFFFFFFFFFFFFFFFFFFFFFFFFFFFFFFFFFFFFFFFFFFFFFFFFFFFFF DUP3 SUB PUSH2 0x9C3 JUMPI PUSH2 0x9C2 PUSH2 0x888 JUMP JUMPDEST JUMPDEST PUSH1 0x1 DUP3 ADD SWAP1 POP SWAP2 SWAP1 POP JUMP JUMPDEST PUSH32 0x4E487B7100000000000000000000000000000000000000000000000000000000 PUSH1 0x0 MSTORE PUSH1 0x41 PUSH1 0x4 MSTORE PUSH1 0x24 PUSH1 0x0 REVERT JUMPDEST PUSH1 0x0 DUP2 SWAP1 POP SWAP3 SWAP2 POP POP JUMP JUMPDEST POP JUMP JUMPDEST PUSH1 0x0 PUSH2 0xA18 PUSH1 0x0 DUP4 PUSH2 0x9FD JUMP JUMPDEST SWAP2 POP PUSH2 0xA23 DUP3 PUSH2 0xA08 JUMP JUMPDEST PUSH1 0x0 DUP3 ADD SWAP1 POP SWAP2 SWAP1 POP JUMP JUMPDEST PUSH1 0x0 PUSH2 0xA39 DUP3 PUSH2 0xA0B JUMP JUMPDEST SWAP2 POP DUP2 SWAP1 POP SWAP2 SWAP1 POP JUMP JUMPDEST PUSH32 0x43616C6C206661696C6564000000000000000000000000000000000000000000 PUSH1 0x0 DUP3 ADD MSTORE POP JUMP JUMPDEST PUSH1 0x0 PUSH2 0xA79 PUSH1 0xB DUP4 PUSH2 0x80B JUMP JUMPDEST SWAP2 POP PUSH2 0xA84 DUP3 PUSH2 0xA43 JUMP JUMPDEST PUSH1 0x20 DUP3 ADD SWAP1 POP SWAP2 SWAP1 POP JUMP JUMPDEST PUSH1 0x0 PUSH1 0x20 DUP3 ADD SWAP1 POP DUP2 DUP2 SUB PUSH1 0x0 DUP4 ADD MSTORE PUSH2 0xAA8 DUP2 PUSH2 0xA6C JUMP JUMPDEST SWAP1 POP SWAP2 SWAP1 POP JUMP JUMPDEST PUSH1 0x0 PUSH2 0xABA DUP3 PUSH2 0x754 JUMP JUMPDEST SWAP2 POP PUSH2 0xAC5 DUP4 PUSH2 0x754 JUMP JUMPDEST SWAP3 POP DUP3 DUP3 MUL PUSH2 0xAD3 DUP2 PUSH2 0x754 JUMP JUMPDEST SWAP2 POP DUP3 DUP3 DIV DUP5 EQ DUP4 ISZERO OR PUSH2 0xAEA JUMPI PUSH2 0xAE9 PUSH2 0x888 JUMP JUMPDEST JUMPDEST POP SWAP3 SWAP2 POP POP JUMP JUMPDEST PUSH32 0x4E487B7100000000000000000000000000000000000000000000000000000000 PUSH1 0x0 MSTORE PUSH1 0x12 PUSH1 0x4 MSTORE PUSH1 0x24 PUSH1 0x0 REVERT JUMPDEST PUSH1 0x0 PUSH2 0xB2B DUP3 PUSH2 0x754 JUMP JUMPDEST SWAP2 POP PUSH2 0xB36 DUP4 PUSH2 0x754 JUMP JUMPDEST SWAP3 POP DUP3 PUSH2 0xB46 JUMPI PUSH2 0xB45 PUSH2 0xAF1 JUMP JUMPDEST JUMPDEST DUP3 DUP3 DIV SWAP1 POP SWAP3 SWAP2 POP POP JUMP JUMPDEST PUSH1 0x0 PUSH10 0xFFFFFFFFFFFFFFFFFFFF DUP3 AND SWAP1 POP SWAP2 SWAP1 POP JUMP JUMPDEST PUSH2 0xB70 DUP2 PUSH2 0xB51 JUMP JUMPDEST DUP2 EQ PUSH2 0xB7B JUMPI PUSH1 0x0 DUP1 REVERT JUMPDEST POP JUMP JUMPDEST PUSH1 0x0 DUP2 MLOAD SWAP1 POP PUSH2 0xB8D DUP2 PUSH2 0xB67 JUMP JUMPDEST SWAP3 SWAP2 POP POP JUMP JUMPDEST PUSH1 0x0 DUP2 SWAP1 POP SWAP2 SWAP1 POP JUMP JUMPDEST PUSH2 0xBA6 DUP2 PUSH2 0xB93 JUMP JUMPDEST DUP2 EQ PUSH2 0xBB1 JUMPI PUSH1 0x0 DUP1 REVERT JUMPDEST POP JUMP JUMPDEST PUSH1 0x0 DUP2 MLOAD SWAP1 POP PUSH2 0xBC3 DUP2 PUSH2 0xB9D JUMP JUMPDEST SWAP3 SWAP2 POP POP JUMP JUMPDEST PUSH1 0x0 DUP2 MLOAD SWAP1 POP PUSH2 0xBD8 DUP2 PUSH2 0x7B2 JUMP JUMPDEST SWAP3 SWAP2 POP POP JUMP JUMPDEST PUSH1 0x0 DUP1 PUSH1 0x0 DUP1 PUSH1 0x0 PUSH1 0xA0 DUP7 DUP9 SUB SLT ISZERO PUSH2 0xBFA JUMPI PUSH2 0xBF9 PUSH2 0x6C4 JUMP JUMPDEST JUMPDEST PUSH1 0x0 PUSH2 0xC08 DUP9 DUP3 DUP10 ADD PUSH2 0xB7E JUMP JUMPDEST SWAP6 POP POP PUSH1 0x20 PUSH2 0xC19 DUP9 DUP3 DUP10 ADD PUSH2 0xBB4 JUMP JUMPDEST SWAP5 POP POP PUSH1 0x40 PUSH2 0xC2A DUP9 DUP3 DUP10 ADD PUSH2 0xBC9 JUMP JUMPDEST SWAP4 POP POP PUSH1 0x60 PUSH2 0xC3B DUP9 DUP3 DUP10 ADD PUSH2 0xBC9 JUMP JUMPDEST SWAP3 POP POP PUSH1 0x80 PUSH2 0xC4C DUP9 DUP3 DUP10 ADD PUSH2 0xB7E JUMP JUMPDEST SWAP2 POP POP SWAP3 SWAP6 POP SWAP3 SWAP6 SWAP1 SWAP4 POP JUMP JUMPDEST PUSH1 0x0 PUSH2 0xC64 DUP3 PUSH2 0xB93 JUMP JUMPDEST SWAP2 POP PUSH2 0xC6F DUP4 PUSH2 0xB93 JUMP JUMPDEST SWAP3 POP DUP3 DUP3 MUL PUSH2 0xC7D DUP2 PUSH2 0xB93 JUMP JUMPDEST SWAP2 POP PUSH32 0x8000000000000000000000000000000000000000000000000000000000000000 DUP5 EQ PUSH1 0x0 DUP5 SLT AND ISZERO PUSH2 0xCB5 JUMPI PUSH2 0xCB4 PUSH2 0x888 JUMP JUMPDEST JUMPDEST DUP3 DUP3 SDIV DUP5 EQ DUP4 ISZERO OR PUSH2 0xCCA JUMPI PUSH2 0xCC9 PUSH2 0x888 JUMP JUMPDEST JUMPDEST POP SWAP3 SWAP2 POP POP JUMP INVALID LOG2 PUSH5 0x6970667358 0x22 SLT KECCAK256 0x26 PUSH8 0x5A4C52764BDF9D0C 0xEB 0xC4 0x4B 0x5D 0xB1 0x1F 0x2A 0xB9 PUSH26 0x1B1002C39E025E6CF8F47D04B164736F6C634300081200330000 "
				},
				"gasEstimates": {
					"creation": {
						"codeDepositCost": "667000",
						"executionCost": "47074",
						"totalCost": "714074"
					},
					"external": {
						"": "infinite",
						"addressToAmountFund(address)": "2814",
						"funders(uint256)": "5022",
						"fundme()": "infinite",
						"minUSD()": "2517",
						"owner()": "2536",
						"withdraw()": "infinite"
					}
				},
				"methodIdentifiers": {
					"addressToAmountFund(address)": "8c04995f",
					"funders(uint256)": "dc0d3dff",
					"fundme()": "d1d9165d",
					"minUSD()": "dc992aa0",
					"owner()": "8da5cb5b",
					"withdraw()": "3ccfd60b"
				}
			},
			"storageLayout": {
				"storage": [
					{
						"astId": 56,
						"contract": "Fundme.sol:FundMe",
						"label": "minUSD",
						"offset": 0,
						"slot": "0",
						"type": "t_uint256"
					},
					{
						"astId": 59,
						"contract": "Fundme.sol:FundMe",
						"label": "funders",
						"offset": 0,
						"slot": "1",
						"type": "t_array(t_address)dyn_storage"
					},
					{
						"astId": 63,
						"contract": "Fundme.sol:FundMe",
						"label": "addressToAmountFund",
						"offset": 0,
						"slot": "2",
						"type": "t_mapping(t_address,t_uint256)"
					},
					{
						"astId": 65,
						"contract": "Fundme.sol:FundMe",
						"label": "owner",
						"offset": 0,
						"slot": "3",
						"type": "t_address"
					}
				],
				"types": {
					"t_address": {
						"encoding": "inplace",
						"label": "address",
						"numberOfBytes": "20"
					},
					"t_array(t_address)dyn_storage": {
						"base": "t_address",
						"encoding": "dynamic_array",
						"label": "address[]",
						"numberOfBytes": "32"
					},
					"t_mapping(t_address,t_uint256)": {
						"encoding": "mapping",
						"key": "t_address",
						"label": "mapping(address => uint256)",
						"numberOfBytes": "32",
						"value": "t_uint256"
					},
					"t_uint256": {
						"encoding": "inplace",
						"label": "uint256",
						"numberOfBytes": "32"
					}
				}
			},
			"userdoc": {
				"kind": "user",
				"methods": {},
				"version": 1
			}
		}
	}
}