{
	"Fundme.sol": {
		"FundMe": {
			"abi": [
				{
					"inputs": [],
					"stateMutability": "nonpayable",
					"type": "constructor"
				},
				{
					"inputs": [
						{
							"internalType": "address",
							"name": "",
							"type": "address"
						}
					],
					"name": "addressToAmountFund",
					"outputs": [
						{
							"internalType": "uint256",
							"name": "",
							"type": "uint256"
						}
					],
					"stateMutability": "view",
					"type": "function"
				},
				{
					"inputs": [
						{
							"internalType": "uint256",
							"name": "",
							"type": "uint256"
						}
					],
					"name": "funders",
					"outputs": [
						{
							"internalType": "address",
							"name": "",
							"type": "address"
						}
					],
					"stateMutability": "view",
					"type": "function"
				},
				{
					"inputs": [],
					"name": "fundme",
					"outputs": [],
					"stateMutability": "payable",
					"type": "function"
				},
				{
					"inputs": [],
					"name": "minUSD",
					"outputs": [
						{
							"internalType": "uint256",
							"name": "",
							"type": "uint256"
						}
					],
					"stateMutability": "view",
					"type": "function"
				},
				{
					"inputs": [],
					"name": "owner",
					"outputs": [
						{
							"internalType": "address",
							"name": "",
							"type": "address"
						}
					],
					"stateMutability": "view",
					"type": "function"
				},
				{
					"inputs": [],
					"name": "withdraw",
					"outputs": [],
					"stateMutability": "nonpayable",
					"type": "function"
				}
			],
			"devdoc": {
				"kind": "dev",
				"methods": {},
				"version": 1
			},
			"evm": {
				"assembly": "    /* \"Fundme.sol\":89:1104  contract FundMe{... */\n  mstore(0x40, 0x80)\n    /* \"Fundme.sol\":174:183  50 * 1e18 */\n  0x02b5e3af16b1880000\n    /* \"Fundme.sol\":150:183  uint256 public minUSD = 50 * 1e18 */\n  0x00\n  sstore\n    /* \"Fundme.sol\":308:356  constructor(){... */\n  callvalue\n  dup1\n  iszero\n  tag_1\n  jumpi\n  0x00\n  dup1\n  revert\ntag_1:\n  pop\n    /* \"Fundme.sol\":339:349  msg.sender */\n  caller\n    /* \"Fundme.sol\":331:336  owner */\n  0x03\n  0x00\n    /* \"Fundme.sol\":331:349  owner = msg.sender */\n  0x0100\n  exp\n  dup2\n  sload\n  dup2\n  0xffffffffffffffffffffffffffffffffffffffff\n  mul\n  not\n  and\n  swap1\n  dup4\n  0xffffffffffffffffffffffffffffffffffffffff\n  and\n  mul\n  or\n  swap1\n  sstore\n  pop\n    /* \"Fundme.sol\":89:1104  contract FundMe{... */\n  dataSize(sub_0)\n  dup1\n  dataOffset(sub_0)\n  0x00\n  codecopy\n  0x00\n  return\nstop\n\nsub_0: assembly {\n        /* \"Fundme.sol\":89:1104  contract FundMe{... */\n      mstore(0x40, 0x80)\n      jumpi(tag_1, lt(calldatasize, 0x04))\n      shr(0xe0, calldataload(0x00))\n      dup1\n      0x3ccfd60b\n      eq\n      tag_2\n      jumpi\n      dup1\n      0x8c04995f\n      eq\n      tag_3\n      jumpi\n      dup1\n      0x8da5cb5b\n      eq\n      tag_4\n      jumpi\n      dup1\n      0xd1d9165d\n      eq\n      tag_5\n      jumpi\n      dup1\n      0xdc0d3dff\n      eq\n      tag_6\n      jumpi\n      dup1\n      0xdc992aa0\n      eq\n      tag_7\n      jumpi\n    tag_1:\n      0x00\n      dup1\n      revert\n        /* \"Fundme.sol\":579:987  function withdraw() public onlyOwner {... */\n    tag_2:\n      callvalue\n      dup1\n      iszero\n      tag_8\n      jumpi\n      0x00\n      dup1\n      revert\n    tag_8:\n      pop\n      tag_9\n      tag_10\n      jump\t// in\n    tag_9:\n      stop\n        /* \"Fundme.sol\":221:275  mapping(address => uint256) public addressToAmountFund */\n    tag_3:\n      callvalue\n      dup1\n      iszero\n      tag_11\n      jumpi\n      0x00\n      dup1\n      revert\n    tag_11:\n      pop\n      tag_12\n      0x04\n      dup1\n      calldatasize\n      sub\n      dup2\n      add\n      swap1\n      tag_13\n      swap2\n      swap1\n      tag_14\n      jump\t// in\n    tag_13:\n      tag_15\n      jump\t// in\n    tag_12:\n      mload(0x40)\n      tag_16\n      swap2\n      swap1\n      tag_17\n      jump\t// in\n    tag_16:\n      mload(0x40)\n      dup1\n      swap2\n      sub\n      swap1\n      return\n        /* \"Fundme.sol\":282:302  address public owner */\n    tag_4:\n      callvalue\n      dup1\n      iszero\n      tag_18\n      jumpi\n      0x00\n      dup1\n      revert\n    tag_18:\n      pop\n      tag_19\n      tag_20\n      jump\t// in\n    tag_19:\n      mload(0x40)\n      tag_21\n      swap2\n      swap1\n      tag_22\n      jump\t// in\n    tag_21:\n      mload(0x40)\n      dup1\n      swap2\n      sub\n      swap1\n      return\n        /* \"Fundme.sol\":362:573  function fundme() public payable {... */\n    tag_5:\n      tag_23\n      tag_24\n      jump\t// in\n    tag_23:\n      stop\n        /* \"Fundme.sol\":190:214  address[] public funders */\n    tag_6:\n      callvalue\n      dup1\n      iszero\n      tag_25\n      jumpi\n      0x00\n      dup1\n      revert\n    tag_25:\n      pop\n      tag_26\n      0x04\n      dup1\n      calldatasize\n      sub\n      dup2\n      add\n      swap1\n      tag_27\n      swap2\n      swap1\n      tag_28\n      jump\t// in\n    tag_27:\n      tag_29\n      jump\t// in\n    tag_26:\n      mload(0x40)\n      tag_30\n      swap2\n      swap1\n      tag_22\n      jump\t// in\n    tag_30:\n      mload(0x40)\n      dup1\n      swap2\n      sub\n      swap1\n      return\n        /* \"Fundme.sol\":150:183  uint256 public minUSD = 50 * 1e18 */\n    tag_7:\n      callvalue\n      dup1\n      iszero\n      tag_31\n      jumpi\n      0x00\n      dup1\n      revert\n    tag_31:\n      pop\n      tag_32\n      tag_33\n      jump\t// in\n    tag_32:\n      mload(0x40)\n      tag_34\n      swap2\n      swap1\n      tag_17\n      jump\t// in\n    tag_34:\n      mload(0x40)\n      dup1\n      swap2\n      sub\n      swap1\n      return\n        /* \"Fundme.sol\":579:987  function withdraw() public onlyOwner {... */\n    tag_10:\n        /* \"Fundme.sol\":1043:1048  owner */\n      0x03\n      0x00\n      swap1\n      sload\n      swap1\n      0x0100\n      exp\n      swap1\n      div\n      0xffffffffffffffffffffffffffffffffffffffff\n      and\n        /* \"Fundme.sol\":1029:1048  msg.sender == owner */\n      0xffffffffffffffffffffffffffffffffffffffff\n      and\n        /* \"Fundme.sol\":1029:1039  msg.sender */\n      caller\n        /* \"Fundme.sol\":1029:1048  msg.sender == owner */\n      0xffffffffffffffffffffffffffffffffffffffff\n      and\n      eq\n        /* \"Fundme.sol\":1021:1079  require(msg.sender == owner,\"The sender is not the owner\") */\n      tag_36\n      jumpi\n      mload(0x40)\n      0x08c379a000000000000000000000000000000000000000000000000000000000\n      dup2\n      mstore\n      0x04\n      add\n      tag_37\n      swap1\n      tag_38\n      jump\t// in\n    tag_37:\n      mload(0x40)\n      dup1\n      swap2\n      sub\n      swap1\n      revert\n    tag_36:\n        /* \"Fundme.sol\":631:650  uint256 funderIndex */\n      0x00\n        /* \"Fundme.sol\":626:807  for (uint256 funderIndex = 0; funderIndex < funders.length; funderIndex++){... */\n    tag_40:\n        /* \"Fundme.sol\":670:677  funders */\n      0x01\n        /* \"Fundme.sol\":670:684  funders.length */\n      dup1\n      sload\n      swap1\n      pop\n        /* \"Fundme.sol\":656:667  funderIndex */\n      dup2\n        /* \"Fundme.sol\":656:684  funderIndex < funders.length */\n      lt\n        /* \"Fundme.sol\":626:807  for (uint256 funderIndex = 0; funderIndex < funders.length; funderIndex++){... */\n      iszero\n      tag_41\n      jumpi\n        /* \"Fundme.sol\":714:728  address funder */\n      0x00\n        /* \"Fundme.sol\":731:738  funders */\n      0x01\n        /* \"Fundme.sol\":739:750  funderIndex */\n      dup3\n        /* \"Fundme.sol\":731:751  funders[funderIndex] */\n      dup2\n      sload\n      dup2\n      lt\n      tag_43\n      jumpi\n      tag_44\n      tag_45\n      jump\t// in\n    tag_44:\n    tag_43:\n      swap1\n      0x00\n      mstore\n      keccak256(0x00, 0x20)\n      add\n      0x00\n      swap1\n      sload\n      swap1\n      0x0100\n      exp\n      swap1\n      div\n      0xffffffffffffffffffffffffffffffffffffffff\n      and\n        /* \"Fundme.sol\":714:751  address funder = funders[funderIndex] */\n      swap1\n      pop\n        /* \"Fundme.sol\":795:796  0 */\n      0x00\n        /* \"Fundme.sol\":765:784  addressToAmountFund */\n      0x02\n        /* \"Fundme.sol\":765:792  addressToAmountFund[funder] */\n      0x00\n        /* \"Fundme.sol\":785:791  funder */\n      dup4\n        /* \"Fundme.sol\":765:792  addressToAmountFund[funder] */\n      0xffffffffffffffffffffffffffffffffffffffff\n      and\n      0xffffffffffffffffffffffffffffffffffffffff\n      and\n      dup2\n      mstore\n      0x20\n      add\n      swap1\n      dup2\n      mstore\n      0x20\n      add\n      0x00\n      keccak256\n        /* \"Fundme.sol\":765:796  addressToAmountFund[funder] = 0 */\n      dup2\n      swap1\n      sstore\n      pop\n        /* \"Fundme.sol\":700:807  {... */\n      pop\n        /* \"Fundme.sol\":686:699  funderIndex++ */\n      dup1\n      dup1\n      tag_47\n      swap1\n      tag_48\n      jump\t// in\n    tag_47:\n      swap2\n      pop\n      pop\n        /* \"Fundme.sol\":626:807  for (uint256 funderIndex = 0; funderIndex < funders.length; funderIndex++){... */\n      jump(tag_40)\n    tag_41:\n      pop\n        /* \"Fundme.sol\":841:842  0 */\n      0x00\n        /* \"Fundme.sol\":827:843  new address[](0) */\n      0xffffffffffffffff\n      dup2\n      gt\n      iszero\n      tag_49\n      jumpi\n      tag_50\n      tag_51\n      jump\t// in\n    tag_50:\n    tag_49:\n      mload(0x40)\n      swap1\n      dup1\n      dup3\n      mstore\n      dup1\n      0x20\n      mul\n      0x20\n      add\n      dup3\n      add\n      0x40\n      mstore\n      dup1\n      iszero\n      tag_52\n      jumpi\n      dup2\n      0x20\n      add\n      0x20\n      dup3\n      mul\n      dup1\n      calldatasize\n      dup4\n      calldatacopy\n      dup1\n      dup3\n      add\n      swap2\n      pop\n      pop\n      swap1\n      pop\n    tag_52:\n      pop\n        /* \"Fundme.sol\":817:824  funders */\n      0x01\n        /* \"Fundme.sol\":817:843  funders = new address[](0) */\n      swap1\n      dup1\n      mload\n      swap1\n      0x20\n      add\n      swap1\n      tag_53\n      swap3\n      swap2\n      swap1\n      tag_54\n      jump\t// in\n    tag_53:\n      pop\n        /* \"Fundme.sol\":854:870  bool callSuccess */\n      0x00\n        /* \"Fundme.sol\":884:894  msg.sender */\n      caller\n        /* \"Fundme.sol\":876:900  payable(msg.sender).call */\n      0xffffffffffffffffffffffffffffffffffffffff\n      and\n        /* \"Fundme.sol\":908:929  address(this).balance */\n      selfbalance\n        /* \"Fundme.sol\":876:934  payable(msg.sender).call{value: address(this).balance}(\"\") */\n      mload(0x40)\n      tag_55\n      swap1\n      tag_56\n      jump\t// in\n    tag_55:\n      0x00\n      mload(0x40)\n      dup1\n      dup4\n      sub\n      dup2\n      dup6\n      dup8\n      gas\n      call\n      swap3\n      pop\n      pop\n      pop\n      returndatasize\n      dup1\n      0x00\n      dup2\n      eq\n      tag_59\n      jumpi\n      mload(0x40)\n      swap2\n      pop\n      and(add(returndatasize, 0x3f), not(0x1f))\n      dup3\n      add\n      0x40\n      mstore\n      returndatasize\n      dup3\n      mstore\n      returndatasize\n      0x00\n      0x20\n      dup5\n      add\n      returndatacopy\n      jump(tag_58)\n    tag_59:\n      0x60\n      swap2\n      pop\n    tag_58:\n      pop\n        /* \"Fundme.sol\":853:934  (bool callSuccess, ) = payable(msg.sender).call{value: address(this).balance}(\"\") */\n      pop\n      swap1\n      pop\n        /* \"Fundme.sol\":953:964  callSuccess */\n      dup1\n        /* \"Fundme.sol\":945:980  require(callSuccess, \"Call failed\") */\n      tag_60\n      jumpi\n      mload(0x40)\n      0x08c379a000000000000000000000000000000000000000000000000000000000\n      dup2\n      mstore\n      0x04\n      add\n      tag_61\n      swap1\n      tag_62\n      jump\t// in\n    tag_61:\n      mload(0x40)\n      dup1\n      swap2\n      sub\n      swap1\n      revert\n    tag_60:\n        /* \"Fundme.sol\":616:987  {... */\n      pop\n        /* \"Fundme.sol\":579:987  function withdraw() public onlyOwner {... */\n      jump\t// out\n        /* \"Fundme.sol\":221:275  mapping(address => uint256) public addressToAmountFund */\n    tag_15:\n      mstore(0x20, 0x02)\n      dup1\n      0x00\n      mstore\n      keccak256(0x00, 0x40)\n      0x00\n      swap2\n      pop\n      swap1\n      pop\n      sload\n      dup2\n      jump\t// out\n        /* \"Fundme.sol\":282:302  address public owner */\n    tag_20:\n      0x03\n      0x00\n      swap1\n      sload\n      swap1\n      0x0100\n      exp\n      swap1\n      div\n      0xffffffffffffffffffffffffffffffffffffffff\n      and\n      dup2\n      jump\t// out\n        /* \"Fundme.sol\":362:573  function fundme() public payable {... */\n    tag_24:\n        /* \"Fundme.sol\":447:453  minUSD */\n      sload(0x00)\n        /* \"Fundme.sol\":414:443  msg.value.getConvertionRate() */\n      tag_64\n        /* \"Fundme.sol\":414:423  msg.value */\n      callvalue\n        /* \"Fundme.sol\":414:441  msg.value.getConvertionRate */\n      tag_65\n        /* \"Fundme.sol\":414:443  msg.value.getConvertionRate() */\n      jump\t// in\n    tag_64:\n        /* \"Fundme.sol\":414:453  msg.value.getConvertionRate() >= minUSD */\n      lt\n      iszero\n        /* \"Fundme.sol\":406:478  require(msg.value.getConvertionRate() >= minUSD, \"Send more than 1 eth\") */\n      tag_66\n      jumpi\n      mload(0x40)\n      0x08c379a000000000000000000000000000000000000000000000000000000000\n      dup2\n      mstore\n      0x04\n      add\n      tag_67\n      swap1\n      tag_68\n      jump\t// in\n    tag_67:\n      mload(0x40)\n      dup1\n      swap2\n      sub\n      swap1\n      revert\n    tag_66:\n        /* \"Fundme.sol\":488:495  funders */\n      0x01\n        /* \"Fundme.sol\":501:511  msg.sender */\n      caller\n        /* \"Fundme.sol\":488:512  funders.push(msg.sender) */\n      swap1\n      dup1\n      0x01\n      dup2\n      sload\n      add\n      dup1\n      dup3\n      sstore\n      dup1\n      swap2\n      pop\n      pop\n      0x01\n      swap1\n      sub\n      swap1\n      0x00\n      mstore\n      keccak256(0x00, 0x20)\n      add\n      0x00\n      swap1\n      swap2\n      swap1\n      swap2\n      swap1\n      swap2\n      0x0100\n      exp\n      dup2\n      sload\n      dup2\n      0xffffffffffffffffffffffffffffffffffffffff\n      mul\n      not\n      and\n      swap1\n      dup4\n      0xffffffffffffffffffffffffffffffffffffffff\n      and\n      mul\n      or\n      swap1\n      sstore\n      pop\n        /* \"Fundme.sol\":557:566  msg.value */\n      callvalue\n        /* \"Fundme.sol\":522:541  addressToAmountFund */\n      0x02\n        /* \"Fundme.sol\":522:553  addressToAmountFund[msg.sender] */\n      0x00\n        /* \"Fundme.sol\":542:552  msg.sender */\n      caller\n        /* \"Fundme.sol\":522:553  addressToAmountFund[msg.sender] */\n      0xffffffffffffffffffffffffffffffffffffffff\n      and\n      0xffffffffffffffffffffffffffffffffffffffff\n      and\n      dup2\n      mstore\n      0x20\n      add\n      swap1\n      dup2\n      mstore\n      0x20\n      add\n      0x00\n      keccak256\n      0x00\n        /* \"Fundme.sol\":522:566  addressToAmountFund[msg.sender] += msg.value */\n      dup3\n      dup3\n      sload\n      tag_70\n      swap2\n      swap1\n      tag_71\n      jump\t// in\n    tag_70:\n      swap3\n      pop\n      pop\n      dup2\n      swap1\n      sstore\n      pop\n        /* \"Fundme.sol\":362:573  function fundme() public payable {... */\n      jump\t// out\n        /* \"Fundme.sol\":190:214  address[] public funders */\n    tag_29:\n      0x01\n      dup2\n      dup2\n      sload\n      dup2\n      lt\n      tag_72\n      jumpi\n      0x00\n      dup1\n      revert\n    tag_72:\n      swap1\n      0x00\n      mstore\n      keccak256(0x00, 0x20)\n      add\n      0x00\n      swap2\n      pop\n      sload\n      swap1\n      0x0100\n      exp\n      swap1\n      div\n      0xffffffffffffffffffffffffffffffffffffffff\n      and\n      dup2\n      jump\t// out\n        /* \"Fundme.sol\":150:183  uint256 public minUSD = 50 * 1e18 */\n    tag_33:\n      sload(0x00)\n      dup2\n      jump\t// out\n        /* \"priceConverter.sol\":501:722  function getConvertionRate(uint256 ethAmmount) internal view returns(uint256){... */\n    tag_65:\n        /* \"priceConverter.sol\":570:577  uint256 */\n      0x00\n        /* \"priceConverter.sol\":588:604  uint256 ethPrice */\n      dup1\n        /* \"priceConverter.sol\":607:617  getPrice() */\n      tag_75\n        /* \"priceConverter.sol\":607:615  getPrice */\n      tag_76\n        /* \"priceConverter.sol\":607:617  getPrice() */\n      jump\t// in\n    tag_75:\n        /* \"priceConverter.sol\":588:617  uint256 ethPrice = getPrice() */\n      swap1\n      pop\n        /* \"priceConverter.sol\":628:650  uint256 ethAmountInUSD */\n      0x00\n        /* \"priceConverter.sol\":679:683  1e18 */\n      0x0de0b6b3a7640000\n        /* \"priceConverter.sol\":665:675  ethAmmount */\n      dup5\n        /* \"priceConverter.sol\":654:662  ethPrice */\n      dup4\n        /* \"priceConverter.sol\":654:675  ethPrice * ethAmmount */\n      tag_77\n      swap2\n      swap1\n      tag_78\n      jump\t// in\n    tag_77:\n        /* \"priceConverter.sol\":653:683  (ethPrice * ethAmmount) / 1e18 */\n      tag_79\n      swap2\n      swap1\n      tag_80\n      jump\t// in\n    tag_79:\n        /* \"priceConverter.sol\":628:683  uint256 ethAmountInUSD = (ethPrice * ethAmmount) / 1e18 */\n      swap1\n      pop\n        /* \"priceConverter.sol\":700:714  ethAmountInUSD */\n      dup1\n        /* \"priceConverter.sol\":693:714  return ethAmountInUSD */\n      swap3\n      pop\n      pop\n      pop\n        /* \"priceConverter.sol\":501:722  function getConvertionRate(uint256 ethAmmount) internal view returns(uint256){... */\n      swap2\n      swap1\n      pop\n      jump\t// out\n        /* \"priceConverter.sol\":223:495  function getPrice() internal view returns(uint256){... */\n    tag_76:\n        /* \"priceConverter.sol\":265:272  uint256 */\n      0x00\n        /* \"priceConverter.sol\":283:314  AggregatorV3Interface priceFeed */\n      dup1\n        /* \"priceConverter.sol\":338:380  0x694AA1769357215DE4FAC081bf1f309aDC325306 */\n      0x694aa1769357215de4fac081bf1f309adc325306\n        /* \"priceConverter.sol\":283:381  AggregatorV3Interface priceFeed =AggregatorV3Interface(0x694AA1769357215DE4FAC081bf1f309aDC325306) */\n      swap1\n      pop\n        /* \"priceConverter.sol\":394:407  int256 answer */\n      0x00\n        /* \"priceConverter.sol\":412:421  priceFeed */\n      dup2\n        /* \"priceConverter.sol\":412:437  priceFeed.latestRoundData */\n      0xffffffffffffffffffffffffffffffffffffffff\n      and\n      0xfeaf968c\n        /* \"priceConverter.sol\":412:439  priceFeed.latestRoundData() */\n      mload(0x40)\n      dup2\n      0xffffffff\n      and\n      0xe0\n      shl\n      dup2\n      mstore\n      0x04\n      add\n      0xa0\n      mload(0x40)\n      dup1\n      dup4\n      sub\n      dup2\n      dup7\n      gas\n      staticcall\n      iszero\n      dup1\n      iszero\n      tag_83\n      jumpi\n      returndatasize\n      0x00\n      dup1\n      returndatacopy\n      revert(0x00, returndatasize)\n    tag_83:\n      pop\n      pop\n      pop\n      pop\n      mload(0x40)\n      returndatasize\n      not(0x1f)\n      0x1f\n      dup3\n      add\n      and\n      dup3\n      add\n      dup1\n      0x40\n      mstore\n      pop\n      dup2\n      add\n      swap1\n      tag_84\n      swap2\n      swap1\n      tag_85\n      jump\t// in\n    tag_84:\n        /* \"priceConverter.sol\":392:439  (,int256 answer,,,)=priceFeed.latestRoundData() */\n      pop\n      pop\n      pop\n      swap2\n      pop\n      pop\n        /* \"priceConverter.sol\":474:478  1e10 */\n      0x02540be400\n        /* \"priceConverter.sol\":465:471  answer */\n      dup2\n        /* \"priceConverter.sol\":465:478  answer * 1e10 */\n      tag_86\n      swap2\n      swap1\n      tag_87\n      jump\t// in\n    tag_86:\n        /* \"priceConverter.sol\":450:479  return uint256(answer * 1e10) */\n      swap3\n      pop\n      pop\n      pop\n        /* \"priceConverter.sol\":223:495  function getPrice() internal view returns(uint256){... */\n      swap1\n      jump\t// out\n    tag_54:\n      dup3\n      dup1\n      sload\n      dup3\n      dup3\n      sstore\n      swap1\n      0x00\n      mstore\n      keccak256(0x00, 0x20)\n      swap1\n      dup2\n      add\n      swap3\n      dup3\n      iszero\n      tag_88\n      jumpi\n      swap2\n      0x20\n      mul\n      dup3\n      add\n    tag_89:\n      dup3\n      dup2\n      gt\n      iszero\n      tag_90\n      jumpi\n      dup3\n      mload\n      dup3\n      exp(0x0100, 0x00)\n      dup2\n      sload\n      dup2\n      0xffffffffffffffffffffffffffffffffffffffff\n      mul\n      not\n      and\n      swap1\n      dup4\n      0xffffffffffffffffffffffffffffffffffffffff\n      and\n      mul\n      or\n      swap1\n      sstore\n      pop\n      swap2\n      0x20\n      add\n      swap2\n      swap1\n      0x01\n      add\n      swap1\n      jump(tag_89)\n    tag_90:\n    tag_88:\n      pop\n      swap1\n      pop\n      tag_91\n      swap2\n      swap1\n      tag_92\n      jump\t// in\n    tag_91:\n      pop\n      swap1\n      jump\t// out\n    tag_92:\n    tag_93:\n      dup1\n      dup3\n      gt\n      iszero\n      tag_94\n      jumpi\n      0x00\n      dup2\n      0x00\n      swap1\n      sstore\n      pop\n      0x01\n      add\n      jump(tag_93)\n    tag_94:\n      pop\n      swap1\n      jump\t// out\n        /* \"#utility.yul\":88:205   */\n    tag_96:\n        /* \"#utility.yul\":197:198   */\n      0x00\n        /* \"#utility.yul\":194:195   */\n      dup1\n        /* \"#utility.yul\":187:199   */\n      revert\n        /* \"#utility.yul\":334:460   */\n    tag_98:\n        /* \"#utility.yul\":371:378   */\n      0x00\n        /* \"#utility.yul\":411:453   */\n      0xffffffffffffffffffffffffffffffffffffffff\n        /* \"#utility.yul\":404:409   */\n      dup3\n        /* \"#utility.yul\":400:454   */\n      and\n        /* \"#utility.yul\":389:454   */\n      swap1\n      pop\n        /* \"#utility.yul\":334:460   */\n      swap2\n      swap1\n      pop\n      jump\t// out\n        /* \"#utility.yul\":466:562   */\n    tag_99:\n        /* \"#utility.yul\":503:510   */\n      0x00\n        /* \"#utility.yul\":532:556   */\n      tag_132\n        /* \"#utility.yul\":550:555   */\n      dup3\n        /* \"#utility.yul\":532:556   */\n      tag_98\n      jump\t// in\n    tag_132:\n        /* \"#utility.yul\":521:556   */\n      swap1\n      pop\n        /* \"#utility.yul\":466:562   */\n      swap2\n      swap1\n      pop\n      jump\t// out\n        /* \"#utility.yul\":568:690   */\n    tag_100:\n        /* \"#utility.yul\":641:665   */\n      tag_134\n        /* \"#utility.yul\":659:664   */\n      dup2\n        /* \"#utility.yul\":641:665   */\n      tag_99\n      jump\t// in\n    tag_134:\n        /* \"#utility.yul\":634:639   */\n      dup2\n        /* \"#utility.yul\":631:666   */\n      eq\n        /* \"#utility.yul\":621:684   */\n      tag_135\n      jumpi\n        /* \"#utility.yul\":680:681   */\n      0x00\n        /* \"#utility.yul\":677:678   */\n      dup1\n        /* \"#utility.yul\":670:682   */\n      revert\n        /* \"#utility.yul\":621:684   */\n    tag_135:\n        /* \"#utility.yul\":568:690   */\n      pop\n      jump\t// out\n        /* \"#utility.yul\":696:835   */\n    tag_101:\n        /* \"#utility.yul\":742:747   */\n      0x00\n        /* \"#utility.yul\":780:786   */\n      dup2\n        /* \"#utility.yul\":767:787   */\n      calldataload\n        /* \"#utility.yul\":758:787   */\n      swap1\n      pop\n        /* \"#utility.yul\":796:829   */\n      tag_137\n        /* \"#utility.yul\":823:828   */\n      dup2\n        /* \"#utility.yul\":796:829   */\n      tag_100\n      jump\t// in\n    tag_137:\n        /* \"#utility.yul\":696:835   */\n      swap3\n      swap2\n      pop\n      pop\n      jump\t// out\n        /* \"#utility.yul\":841:1170   */\n    tag_14:\n        /* \"#utility.yul\":900:906   */\n      0x00\n        /* \"#utility.yul\":949:951   */\n      0x20\n        /* \"#utility.yul\":937:946   */\n      dup3\n        /* \"#utility.yul\":928:935   */\n      dup5\n        /* \"#utility.yul\":924:947   */\n      sub\n        /* \"#utility.yul\":920:952   */\n      slt\n        /* \"#utility.yul\":917:1036   */\n      iszero\n      tag_139\n      jumpi\n        /* \"#utility.yul\":955:1034   */\n      tag_140\n      tag_96\n      jump\t// in\n    tag_140:\n        /* \"#utility.yul\":917:1036   */\n    tag_139:\n        /* \"#utility.yul\":1075:1076   */\n      0x00\n        /* \"#utility.yul\":1100:1153   */\n      tag_141\n        /* \"#utility.yul\":1145:1152   */\n      dup5\n        /* \"#utility.yul\":1136:1142   */\n      dup3\n        /* \"#utility.yul\":1125:1134   */\n      dup6\n        /* \"#utility.yul\":1121:1143   */\n      add\n        /* \"#utility.yul\":1100:1153   */\n      tag_101\n      jump\t// in\n    tag_141:\n        /* \"#utility.yul\":1090:1153   */\n      swap2\n      pop\n        /* \"#utility.yul\":1046:1163   */\n      pop\n        /* \"#utility.yul\":841:1170   */\n      swap3\n      swap2\n      pop\n      pop\n      jump\t// out\n        /* \"#utility.yul\":1176:1253   */\n    tag_102:\n        /* \"#utility.yul\":1213:1220   */\n      0x00\n        /* \"#utility.yul\":1242:1247   */\n      dup2\n        /* \"#utility.yul\":1231:1247   */\n      swap1\n      pop\n        /* \"#utility.yul\":1176:1253   */\n      swap2\n      swap1\n      pop\n      jump\t// out\n        /* \"#utility.yul\":1259:1377   */\n    tag_103:\n        /* \"#utility.yul\":1346:1370   */\n      tag_144\n        /* \"#utility.yul\":1364:1369   */\n      dup2\n        /* \"#utility.yul\":1346:1370   */\n      tag_102\n      jump\t// in\n    tag_144:\n        /* \"#utility.yul\":1341:1344   */\n      dup3\n        /* \"#utility.yul\":1334:1371   */\n      mstore\n        /* \"#utility.yul\":1259:1377   */\n      pop\n      pop\n      jump\t// out\n        /* \"#utility.yul\":1383:1605   */\n    tag_17:\n        /* \"#utility.yul\":1476:1480   */\n      0x00\n        /* \"#utility.yul\":1514:1516   */\n      0x20\n        /* \"#utility.yul\":1503:1512   */\n      dup3\n        /* \"#utility.yul\":1499:1517   */\n      add\n        /* \"#utility.yul\":1491:1517   */\n      swap1\n      pop\n        /* \"#utility.yul\":1527:1598   */\n      tag_146\n        /* \"#utility.yul\":1595:1596   */\n      0x00\n        /* \"#utility.yul\":1584:1593   */\n      dup4\n        /* \"#utility.yul\":1580:1597   */\n      add\n        /* \"#utility.yul\":1571:1577   */\n      dup5\n        /* \"#utility.yul\":1527:1598   */\n      tag_103\n      jump\t// in\n    tag_146:\n        /* \"#utility.yul\":1383:1605   */\n      swap3\n      swap2\n      pop\n      pop\n      jump\t// out\n        /* \"#utility.yul\":1611:1729   */\n    tag_104:\n        /* \"#utility.yul\":1698:1722   */\n      tag_148\n        /* \"#utility.yul\":1716:1721   */\n      dup2\n        /* \"#utility.yul\":1698:1722   */\n      tag_99\n      jump\t// in\n    tag_148:\n        /* \"#utility.yul\":1693:1696   */\n      dup3\n        /* \"#utility.yul\":1686:1723   */\n      mstore\n        /* \"#utility.yul\":1611:1729   */\n      pop\n      pop\n      jump\t// out\n        /* \"#utility.yul\":1735:1957   */\n    tag_22:\n        /* \"#utility.yul\":1828:1832   */\n      0x00\n        /* \"#utility.yul\":1866:1868   */\n      0x20\n        /* \"#utility.yul\":1855:1864   */\n      dup3\n        /* \"#utility.yul\":1851:1869   */\n      add\n        /* \"#utility.yul\":1843:1869   */\n      swap1\n      pop\n        /* \"#utility.yul\":1879:1950   */\n      tag_150\n        /* \"#utility.yul\":1947:1948   */\n      0x00\n        /* \"#utility.yul\":1936:1945   */\n      dup4\n        /* \"#utility.yul\":1932:1949   */\n      add\n        /* \"#utility.yul\":1923:1929   */\n      dup5\n        /* \"#utility.yul\":1879:1950   */\n      tag_104\n      jump\t// in\n    tag_150:\n        /* \"#utility.yul\":1735:1957   */\n      swap3\n      swap2\n      pop\n      pop\n      jump\t// out\n        /* \"#utility.yul\":1963:2085   */\n    tag_105:\n        /* \"#utility.yul\":2036:2060   */\n      tag_152\n        /* \"#utility.yul\":2054:2059   */\n      dup2\n        /* \"#utility.yul\":2036:2060   */\n      tag_102\n      jump\t// in\n    tag_152:\n        /* \"#utility.yul\":2029:2034   */\n      dup2\n        /* \"#utility.yul\":2026:2061   */\n      eq\n        /* \"#utility.yul\":2016:2079   */\n      tag_153\n      jumpi\n        /* \"#utility.yul\":2075:2076   */\n      0x00\n        /* \"#utility.yul\":2072:2073   */\n      dup1\n        /* \"#utility.yul\":2065:2077   */\n      revert\n        /* \"#utility.yul\":2016:2079   */\n    tag_153:\n        /* \"#utility.yul\":1963:2085   */\n      pop\n      jump\t// out\n        /* \"#utility.yul\":2091:2230   */\n    tag_106:\n        /* \"#utility.yul\":2137:2142   */\n      0x00\n        /* \"#utility.yul\":2175:2181   */\n      dup2\n        /* \"#utility.yul\":2162:2182   */\n      calldataload\n        /* \"#utility.yul\":2153:2182   */\n      swap1\n      pop\n        /* \"#utility.yul\":2191:2224   */\n      tag_155\n        /* \"#utility.yul\":2218:2223   */\n      dup2\n        /* \"#utility.yul\":2191:2224   */\n      tag_105\n      jump\t// in\n    tag_155:\n        /* \"#utility.yul\":2091:2230   */\n      swap3\n      swap2\n      pop\n      pop\n      jump\t// out\n        /* \"#utility.yul\":2236:2565   */\n    tag_28:\n        /* \"#utility.yul\":2295:2301   */\n      0x00\n        /* \"#utility.yul\":2344:2346   */\n      0x20\n        /* \"#utility.yul\":2332:2341   */\n      dup3\n        /* \"#utility.yul\":2323:2330   */\n      dup5\n        /* \"#utility.yul\":2319:2342   */\n      sub\n        /* \"#utility.yul\":2315:2347   */\n      slt\n        /* \"#utility.yul\":2312:2431   */\n      iszero\n      tag_157\n      jumpi\n        /* \"#utility.yul\":2350:2429   */\n      tag_158\n      tag_96\n      jump\t// in\n    tag_158:\n        /* \"#utility.yul\":2312:2431   */\n    tag_157:\n        /* \"#utility.yul\":2470:2471   */\n      0x00\n        /* \"#utility.yul\":2495:2548   */\n      tag_159\n        /* \"#utility.yul\":2540:2547   */\n      dup5\n        /* \"#utility.yul\":2531:2537   */\n      dup3\n        /* \"#utility.yul\":2520:2529   */\n      dup6\n        /* \"#utility.yul\":2516:2538   */\n      add\n        /* \"#utility.yul\":2495:2548   */\n      tag_106\n      jump\t// in\n    tag_159:\n        /* \"#utility.yul\":2485:2548   */\n      swap2\n      pop\n        /* \"#utility.yul\":2441:2558   */\n      pop\n        /* \"#utility.yul\":2236:2565   */\n      swap3\n      swap2\n      pop\n      pop\n      jump\t// out\n        /* \"#utility.yul\":2571:2740   */\n    tag_107:\n        /* \"#utility.yul\":2655:2666   */\n      0x00\n        /* \"#utility.yul\":2689:2695   */\n      dup3\n        /* \"#utility.yul\":2684:2687   */\n      dup3\n        /* \"#utility.yul\":2677:2696   */\n      mstore\n        /* \"#utility.yul\":2729:2733   */\n      0x20\n        /* \"#utility.yul\":2724:2727   */\n      dup3\n        /* \"#utility.yul\":2720:2734   */\n      add\n        /* \"#utility.yul\":2705:2734   */\n      swap1\n      pop\n        /* \"#utility.yul\":2571:2740   */\n      swap3\n      swap2\n      pop\n      pop\n      jump\t// out\n        /* \"#utility.yul\":2746:2923   */\n    tag_108:\n        /* \"#utility.yul\":2886:2915   */\n      0x5468652073656e646572206973206e6f7420746865206f776e65720000000000\n        /* \"#utility.yul\":2882:2883   */\n      0x00\n        /* \"#utility.yul\":2874:2880   */\n      dup3\n        /* \"#utility.yul\":2870:2884   */\n      add\n        /* \"#utility.yul\":2863:2916   */\n      mstore\n        /* \"#utility.yul\":2746:2923   */\n      pop\n      jump\t// out\n        /* \"#utility.yul\":2929:3295   */\n    tag_109:\n        /* \"#utility.yul\":3071:3074   */\n      0x00\n        /* \"#utility.yul\":3092:3159   */\n      tag_163\n        /* \"#utility.yul\":3156:3158   */\n      0x1b\n        /* \"#utility.yul\":3151:3154   */\n      dup4\n        /* \"#utility.yul\":3092:3159   */\n      tag_107\n      jump\t// in\n    tag_163:\n        /* \"#utility.yul\":3085:3159   */\n      swap2\n      pop\n        /* \"#utility.yul\":3168:3261   */\n      tag_164\n        /* \"#utility.yul\":3257:3260   */\n      dup3\n        /* \"#utility.yul\":3168:3261   */\n      tag_108\n      jump\t// in\n    tag_164:\n        /* \"#utility.yul\":3286:3288   */\n      0x20\n        /* \"#utility.yul\":3281:3284   */\n      dup3\n        /* \"#utility.yul\":3277:3289   */\n      add\n        /* \"#utility.yul\":3270:3289   */\n      swap1\n      pop\n        /* \"#utility.yul\":2929:3295   */\n      swap2\n      swap1\n      pop\n      jump\t// out\n        /* \"#utility.yul\":3301:3720   */\n    tag_38:\n        /* \"#utility.yul\":3467:3471   */\n      0x00\n        /* \"#utility.yul\":3505:3507   */\n      0x20\n        /* \"#utility.yul\":3494:3503   */\n      dup3\n        /* \"#utility.yul\":3490:3508   */\n      add\n        /* \"#utility.yul\":3482:3508   */\n      swap1\n      pop\n        /* \"#utility.yul\":3554:3563   */\n      dup2\n        /* \"#utility.yul\":3548:3552   */\n      dup2\n        /* \"#utility.yul\":3544:3564   */\n      sub\n        /* \"#utility.yul\":3540:3541   */\n      0x00\n        /* \"#utility.yul\":3529:3538   */\n      dup4\n        /* \"#utility.yul\":3525:3542   */\n      add\n        /* \"#utility.yul\":3518:3565   */\n      mstore\n        /* \"#utility.yul\":3582:3713   */\n      tag_166\n        /* \"#utility.yul\":3708:3712   */\n      dup2\n        /* \"#utility.yul\":3582:3713   */\n      tag_109\n      jump\t// in\n    tag_166:\n        /* \"#utility.yul\":3574:3713   */\n      swap1\n      pop\n        /* \"#utility.yul\":3301:3720   */\n      swap2\n      swap1\n      pop\n      jump\t// out\n        /* \"#utility.yul\":3726:3906   */\n    tag_45:\n        /* \"#utility.yul\":3774:3851   */\n      0x4e487b7100000000000000000000000000000000000000000000000000000000\n        /* \"#utility.yul\":3771:3772   */\n      0x00\n        /* \"#utility.yul\":3764:3852   */\n      mstore\n        /* \"#utility.yul\":3871:3875   */\n      0x32\n        /* \"#utility.yul\":3868:3869   */\n      0x04\n        /* \"#utility.yul\":3861:3876   */\n      mstore\n        /* \"#utility.yul\":3895:3899   */\n      0x24\n        /* \"#utility.yul\":3892:3893   */\n      0x00\n        /* \"#utility.yul\":3885:3900   */\n      revert\n        /* \"#utility.yul\":3912:4092   */\n    tag_110:\n        /* \"#utility.yul\":3960:4037   */\n      0x4e487b7100000000000000000000000000000000000000000000000000000000\n        /* \"#utility.yul\":3957:3958   */\n      0x00\n        /* \"#utility.yul\":3950:4038   */\n      mstore\n        /* \"#utility.yul\":4057:4061   */\n      0x11\n        /* \"#utility.yul\":4054:4055   */\n      0x04\n        /* \"#utility.yul\":4047:4062   */\n      mstore\n        /* \"#utility.yul\":4081:4085   */\n      0x24\n        /* \"#utility.yul\":4078:4079   */\n      0x00\n        /* \"#utility.yul\":4071:4086   */\n      revert\n        /* \"#utility.yul\":4098:4331   */\n    tag_48:\n        /* \"#utility.yul\":4137:4140   */\n      0x00\n        /* \"#utility.yul\":4160:4184   */\n      tag_170\n        /* \"#utility.yul\":4178:4183   */\n      dup3\n        /* \"#utility.yul\":4160:4184   */\n      tag_102\n      jump\t// in\n    tag_170:\n        /* \"#utility.yul\":4151:4184   */\n      swap2\n      pop\n        /* \"#utility.yul\":4206:4272   */\n      0xffffffffffffffffffffffffffffffffffffffffffffffffffffffffffffffff\n        /* \"#utility.yul\":4199:4204   */\n      dup3\n        /* \"#utility.yul\":4196:4273   */\n      sub\n        /* \"#utility.yul\":4193:4296   */\n      tag_171\n      jumpi\n        /* \"#utility.yul\":4276:4294   */\n      tag_172\n      tag_110\n      jump\t// in\n    tag_172:\n        /* \"#utility.yul\":4193:4296   */\n    tag_171:\n        /* \"#utility.yul\":4323:4324   */\n      0x01\n        /* \"#utility.yul\":4316:4321   */\n      dup3\n        /* \"#utility.yul\":4312:4325   */\n      add\n        /* \"#utility.yul\":4305:4325   */\n      swap1\n      pop\n        /* \"#utility.yul\":4098:4331   */\n      swap2\n      swap1\n      pop\n      jump\t// out\n        /* \"#utility.yul\":4337:4517   */\n    tag_51:\n        /* \"#utility.yul\":4385:4462   */\n      0x4e487b7100000000000000000000000000000000000000000000000000000000\n        /* \"#utility.yul\":4382:4383   */\n      0x00\n        /* \"#utility.yul\":4375:4463   */\n      mstore\n        /* \"#utility.yul\":4482:4486   */\n      0x41\n        /* \"#utility.yul\":4479:4480   */\n      0x04\n        /* \"#utility.yul\":4472:4487   */\n      mstore\n        /* \"#utility.yul\":4506:4510   */\n      0x24\n        /* \"#utility.yul\":4503:4504   */\n      0x00\n        /* \"#utility.yul\":4496:4511   */\n      revert\n        /* \"#utility.yul\":4523:4670   */\n    tag_111:\n        /* \"#utility.yul\":4624:4635   */\n      0x00\n        /* \"#utility.yul\":4661:4664   */\n      dup2\n        /* \"#utility.yul\":4646:4664   */\n      swap1\n      pop\n        /* \"#utility.yul\":4523:4670   */\n      swap3\n      swap2\n      pop\n      pop\n      jump\t// out\n        /* \"#utility.yul\":4676:4790   */\n    tag_112:\n      pop\n      jump\t// out\n        /* \"#utility.yul\":4796:5194   */\n    tag_113:\n        /* \"#utility.yul\":4955:4958   */\n      0x00\n        /* \"#utility.yul\":4976:5059   */\n      tag_177\n        /* \"#utility.yul\":5057:5058   */\n      0x00\n        /* \"#utility.yul\":5052:5055   */\n      dup4\n        /* \"#utility.yul\":4976:5059   */\n      tag_111\n      jump\t// in\n    tag_177:\n        /* \"#utility.yul\":4969:5059   */\n      swap2\n      pop\n        /* \"#utility.yul\":5068:5161   */\n      tag_178\n        /* \"#utility.yul\":5157:5160   */\n      dup3\n        /* \"#utility.yul\":5068:5161   */\n      tag_112\n      jump\t// in\n    tag_178:\n        /* \"#utility.yul\":5186:5187   */\n      0x00\n        /* \"#utility.yul\":5181:5184   */\n      dup3\n        /* \"#utility.yul\":5177:5188   */\n      add\n        /* \"#utility.yul\":5170:5188   */\n      swap1\n      pop\n        /* \"#utility.yul\":4796:5194   */\n      swap2\n      swap1\n      pop\n      jump\t// out\n        /* \"#utility.yul\":5200:5579   */\n    tag_56:\n        /* \"#utility.yul\":5384:5387   */\n      0x00\n        /* \"#utility.yul\":5406:5553   */\n      tag_180\n        /* \"#utility.yul\":5549:5552   */\n      dup3\n        /* \"#utility.yul\":5406:5553   */\n      tag_113\n      jump\t// in\n    tag_180:\n        /* \"#utility.yul\":5399:5553   */\n      swap2\n      pop\n        /* \"#utility.yul\":5570:5573   */\n      dup2\n        /* \"#utility.yul\":5563:5573   */\n      swap1\n      pop\n        /* \"#utility.yul\":5200:5579   */\n      swap2\n      swap1\n      pop\n      jump\t// out\n        /* \"#utility.yul\":5585:5746   */\n    tag_114:\n        /* \"#utility.yul\":5725:5738   */\n      0x43616c6c206661696c6564000000000000000000000000000000000000000000\n        /* \"#utility.yul\":5721:5722   */\n      0x00\n        /* \"#utility.yul\":5713:5719   */\n      dup3\n        /* \"#utility.yul\":5709:5723   */\n      add\n        /* \"#utility.yul\":5702:5739   */\n      mstore\n        /* \"#utility.yul\":5585:5746   */\n      pop\n      jump\t// out\n        /* \"#utility.yul\":5752:6118   */\n    tag_115:\n        /* \"#utility.yul\":5894:5897   */\n      0x00\n        /* \"#utility.yul\":5915:5982   */\n      tag_183\n        /* \"#utility.yul\":5979:5981   */\n      0x0b\n        /* \"#utility.yul\":5974:5977   */\n      dup4\n        /* \"#utility.yul\":5915:5982   */\n      tag_107\n      jump\t// in\n    tag_183:\n        /* \"#utility.yul\":5908:5982   */\n      swap2\n      pop\n        /* \"#utility.yul\":5991:6084   */\n      tag_184\n        /* \"#utility.yul\":6080:6083   */\n      dup3\n        /* \"#utility.yul\":5991:6084   */\n      tag_114\n      jump\t// in\n    tag_184:\n        /* \"#utility.yul\":6109:6111   */\n      0x20\n        /* \"#utility.yul\":6104:6107   */\n      dup3\n        /* \"#utility.yul\":6100:6112   */\n      add\n        /* \"#utility.yul\":6093:6112   */\n      swap1\n      pop\n        /* \"#utility.yul\":5752:6118   */\n      swap2\n      swap1\n      pop\n      jump\t// out\n        /* \"#utility.yul\":6124:6543   */\n    tag_62:\n        /* \"#utility.yul\":6290:6294   */\n      0x00\n        /* \"#utility.yul\":6328:6330   */\n      0x20\n        /* \"#utility.yul\":6317:6326   */\n      dup3\n        /* \"#utility.yul\":6313:6331   */\n      add\n        /* \"#utility.yul\":6305:6331   */\n      swap1\n      pop\n        /* \"#utility.yul\":6377:6386   */\n      dup2\n        /* \"#utility.yul\":6371:6375   */\n      dup2\n        /* \"#utility.yul\":6367:6387   */\n      sub\n        /* \"#utility.yul\":6363:6364   */\n      0x00\n        /* \"#utility.yul\":6352:6361   */\n      dup4\n        /* \"#utility.yul\":6348:6365   */\n      add\n        /* \"#utility.yul\":6341:6388   */\n      mstore\n        /* \"#utility.yul\":6405:6536   */\n      tag_186\n        /* \"#utility.yul\":6531:6535   */\n      dup2\n        /* \"#utility.yul\":6405:6536   */\n      tag_115\n      jump\t// in\n    tag_186:\n        /* \"#utility.yul\":6397:6536   */\n      swap1\n      pop\n        /* \"#utility.yul\":6124:6543   */\n      swap2\n      swap1\n      pop\n      jump\t// out\n        /* \"#utility.yul\":6549:6719   */\n    tag_116:\n        /* \"#utility.yul\":6689:6711   */\n      0x53656e64206d6f7265207468616e203120657468000000000000000000000000\n        /* \"#utility.yul\":6685:6686   */\n      0x00\n        /* \"#utility.yul\":6677:6683   */\n      dup3\n        /* \"#utility.yul\":6673:6687   */\n      add\n        /* \"#utility.yul\":6666:6712   */\n      mstore\n        /* \"#utility.yul\":6549:6719   */\n      pop\n      jump\t// out\n        /* \"#utility.yul\":6725:7091   */\n    tag_117:\n        /* \"#utility.yul\":6867:6870   */\n      0x00\n        /* \"#utility.yul\":6888:6955   */\n      tag_189\n        /* \"#utility.yul\":6952:6954   */\n      0x14\n        /* \"#utility.yul\":6947:6950   */\n      dup4\n        /* \"#utility.yul\":6888:6955   */\n      tag_107\n      jump\t// in\n    tag_189:\n        /* \"#utility.yul\":6881:6955   */\n      swap2\n      pop\n        /* \"#utility.yul\":6964:7057   */\n      tag_190\n        /* \"#utility.yul\":7053:7056   */\n      dup3\n        /* \"#utility.yul\":6964:7057   */\n      tag_116\n      jump\t// in\n    tag_190:\n        /* \"#utility.yul\":7082:7084   */\n      0x20\n        /* \"#utility.yul\":7077:7080   */\n      dup3\n        /* \"#utility.yul\":7073:7085   */\n      add\n        /* \"#utility.yul\":7066:7085   */\n      swap1\n      pop\n        /* \"#utility.yul\":6725:7091   */\n      swap2\n      swap1\n      pop\n      jump\t// out\n        /* \"#utility.yul\":7097:7516   */\n    tag_68:\n        /* \"#utility.yul\":7263:7267   */\n      0x00\n        /* \"#utility.yul\":7301:7303   */\n      0x20\n        /* \"#utility.yul\":7290:7299   */\n      dup3\n        /* \"#utility.yul\":7286:7304   */\n      add\n        /* \"#utility.yul\":7278:7304   */\n      swap1\n      pop\n        /* \"#utility.yul\":7350:7359   */\n      dup2\n        /* \"#utility.yul\":7344:7348   */\n      dup2\n        /* \"#utility.yul\":7340:7360   */\n      sub\n        /* \"#utility.yul\":7336:7337   */\n      0x00\n        /* \"#utility.yul\":7325:7334   */\n      dup4\n        /* \"#utility.yul\":7321:7338   */\n      add\n        /* \"#utility.yul\":7314:7361   */\n      mstore\n        /* \"#utility.yul\":7378:7509   */\n      tag_192\n        /* \"#utility.yul\":7504:7508   */\n      dup2\n        /* \"#utility.yul\":7378:7509   */\n      tag_117\n      jump\t// in\n    tag_192:\n        /* \"#utility.yul\":7370:7509   */\n      swap1\n      pop\n        /* \"#utility.yul\":7097:7516   */\n      swap2\n      swap1\n      pop\n      jump\t// out\n        /* \"#utility.yul\":7522:7713   */\n    tag_71:\n        /* \"#utility.yul\":7562:7565   */\n      0x00\n        /* \"#utility.yul\":7581:7601   */\n      tag_194\n        /* \"#utility.yul\":7599:7600   */\n      dup3\n        /* \"#utility.yul\":7581:7601   */\n      tag_102\n      jump\t// in\n    tag_194:\n        /* \"#utility.yul\":7576:7601   */\n      swap2\n      pop\n        /* \"#utility.yul\":7615:7635   */\n      tag_195\n        /* \"#utility.yul\":7633:7634   */\n      dup4\n        /* \"#utility.yul\":7615:7635   */\n      tag_102\n      jump\t// in\n    tag_195:\n        /* \"#utility.yul\":7610:7635   */\n      swap3\n      pop\n        /* \"#utility.yul\":7658:7659   */\n      dup3\n        /* \"#utility.yul\":7655:7656   */\n      dup3\n        /* \"#utility.yul\":7651:7660   */\n      add\n        /* \"#utility.yul\":7644:7660   */\n      swap1\n      pop\n        /* \"#utility.yul\":7679:7682   */\n      dup1\n        /* \"#utility.yul\":7676:7677   */\n      dup3\n        /* \"#utility.yul\":7673:7683   */\n      gt\n        /* \"#utility.yul\":7670:7706   */\n      iszero\n      tag_196\n      jumpi\n        /* \"#utility.yul\":7686:7704   */\n      tag_197\n      tag_110\n      jump\t// in\n    tag_197:\n        /* \"#utility.yul\":7670:7706   */\n    tag_196:\n        /* \"#utility.yul\":7522:7713   */\n      swap3\n      swap2\n      pop\n      pop\n      jump\t// out\n        /* \"#utility.yul\":7719:8129   */\n    tag_78:\n        /* \"#utility.yul\":7759:7766   */\n      0x00\n        /* \"#utility.yul\":7782:7802   */\n      tag_199\n        /* \"#utility.yul\":7800:7801   */\n      dup3\n        /* \"#utility.yul\":7782:7802   */\n      tag_102\n      jump\t// in\n    tag_199:\n        /* \"#utility.yul\":7777:7802   */\n      swap2\n      pop\n        /* \"#utility.yul\":7816:7836   */\n      tag_200\n        /* \"#utility.yul\":7834:7835   */\n      dup4\n        /* \"#utility.yul\":7816:7836   */\n      tag_102\n      jump\t// in\n    tag_200:\n        /* \"#utility.yul\":7811:7836   */\n      swap3\n      pop\n        /* \"#utility.yul\":7871:7872   */\n      dup3\n        /* \"#utility.yul\":7868:7869   */\n      dup3\n        /* \"#utility.yul\":7864:7873   */\n      mul\n        /* \"#utility.yul\":7893:7923   */\n      tag_201\n        /* \"#utility.yul\":7911:7922   */\n      dup2\n        /* \"#utility.yul\":7893:7923   */\n      tag_102\n      jump\t// in\n    tag_201:\n        /* \"#utility.yul\":7882:7923   */\n      swap2\n      pop\n        /* \"#utility.yul\":8072:8073   */\n      dup3\n        /* \"#utility.yul\":8063:8070   */\n      dup3\n        /* \"#utility.yul\":8059:8074   */\n      div\n        /* \"#utility.yul\":8056:8057   */\n      dup5\n        /* \"#utility.yul\":8053:8075   */\n      eq\n        /* \"#utility.yul\":8033:8034   */\n      dup4\n        /* \"#utility.yul\":8026:8035   */\n      iszero\n        /* \"#utility.yul\":8006:8089   */\n      or\n        /* \"#utility.yul\":7983:8122   */\n      tag_202\n      jumpi\n        /* \"#utility.yul\":8102:8120   */\n      tag_203\n      tag_110\n      jump\t// in\n    tag_203:\n        /* \"#utility.yul\":7983:8122   */\n    tag_202:\n        /* \"#utility.yul\":7767:8129   */\n      pop\n        /* \"#utility.yul\":7719:8129   */\n      swap3\n      swap2\n      pop\n      pop\n      jump\t// out\n        /* \"#utility.yul\":8135:8315   */\n    tag_118:\n        /* \"#utility.yul\":8183:8260   */\n      0x4e487b7100000000000000000000000000000000000000000000000000000000\n        /* \"#utility.yul\":8180:8181   */\n      0x00\n        /* \"#utility.yul\":8173:8261   */\n      mstore\n        /* \"#utility.yul\":8280:8284   */\n      0x12\n        /* \"#utility.yul\":8277:8278   */\n      0x04\n        /* \"#utility.yul\":8270:8285   */\n      mstore\n        /* \"#utility.yul\":8304:8308   */\n      0x24\n        /* \"#utility.yul\":8301:8302   */\n      0x00\n        /* \"#utility.yul\":8294:8309   */\n      revert\n        /* \"#utility.yul\":8321:8506   */\n    tag_80:\n        /* \"#utility.yul\":8361:8362   */\n      0x00\n        /* \"#utility.yul\":8378:8398   */\n      tag_206\n        /* \"#utility.yul\":8396:8397   */\n      dup3\n        /* \"#utility.yul\":8378:8398   */\n      tag_102\n      jump\t// in\n    tag_206:\n        /* \"#utility.yul\":8373:8398   */\n      swap2\n      pop\n        /* \"#utility.yul\":8412:8432   */\n      tag_207\n        /* \"#utility.yul\":8430:8431   */\n      dup4\n        /* \"#utility.yul\":8412:8432   */\n      tag_102\n      jump\t// in\n    tag_207:\n        /* \"#utility.yul\":8407:8432   */\n      swap3\n      pop\n        /* \"#utility.yul\":8451:8452   */\n      dup3\n        /* \"#utility.yul\":8441:8476   */\n      tag_208\n      jumpi\n        /* \"#utility.yul\":8456:8474   */\n      tag_209\n      tag_118\n      jump\t// in\n    tag_209:\n        /* \"#utility.yul\":8441:8476   */\n    tag_208:\n        /* \"#utility.yul\":8498:8499   */\n      dup3\n        /* \"#utility.yul\":8495:8496   */\n      dup3\n        /* \"#utility.yul\":8491:8500   */\n      div\n        /* \"#utility.yul\":8486:8500   */\n      swap1\n      pop\n        /* \"#utility.yul\":8321:8506   */\n      swap3\n      swap2\n      pop\n      pop\n      jump\t// out\n        /* \"#utility.yul\":8512:8617   */\n    tag_119:\n        /* \"#utility.yul\":8548:8555   */\n      0x00\n        /* \"#utility.yul\":8588:8610   */\n      0xffffffffffffffffffff\n        /* \"#utility.yul\":8581:8586   */\n      dup3\n        /* \"#utility.yul\":8577:8611   */\n      and\n        /* \"#utility.yul\":8566:8611   */\n      swap1\n      pop\n        /* \"#utility.yul\":8512:8617   */\n      swap2\n      swap1\n      pop\n      jump\t// out\n        /* \"#utility.yul\":8623:8743   */\n    tag_120:\n        /* \"#utility.yul\":8695:8718   */\n      tag_212\n        /* \"#utility.yul\":8712:8717   */\n      dup2\n        /* \"#utility.yul\":8695:8718   */\n      tag_119\n      jump\t// in\n    tag_212:\n        /* \"#utility.yul\":8688:8693   */\n      dup2\n        /* \"#utility.yul\":8685:8719   */\n      eq\n        /* \"#utility.yul\":8675:8737   */\n      tag_213\n      jumpi\n        /* \"#utility.yul\":8733:8734   */\n      0x00\n        /* \"#utility.yul\":8730:8731   */\n      dup1\n        /* \"#utility.yul\":8723:8735   */\n      revert\n        /* \"#utility.yul\":8675:8737   */\n    tag_213:\n        /* \"#utility.yul\":8623:8743   */\n      pop\n      jump\t// out\n        /* \"#utility.yul\":8749:8890   */\n    tag_121:\n        /* \"#utility.yul\":8805:8810   */\n      0x00\n        /* \"#utility.yul\":8836:8842   */\n      dup2\n        /* \"#utility.yul\":8830:8843   */\n      mload\n        /* \"#utility.yul\":8821:8843   */\n      swap1\n      pop\n        /* \"#utility.yul\":8852:8884   */\n      tag_215\n        /* \"#utility.yul\":8878:8883   */\n      dup2\n        /* \"#utility.yul\":8852:8884   */\n      tag_120\n      jump\t// in\n    tag_215:\n        /* \"#utility.yul\":8749:8890   */\n      swap3\n      swap2\n      pop\n      pop\n      jump\t// out\n        /* \"#utility.yul\":8896:8972   */\n    tag_122:\n        /* \"#utility.yul\":8932:8939   */\n      0x00\n        /* \"#utility.yul\":8961:8966   */\n      dup2\n        /* \"#utility.yul\":8950:8966   */\n      swap1\n      pop\n        /* \"#utility.yul\":8896:8972   */\n      swap2\n      swap1\n      pop\n      jump\t// out\n        /* \"#utility.yul\":8978:9098   */\n    tag_123:\n        /* \"#utility.yul\":9050:9073   */\n      tag_218\n        /* \"#utility.yul\":9067:9072   */\n      dup2\n        /* \"#utility.yul\":9050:9073   */\n      tag_122\n      jump\t// in\n    tag_218:\n        /* \"#utility.yul\":9043:9048   */\n      dup2\n        /* \"#utility.yul\":9040:9074   */\n      eq\n        /* \"#utility.yul\":9030:9092   */\n      tag_219\n      jumpi\n        /* \"#utility.yul\":9088:9089   */\n      0x00\n        /* \"#utility.yul\":9085:9086   */\n      dup1\n        /* \"#utility.yul\":9078:9090   */\n      revert\n        /* \"#utility.yul\":9030:9092   */\n    tag_219:\n        /* \"#utility.yul\":8978:9098   */\n      pop\n      jump\t// out\n        /* \"#utility.yul\":9104:9245   */\n    tag_124:\n        /* \"#utility.yul\":9160:9165   */\n      0x00\n        /* \"#utility.yul\":9191:9197   */\n      dup2\n        /* \"#utility.yul\":9185:9198   */\n      mload\n        /* \"#utility.yul\":9176:9198   */\n      swap1\n      pop\n        /* \"#utility.yul\":9207:9239   */\n      tag_221\n        /* \"#utility.yul\":9233:9238   */\n      dup2\n        /* \"#utility.yul\":9207:9239   */\n      tag_123\n      jump\t// in\n    tag_221:\n        /* \"#utility.yul\":9104:9245   */\n      swap3\n      swap2\n      pop\n      pop\n      jump\t// out\n        /* \"#utility.yul\":9251:9394   */\n    tag_125:\n        /* \"#utility.yul\":9308:9313   */\n      0x00\n        /* \"#utility.yul\":9339:9345   */\n      dup2\n        /* \"#utility.yul\":9333:9346   */\n      mload\n        /* \"#utility.yul\":9324:9346   */\n      swap1\n      pop\n        /* \"#utility.yul\":9355:9388   */\n      tag_223\n        /* \"#utility.yul\":9382:9387   */\n      dup2\n        /* \"#utility.yul\":9355:9388   */\n      tag_105\n      jump\t// in\n    tag_223:\n        /* \"#utility.yul\":9251:9394   */\n      swap3\n      swap2\n      pop\n      pop\n      jump\t// out\n        /* \"#utility.yul\":9400:10371   */\n    tag_85:\n        /* \"#utility.yul\":9503:9509   */\n      0x00\n        /* \"#utility.yul\":9511:9517   */\n      dup1\n        /* \"#utility.yul\":9519:9525   */\n      0x00\n        /* \"#utility.yul\":9527:9533   */\n      dup1\n        /* \"#utility.yul\":9535:9541   */\n      0x00\n        /* \"#utility.yul\":9584:9587   */\n      0xa0\n        /* \"#utility.yul\":9572:9581   */\n      dup7\n        /* \"#utility.yul\":9563:9570   */\n      dup9\n        /* \"#utility.yul\":9559:9582   */\n      sub\n        /* \"#utility.yul\":9555:9588   */\n      slt\n        /* \"#utility.yul\":9552:9672   */\n      iszero\n      tag_225\n      jumpi\n        /* \"#utility.yul\":9591:9670   */\n      tag_226\n      tag_96\n      jump\t// in\n    tag_226:\n        /* \"#utility.yul\":9552:9672   */\n    tag_225:\n        /* \"#utility.yul\":9711:9712   */\n      0x00\n        /* \"#utility.yul\":9736:9799   */\n      tag_227\n        /* \"#utility.yul\":9791:9798   */\n      dup9\n        /* \"#utility.yul\":9782:9788   */\n      dup3\n        /* \"#utility.yul\":9771:9780   */\n      dup10\n        /* \"#utility.yul\":9767:9789   */\n      add\n        /* \"#utility.yul\":9736:9799   */\n      tag_121\n      jump\t// in\n    tag_227:\n        /* \"#utility.yul\":9726:9799   */\n      swap6\n      pop\n        /* \"#utility.yul\":9682:9809   */\n      pop\n        /* \"#utility.yul\":9848:9850   */\n      0x20\n        /* \"#utility.yul\":9874:9937   */\n      tag_228\n        /* \"#utility.yul\":9929:9936   */\n      dup9\n        /* \"#utility.yul\":9920:9926   */\n      dup3\n        /* \"#utility.yul\":9909:9918   */\n      dup10\n        /* \"#utility.yul\":9905:9927   */\n      add\n        /* \"#utility.yul\":9874:9937   */\n      tag_124\n      jump\t// in\n    tag_228:\n        /* \"#utility.yul\":9864:9937   */\n      swap5\n      pop\n        /* \"#utility.yul\":9819:9947   */\n      pop\n        /* \"#utility.yul\":9986:9988   */\n      0x40\n        /* \"#utility.yul\":10012:10076   */\n      tag_229\n        /* \"#utility.yul\":10068:10075   */\n      dup9\n        /* \"#utility.yul\":10059:10065   */\n      dup3\n        /* \"#utility.yul\":10048:10057   */\n      dup10\n        /* \"#utility.yul\":10044:10066   */\n      add\n        /* \"#utility.yul\":10012:10076   */\n      tag_125\n      jump\t// in\n    tag_229:\n        /* \"#utility.yul\":10002:10076   */\n      swap4\n      pop\n        /* \"#utility.yul\":9957:10086   */\n      pop\n        /* \"#utility.yul\":10125:10127   */\n      0x60\n        /* \"#utility.yul\":10151:10215   */\n      tag_230\n        /* \"#utility.yul\":10207:10214   */\n      dup9\n        /* \"#utility.yul\":10198:10204   */\n      dup3\n        /* \"#utility.yul\":10187:10196   */\n      dup10\n        /* \"#utility.yul\":10183:10205   */\n      add\n        /* \"#utility.yul\":10151:10215   */\n      tag_125\n      jump\t// in\n    tag_230:\n        /* \"#utility.yul\":10141:10215   */\n      swap3\n      pop\n        /* \"#utility.yul\":10096:10225   */\n      pop\n        /* \"#utility.yul\":10264:10267   */\n      0x80\n        /* \"#utility.yul\":10291:10354   */\n      tag_231\n        /* \"#utility.yul\":10346:10353   */\n      dup9\n        /* \"#utility.yul\":10337:10343   */\n      dup3\n        /* \"#utility.yul\":10326:10335   */\n      dup10\n        /* \"#utility.yul\":10322:10344   */\n      add\n        /* \"#utility.yul\":10291:10354   */\n      tag_121\n      jump\t// in\n    tag_231:\n        /* \"#utility.yul\":10281:10354   */\n      swap2\n      pop\n        /* \"#utility.yul\":10235:10364   */\n      pop\n        /* \"#utility.yul\":9400:10371   */\n      swap3\n      swap6\n      pop\n      swap3\n      swap6\n      swap1\n      swap4\n      pop\n      jump\t// out\n        /* \"#utility.yul\":10377:10933   */\n    tag_87:\n        /* \"#utility.yul\":10416:10423   */\n      0x00\n        /* \"#utility.yul\":10439:10458   */\n      tag_233\n        /* \"#utility.yul\":10456:10457   */\n      dup3\n        /* \"#utility.yul\":10439:10458   */\n      tag_122\n      jump\t// in\n    tag_233:\n        /* \"#utility.yul\":10434:10458   */\n      swap2\n      pop\n        /* \"#utility.yul\":10472:10491   */\n      tag_234\n        /* \"#utility.yul\":10489:10490   */\n      dup4\n        /* \"#utility.yul\":10472:10491   */\n      tag_122\n      jump\t// in\n    tag_234:\n        /* \"#utility.yul\":10467:10491   */\n      swap3\n      pop\n        /* \"#utility.yul\":10526:10527   */\n      dup3\n        /* \"#utility.yul\":10523:10524   */\n      dup3\n        /* \"#utility.yul\":10519:10528   */\n      mul\n        /* \"#utility.yul\":10548:10577   */\n      tag_235\n        /* \"#utility.yul\":10565:10576   */\n      dup2\n        /* \"#utility.yul\":10548:10577   */\n      tag_122\n      jump\t// in\n    tag_235:\n        /* \"#utility.yul\":10537:10577   */\n      swap2\n      pop\n        /* \"#utility.yul\":10635:10701   */\n      0x8000000000000000000000000000000000000000000000000000000000000000\n        /* \"#utility.yul\":10632:10633   */\n      dup5\n        /* \"#utility.yul\":10629:10702   */\n      eq\n        /* \"#utility.yul\":10625:10626   */\n      0x00\n        /* \"#utility.yul\":10622:10623   */\n      dup5\n        /* \"#utility.yul\":10618:10627   */\n      slt\n        /* \"#utility.yul\":10614:10703   */\n      and\n        /* \"#utility.yul\":10611:10726   */\n      iszero\n      tag_236\n      jumpi\n        /* \"#utility.yul\":10706:10724   */\n      tag_237\n      tag_110\n      jump\t// in\n    tag_237:\n        /* \"#utility.yul\":10611:10726   */\n    tag_236:\n        /* \"#utility.yul\":10876:10877   */\n      dup3\n        /* \"#utility.yul\":10867:10874   */\n      dup3\n        /* \"#utility.yul\":10862:10878   */\n      sdiv\n        /* \"#utility.yul\":10859:10860   */\n      dup5\n        /* \"#utility.yul\":10856:10879   */\n      eq\n        /* \"#utility.yul\":10836:10837   */\n      dup4\n        /* \"#utility.yul\":10829:10838   */\n      iszero\n        /* \"#utility.yul\":10809:10893   */\n      or\n        /* \"#utility.yul\":10786:10926   */\n      tag_238\n      jumpi\n        /* \"#utility.yul\":10906:10924   */\n      tag_239\n      tag_110\n      jump\t// in\n    tag_239:\n        /* \"#utility.yul\":10786:10926   */\n    tag_238:\n        /* \"#utility.yul\":10424:10933   */\n      pop\n        /* \"#utility.yul\":10377:10933   */\n      swap3\n      swap2\n      pop\n      pop\n      jump\t// out\n\n    auxdata: 0xa26469706673582212202538907287880a367bae4353e491d714a51609ad5b7cd563a3ffea5446e9820964736f6c63430008120033\n}\n",
				"bytecode": {
					"linkReferences": {},
					"object": "60806040526802b5e3af16b188000060005534801561001d57600080fd5b5033600360006101000a81548173ffffffffffffffffffffffffffffffffffffffff021916908373ffffffffffffffffffffffffffffffffffffffff160217905550610cef8061006e6000396000f3fe6080604052600436106100555760003560e01c80633ccfd60b1461005a5780638c04995f146100715780638da5cb5b146100ae578063d1d9165d146100d9578063dc0d3dff146100e3578063dc992aa014610120575b600080fd5b34801561006657600080fd5b5061006f61014b565b005b34801561007d57600080fd5b506100986004803603810190610093919061070f565b610397565b6040516100a59190610755565b60405180910390f35b3480156100ba57600080fd5b506100c36103af565b6040516100d0919061077f565b60405180910390f35b6100e16103d5565b005b3480156100ef57600080fd5b5061010a600480360381019061010591906107c6565b6104dd565b604051610117919061077f565b60405180910390f35b34801561012c57600080fd5b5061013561051c565b6040516101429190610755565b60405180910390f35b600360009054906101000a900473ffffffffffffffffffffffffffffffffffffffff1673ffffffffffffffffffffffffffffffffffffffff163373ffffffffffffffffffffffffffffffffffffffff16146101db576040517f08c379a00000000000000000000000000000000000000000000000000000000081526004016101d290610850565b60405180910390fd5b60005b6001805490508110156102875760006001828154811061020157610200610870565b5b9060005260206000200160009054906101000a900473ffffffffffffffffffffffffffffffffffffffff1690506000600260008373ffffffffffffffffffffffffffffffffffffffff1673ffffffffffffffffffffffffffffffffffffffff1681526020019081526020016000208190555050808061027f906108ce565b9150506101de565b50600067ffffffffffffffff8111156102a3576102a2610916565b5b6040519080825280602002602001820160405280156102d15781602001602082028036833780820191505090505b50600190805190602001906102e7929190610605565b5060003373ffffffffffffffffffffffffffffffffffffffff164760405161030e90610976565b60006040518083038185875af1925050503d806000811461034b576040519150601f19603f3d011682016040523d82523d6000602084013e610350565b606091505b5050905080610394576040517f08c379a000000000000000000000000000000000000000000000000000000000815260040161038b906109d7565b60405180910390fd5b50565b60026020528060005260406000206000915090505481565b600360009054906101000a900473ffffffffffffffffffffffffffffffffffffffff1681565b6000546103e134610522565b1015610422576040517f08c379a000000000000000000000000000000000000000000000000000000000815260040161041990610a43565b60405180910390fd5b6001339080600181540180825580915050600190039060005260206000200160009091909190916101000a81548173ffffffffffffffffffffffffffffffffffffffff021916908373ffffffffffffffffffffffffffffffffffffffff16021790555034600260003373ffffffffffffffffffffffffffffffffffffffff1673ffffffffffffffffffffffffffffffffffffffff16815260200190815260200160002060008282546104d49190610a63565b92505081905550565b600181815481106104ed57600080fd5b906000526020600020016000915054906101000a900473ffffffffffffffffffffffffffffffffffffffff1681565b60005481565b60008061052d61055c565b90506000670de0b6b3a764000084836105469190610a97565b6105509190610b08565b90508092505050919050565b60008073694aa1769357215de4fac081bf1f309adc325306905060008173ffffffffffffffffffffffffffffffffffffffff1663feaf968c6040518163ffffffff1660e01b815260040160a060405180830381865afa1580156105c3573d6000803e3d6000fd5b505050506040513d601f19601f820116820180604052508101906105e79190610bc6565b5050509150506402540be400816105fe9190610c41565b9250505090565b82805482825590600052602060002090810192821561067e579160200282015b8281111561067d5782518260006101000a81548173ffffffffffffffffffffffffffffffffffffffff021916908373ffffffffffffffffffffffffffffffffffffffff16021790555091602001919060010190610625565b5b50905061068b919061068f565b5090565b5b808211156106a8576000816000905550600101610690565b5090565b600080fd5b600073ffffffffffffffffffffffffffffffffffffffff82169050919050565b60006106dc826106b1565b9050919050565b6106ec816106d1565b81146106f757600080fd5b50565b600081359050610709816106e3565b92915050565b600060208284031215610725576107246106ac565b5b6000610733848285016106fa565b91505092915050565b6000819050919050565b61074f8161073c565b82525050565b600060208201905061076a6000830184610746565b92915050565b610779816106d1565b82525050565b60006020820190506107946000830184610770565b92915050565b6107a38161073c565b81146107ae57600080fd5b50565b6000813590506107c08161079a565b92915050565b6000602082840312156107dc576107db6106ac565b5b60006107ea848285016107b1565b91505092915050565b600082825260208201905092915050565b7f5468652073656e646572206973206e6f7420746865206f776e65720000000000600082015250565b600061083a601b836107f3565b915061084582610804565b602082019050919050565b600060208201905081810360008301526108698161082d565b9050919050565b7f4e487b7100000000000000000000000000000000000000000000000000000000600052603260045260246000fd5b7f4e487b7100000000000000000000000000000000000000000000000000000000600052601160045260246000fd5b60006108d98261073c565b91507fffffffffffffffffffffffffffffffffffffffffffffffffffffffffffffffff820361090b5761090a61089f565b5b600182019050919050565b7f4e487b7100000000000000000000000000000000000000000000000000000000600052604160045260246000fd5b600081905092915050565b50565b6000610960600083610945565b915061096b82610950565b600082019050919050565b600061098182610953565b9150819050919050565b7f43616c6c206661696c6564000000000000000000000000000000000000000000600082015250565b60006109c1600b836107f3565b91506109cc8261098b565b602082019050919050565b600060208201905081810360008301526109f0816109b4565b9050919050565b7f53656e64206d6f7265207468616e203120657468000000000000000000000000600082015250565b6000610a2d6014836107f3565b9150610a38826109f7565b602082019050919050565b60006020820190508181036000830152610a5c81610a20565b9050919050565b6000610a6e8261073c565b9150610a798361073c565b9250828201905080821115610a9157610a9061089f565b5b92915050565b6000610aa28261073c565b9150610aad8361073c565b9250828202610abb8161073c565b91508282048414831517610ad257610ad161089f565b5b5092915050565b7f4e487b7100000000000000000000000000000000000000000000000000000000600052601260045260246000fd5b6000610b138261073c565b9150610b1e8361073c565b925082610b2e57610b2d610ad9565b5b828204905092915050565b600069ffffffffffffffffffff82169050919050565b610b5881610b39565b8114610b6357600080fd5b50565b600081519050610b7581610b4f565b92915050565b6000819050919050565b610b8e81610b7b565b8114610b9957600080fd5b50565b600081519050610bab81610b85565b92915050565b600081519050610bc08161079a565b92915050565b600080600080600060a08688031215610be257610be16106ac565b5b6000610bf088828901610b66565b9550506020610c0188828901610b9c565b9450506040610c1288828901610bb1565b9350506060610c2388828901610bb1565b9250506080610c3488828901610b66565b9150509295509295909350565b6000610c4c82610b7b565b9150610c5783610b7b565b9250828202610c6581610b7b565b91507f80000000000000000000000000000000000000000000000000000000000000008414600084121615610c9d57610c9c61089f565b5b8282058414831517610cb257610cb161089f565b5b509291505056fea26469706673582212202538907287880a367bae4353e491d714a51609ad5b7cd563a3ffea5446e9820964736f6c63430008120033",
					"opcodes": "PUSH1 0x80 PUSH1 0x40 MSTORE PUSH9 0x2B5E3AF16B1880000 PUSH1 0x0 SSTORE CALLVALUE DUP1 ISZERO PUSH2 0x1D JUMPI PUSH1 0x0 DUP1 REVERT JUMPDEST POP CALLER PUSH1 0x3 PUSH1 0x0 PUSH2 0x100 EXP DUP2 SLOAD DUP2 PUSH20 0xFFFFFFFFFFFFFFFFFFFFFFFFFFFFFFFFFFFFFFFF MUL NOT AND SWAP1 DUP4 PUSH20 0xFFFFFFFFFFFFFFFFFFFFFFFFFFFFFFFFFFFFFFFF AND MUL OR SWAP1 SSTORE POP PUSH2 0xCEF DUP1 PUSH2 0x6E PUSH1 0x0 CODECOPY PUSH1 0x0 RETURN INVALID PUSH1 0x80 PUSH1 0x40 MSTORE PUSH1 0x4 CALLDATASIZE LT PUSH2 0x55 JUMPI PUSH1 0x0 CALLDATALOAD PUSH1 0xE0 SHR DUP1 PUSH4 0x3CCFD60B EQ PUSH2 0x5A JUMPI DUP1 PUSH4 0x8C04995F EQ PUSH2 0x71 JUMPI DUP1 PUSH4 0x8DA5CB5B EQ PUSH2 0xAE JUMPI DUP1 PUSH4 0xD1D9165D EQ PUSH2 0xD9 JUMPI DUP1 PUSH4 0xDC0D3DFF EQ PUSH2 0xE3 JUMPI DUP1 PUSH4 0xDC992AA0 EQ PUSH2 0x120 JUMPI JUMPDEST PUSH1 0x0 DUP1 REVERT JUMPDEST CALLVALUE DUP1 ISZERO PUSH2 0x66 JUMPI PUSH1 0x0 DUP1 REVERT JUMPDEST POP PUSH2 0x6F PUSH2 0x14B JUMP JUMPDEST STOP JUMPDEST CALLVALUE DUP1 ISZERO PUSH2 0x7D JUMPI PUSH1 0x0 DUP1 REVERT JUMPDEST POP PUSH2 0x98 PUSH1 0x4 DUP1 CALLDATASIZE SUB DUP2 ADD SWAP1 PUSH2 0x93 SWAP2 SWAP1 PUSH2 0x70F JUMP JUMPDEST PUSH2 0x397 JUMP JUMPDEST PUSH1 0x40 MLOAD PUSH2 0xA5 SWAP2 SWAP1 PUSH2 0x755 JUMP JUMPDEST PUSH1 0x40 MLOAD DUP1 SWAP2 SUB SWAP1 RETURN JUMPDEST CALLVALUE DUP1 ISZERO PUSH2 0xBA JUMPI PUSH1 0x0 DUP1 REVERT JUMPDEST POP PUSH2 0xC3 PUSH2 0x3AF JUMP JUMPDEST PUSH1 0x40 MLOAD PUSH2 0xD0 SWAP2 SWAP1 PUSH2 0x77F JUMP JUMPDEST PUSH1 0x40 MLOAD DUP1 SWAP2 SUB SWAP1 RETURN JUMPDEST PUSH2 0xE1 PUSH2 0x3D5 JUMP JUMPDEST STOP JUMPDEST CALLVALUE DUP1 ISZERO PUSH2 0xEF JUMPI PUSH1 0x0 DUP1 REVERT JUMPDEST POP PUSH2 0x10A PUSH1 0x4 DUP1 CALLDATASIZE SUB DUP2 ADD SWAP1 PUSH2 0x105 SWAP2 SWAP1 PUSH2 0x7C6 JUMP JUMPDEST PUSH2 0x4DD JUMP JUMPDEST PUSH1 0x40 MLOAD PUSH2 0x117 SWAP2 SWAP1 PUSH2 0x77F JUMP JUMPDEST PUSH1 0x40 MLOAD DUP1 SWAP2 SUB SWAP1 RETURN JUMPDEST CALLVALUE DUP1 ISZERO PUSH2 0x12C JUMPI PUSH1 0x0 DUP1 REVERT JUMPDEST POP PUSH2 0x135 PUSH2 0x51C JUMP JUMPDEST PUSH1 0x40 MLOAD PUSH2 0x142 SWAP2 SWAP1 PUSH2 0x755 JUMP JUMPDEST PUSH1 0x40 MLOAD DUP1 SWAP2 SUB SWAP1 RETURN JUMPDEST PUSH1 0x3 PUSH1 0x0 SWAP1 SLOAD SWAP1 PUSH2 0x100 EXP SWAP1 DIV PUSH20 0xFFFFFFFFFFFFFFFFFFFFFFFFFFFFFFFFFFFFFFFF AND PUSH20 0xFFFFFFFFFFFFFFFFFFFFFFFFFFFFFFFFFFFFFFFF AND CALLER PUSH20 0xFFFFFFFFFFFFFFFFFFFFFFFFFFFFFFFFFFFFFFFF AND EQ PUSH2 0x1DB JUMPI PUSH1 0x40 MLOAD PUSH32 0x8C379A000000000000000000000000000000000000000000000000000000000 DUP2 MSTORE PUSH1 0x4 ADD PUSH2 0x1D2 SWAP1 PUSH2 0x850 JUMP JUMPDEST PUSH1 0x40 MLOAD DUP1 SWAP2 SUB SWAP1 REVERT JUMPDEST PUSH1 0x0 JUMPDEST PUSH1 0x1 DUP1 SLOAD SWAP1 POP DUP2 LT ISZERO PUSH2 0x287 JUMPI PUSH1 0x0 PUSH1 0x1 DUP3 DUP2 SLOAD DUP2 LT PUSH2 0x201 JUMPI PUSH2 0x200 PUSH2 0x870 JUMP JUMPDEST JUMPDEST SWAP1 PUSH1 0x0 MSTORE PUSH1 0x20 PUSH1 0x0 KECCAK256 ADD PUSH1 0x0 SWAP1 SLOAD SWAP1 PUSH2 0x100 EXP SWAP1 DIV PUSH20 0xFFFFFFFFFFFFFFFFFFFFFFFFFFFFFFFFFFFFFFFF AND SWAP1 POP PUSH1 0x0 PUSH1 0x2 PUSH1 0x0 DUP4 PUSH20 0xFFFFFFFFFFFFFFFFFFFFFFFFFFFFFFFFFFFFFFFF AND PUSH20 0xFFFFFFFFFFFFFFFFFFFFFFFFFFFFFFFFFFFFFFFF AND DUP2 MSTORE PUSH1 0x20 ADD SWAP1 DUP2 MSTORE PUSH1 0x20 ADD PUSH1 0x0 KECCAK256 DUP2 SWAP1 SSTORE POP POP DUP1 DUP1 PUSH2 0x27F SWAP1 PUSH2 0x8CE JUMP JUMPDEST SWAP2 POP POP PUSH2 0x1DE JUMP JUMPDEST POP PUSH1 0x0 PUSH8 0xFFFFFFFFFFFFFFFF DUP2 GT ISZERO PUSH2 0x2A3 JUMPI PUSH2 0x2A2 PUSH2 0x916 JUMP JUMPDEST JUMPDEST PUSH1 0x40 MLOAD SWAP1 DUP1 DUP3 MSTORE DUP1 PUSH1 0x20 MUL PUSH1 0x20 ADD DUP3 ADD PUSH1 0x40 MSTORE DUP1 ISZERO PUSH2 0x2D1 JUMPI DUP2 PUSH1 0x20 ADD PUSH1 0x20 DUP3 MUL DUP1 CALLDATASIZE DUP4 CALLDATACOPY DUP1 DUP3 ADD SWAP2 POP POP SWAP1 POP JUMPDEST POP PUSH1 0x1 SWAP1 DUP1 MLOAD SWAP1 PUSH1 0x20 ADD SWAP1 PUSH2 0x2E7 SWAP3 SWAP2 SWAP1 PUSH2 0x605 JUMP JUMPDEST POP PUSH1 0x0 CALLER PUSH20 0xFFFFFFFFFFFFFFFFFFFFFFFFFFFFFFFFFFFFFFFF AND SELFBALANCE PUSH1 0x40 MLOAD PUSH2 0x30E SWAP1 PUSH2 0x976 JUMP JUMPDEST PUSH1 0x0 PUSH1 0x40 MLOAD DUP1 DUP4 SUB DUP2 DUP6 DUP8 GAS CALL SWAP3 POP POP POP RETURNDATASIZE DUP1 PUSH1 0x0 DUP2 EQ PUSH2 0x34B JUMPI PUSH1 0x40 MLOAD SWAP2 POP PUSH1 0x1F NOT PUSH1 0x3F RETURNDATASIZE ADD AND DUP3 ADD PUSH1 0x40 MSTORE RETURNDATASIZE DUP3 MSTORE RETURNDATASIZE PUSH1 0x0 PUSH1 0x20 DUP5 ADD RETURNDATACOPY PUSH2 0x350 JUMP JUMPDEST PUSH1 0x60 SWAP2 POP JUMPDEST POP POP SWAP1 POP DUP1 PUSH2 0x394 JUMPI PUSH1 0x40 MLOAD PUSH32 0x8C379A000000000000000000000000000000000000000000000000000000000 DUP2 MSTORE PUSH1 0x4 ADD PUSH2 0x38B SWAP1 PUSH2 0x9D7 JUMP JUMPDEST PUSH1 0x40 MLOAD DUP1 SWAP2 SUB SWAP1 REVERT JUMPDEST POP JUMP JUMPDEST PUSH1 0x2 PUSH1 0x20 MSTORE DUP1 PUSH1 0x0 MSTORE PUSH1 0x40 PUSH1 0x0 KECCAK256 PUSH1 0x0 SWAP2 POP SWAP1 POP SLOAD DUP2 JUMP JUMPDEST PUSH1 0x3 PUSH1 0x0 SWAP1 SLOAD SWAP1 PUSH2 0x100 EXP SWAP1 DIV PUSH20 0xFFFFFFFFFFFFFFFFFFFFFFFFFFFFFFFFFFFFFFFF AND DUP2 JUMP JUMPDEST PUSH1 0x0 SLOAD PUSH2 0x3E1 CALLVALUE PUSH2 0x522 JUMP JUMPDEST LT ISZERO PUSH2 0x422 JUMPI PUSH1 0x40 MLOAD PUSH32 0x8C379A000000000000000000000000000000000000000000000000000000000 DUP2 MSTORE PUSH1 0x4 ADD PUSH2 0x419 SWAP1 PUSH2 0xA43 JUMP JUMPDEST PUSH1 0x40 MLOAD DUP1 SWAP2 SUB SWAP1 REVERT JUMPDEST PUSH1 0x1 CALLER SWAP1 DUP1 PUSH1 0x1 DUP2 SLOAD ADD DUP1 DUP3 SSTORE DUP1 SWAP2 POP POP PUSH1 0x1 SWAP1 SUB SWAP1 PUSH1 0x0 MSTORE PUSH1 0x20 PUSH1 0x0 KECCAK256 ADD PUSH1 0x0 SWAP1 SWAP2 SWAP1 SWAP2 SWAP1 SWAP2 PUSH2 0x100 EXP DUP2 SLOAD DUP2 PUSH20 0xFFFFFFFFFFFFFFFFFFFFFFFFFFFFFFFFFFFFFFFF MUL NOT AND SWAP1 DUP4 PUSH20 0xFFFFFFFFFFFFFFFFFFFFFFFFFFFFFFFFFFFFFFFF AND MUL OR SWAP1 SSTORE POP CALLVALUE PUSH1 0x2 PUSH1 0x0 CALLER PUSH20 0xFFFFFFFFFFFFFFFFFFFFFFFFFFFFFFFFFFFFFFFF AND PUSH20 0xFFFFFFFFFFFFFFFFFFFFFFFFFFFFFFFFFFFFFFFF AND DUP2 MSTORE PUSH1 0x20 ADD SWAP1 DUP2 MSTORE PUSH1 0x20 ADD PUSH1 0x0 KECCAK256 PUSH1 0x0 DUP3 DUP3 SLOAD PUSH2 0x4D4 SWAP2 SWAP1 PUSH2 0xA63 JUMP JUMPDEST SWAP3 POP POP DUP2 SWAP1 SSTORE POP JUMP JUMPDEST PUSH1 0x1 DUP2 DUP2 SLOAD DUP2 LT PUSH2 0x4ED JUMPI PUSH1 0x0 DUP1 REVERT JUMPDEST SWAP1 PUSH1 0x0 MSTORE PUSH1 0x20 PUSH1 0x0 KECCAK256 ADD PUSH1 0x0 SWAP2 POP SLOAD SWAP1 PUSH2 0x100 EXP SWAP1 DIV PUSH20 0xFFFFFFFFFFFFFFFFFFFFFFFFFFFFFFFFFFFFFFFF AND DUP2 JUMP JUMPDEST PUSH1 0x0 SLOAD DUP2 JUMP JUMPDEST PUSH1 0x0 DUP1 PUSH2 0x52D PUSH2 0x55C JUMP JUMPDEST SWAP1 POP PUSH1 0x0 PUSH8 0xDE0B6B3A7640000 DUP5 DUP4 PUSH2 0x546 SWAP2 SWAP1 PUSH2 0xA97 JUMP JUMPDEST PUSH2 0x550 SWAP2 SWAP1 PUSH2 0xB08 JUMP JUMPDEST SWAP1 POP DUP1 SWAP3 POP POP POP SWAP2 SWAP1 POP JUMP JUMPDEST PUSH1 0x0 DUP1 PUSH20 0x694AA1769357215DE4FAC081BF1F309ADC325306 SWAP1 POP PUSH1 0x0 DUP2 PUSH20 0xFFFFFFFFFFFFFFFFFFFFFFFFFFFFFFFFFFFFFFFF AND PUSH4 0xFEAF968C PUSH1 0x40 MLOAD DUP2 PUSH4 0xFFFFFFFF AND PUSH1 0xE0 SHL DUP2 MSTORE PUSH1 0x4 ADD PUSH1 0xA0 PUSH1 0x40 MLOAD DUP1 DUP4 SUB DUP2 DUP7 GAS STATICCALL ISZERO DUP1 ISZERO PUSH2 0x5C3 JUMPI RETURNDATASIZE PUSH1 0x0 DUP1 RETURNDATACOPY RETURNDATASIZE PUSH1 0x0 REVERT JUMPDEST POP POP POP POP PUSH1 0x40 MLOAD RETURNDATASIZE PUSH1 0x1F NOT PUSH1 0x1F DUP3 ADD AND DUP3 ADD DUP1 PUSH1 0x40 MSTORE POP DUP2 ADD SWAP1 PUSH2 0x5E7 SWAP2 SWAP1 PUSH2 0xBC6 JUMP JUMPDEST POP POP POP SWAP2 POP POP PUSH5 0x2540BE400 DUP2 PUSH2 0x5FE SWAP2 SWAP1 PUSH2 0xC41 JUMP JUMPDEST SWAP3 POP POP POP SWAP1 JUMP JUMPDEST DUP3 DUP1 SLOAD DUP3 DUP3 SSTORE SWAP1 PUSH1 0x0 MSTORE PUSH1 0x20 PUSH1 0x0 KECCAK256 SWAP1 DUP2 ADD SWAP3 DUP3 ISZERO PUSH2 0x67E JUMPI SWAP2 PUSH1 0x20 MUL DUP3 ADD JUMPDEST DUP3 DUP2 GT ISZERO PUSH2 0x67D JUMPI DUP3 MLOAD DUP3 PUSH1 0x0 PUSH2 0x100 EXP DUP2 SLOAD DUP2 PUSH20 0xFFFFFFFFFFFFFFFFFFFFFFFFFFFFFFFFFFFFFFFF MUL NOT AND SWAP1 DUP4 PUSH20 0xFFFFFFFFFFFFFFFFFFFFFFFFFFFFFFFFFFFFFFFF AND MUL OR SWAP1 SSTORE POP SWAP2 PUSH1 0x20 ADD SWAP2 SWAP1 PUSH1 0x1 ADD SWAP1 PUSH2 0x625 JUMP JUMPDEST JUMPDEST POP SWAP1 POP PUSH2 0x68B SWAP2 SWAP1 PUSH2 0x68F JUMP JUMPDEST POP SWAP1 JUMP JUMPDEST JUMPDEST DUP1 DUP3 GT ISZERO PUSH2 0x6A8 JUMPI PUSH1 0x0 DUP2 PUSH1 0x0 SWAP1 SSTORE POP PUSH1 0x1 ADD PUSH2 0x690 JUMP JUMPDEST POP SWAP1 JUMP JUMPDEST PUSH1 0x0 DUP1 REVERT JUMPDEST PUSH1 0x0 PUSH20 0xFFFFFFFFFFFFFFFFFFFFFFFFFFFFFFFFFFFFFFFF DUP3 AND SWAP1 POP SWAP2 SWAP1 POP JUMP JUMPDEST PUSH1 0x0 PUSH2 0x6DC DUP3 PUSH2 0x6B1 JUMP JUMPDEST SWAP1 POP SWAP2 SWAP1 POP JUMP JUMPDEST PUSH2 0x6EC DUP2 PUSH2 0x6D1 JUMP JUMPDEST DUP2 EQ PUSH2 0x6F7 JUMPI PUSH1 0x0 DUP1 REVERT JUMPDEST POP JUMP JUMPDEST PUSH1 0x0 DUP2 CALLDATALOAD SWAP1 POP PUSH2 0x709 DUP2 PUSH2 0x6E3 JUMP JUMPDEST SWAP3 SWAP2 POP POP JUMP JUMPDEST PUSH1 0x0 PUSH1 0x20 DUP3 DUP5 SUB SLT ISZERO PUSH2 0x725 JUMPI PUSH2 0x724 PUSH2 0x6AC JUMP JUMPDEST JUMPDEST PUSH1 0x0 PUSH2 0x733 DUP5 DUP3 DUP6 ADD PUSH2 0x6FA JUMP JUMPDEST SWAP2 POP POP SWAP3 SWAP2 POP POP JUMP JUMPDEST PUSH1 0x0 DUP2 SWAP1 POP SWAP2 SWAP1 POP JUMP JUMPDEST PUSH2 0x74F DUP2 PUSH2 0x73C JUMP JUMPDEST DUP3 MSTORE POP POP JUMP JUMPDEST PUSH1 0x0 PUSH1 0x20 DUP3 ADD SWAP1 POP PUSH2 0x76A PUSH1 0x0 DUP4 ADD DUP5 PUSH2 0x746 JUMP JUMPDEST SWAP3 SWAP2 POP POP JUMP JUMPDEST PUSH2 0x779 DUP2 PUSH2 0x6D1 JUMP JUMPDEST DUP3 MSTORE POP POP JUMP JUMPDEST PUSH1 0x0 PUSH1 0x20 DUP3 ADD SWAP1 POP PUSH2 0x794 PUSH1 0x0 DUP4 ADD DUP5 PUSH2 0x770 JUMP JUMPDEST SWAP3 SWAP2 POP POP JUMP JUMPDEST PUSH2 0x7A3 DUP2 PUSH2 0x73C JUMP JUMPDEST DUP2 EQ PUSH2 0x7AE JUMPI PUSH1 0x0 DUP1 REVERT JUMPDEST POP JUMP JUMPDEST PUSH1 0x0 DUP2 CALLDATALOAD SWAP1 POP PUSH2 0x7C0 DUP2 PUSH2 0x79A JUMP JUMPDEST SWAP3 SWAP2 POP POP JUMP JUMPDEST PUSH1 0x0 PUSH1 0x20 DUP3 DUP5 SUB SLT ISZERO PUSH2 0x7DC JUMPI PUSH2 0x7DB PUSH2 0x6AC JUMP JUMPDEST JUMPDEST PUSH1 0x0 PUSH2 0x7EA DUP5 DUP3 DUP6 ADD PUSH2 0x7B1 JUMP JUMPDEST SWAP2 POP POP SWAP3 SWAP2 POP POP JUMP JUMPDEST PUSH1 0x0 DUP3 DUP3 MSTORE PUSH1 0x20 DUP3 ADD SWAP1 POP SWAP3 SWAP2 POP POP JUMP JUMPDEST PUSH32 0x5468652073656E646572206973206E6F7420746865206F776E65720000000000 PUSH1 0x0 DUP3 ADD MSTORE POP JUMP JUMPDEST PUSH1 0x0 PUSH2 0x83A PUSH1 0x1B DUP4 PUSH2 0x7F3 JUMP JUMPDEST SWAP2 POP PUSH2 0x845 DUP3 PUSH2 0x804 JUMP JUMPDEST PUSH1 0x20 DUP3 ADD SWAP1 POP SWAP2 SWAP1 POP JUMP JUMPDEST PUSH1 0x0 PUSH1 0x20 DUP3 ADD SWAP1 POP DUP2 DUP2 SUB PUSH1 0x0 DUP4 ADD MSTORE PUSH2 0x869 DUP2 PUSH2 0x82D JUMP JUMPDEST SWAP1 POP SWAP2 SWAP1 POP JUMP JUMPDEST PUSH32 0x4E487B7100000000000000000000000000000000000000000000000000000000 PUSH1 0x0 MSTORE PUSH1 0x32 PUSH1 0x4 MSTORE PUSH1 0x24 PUSH1 0x0 REVERT JUMPDEST PUSH32 0x4E487B7100000000000000000000000000000000000000000000000000000000 PUSH1 0x0 MSTORE PUSH1 0x11 PUSH1 0x4 MSTORE PUSH1 0x24 PUSH1 0x0 REVERT JUMPDEST PUSH1 0x0 PUSH2 0x8D9 DUP3 PUSH2 0x73C JUMP JUMPDEST SWAP2 POP PUSH32 0xFFFFFFFFFFFFFFFFFFFFFFFFFFFFFFFFFFFFFFFFFFFFFFFFFFFFFFFFFFFFFFFF DUP3 SUB PUSH2 0x90B JUMPI PUSH2 0x90A PUSH2 0x89F JUMP JUMPDEST JUMPDEST PUSH1 0x1 DUP3 ADD SWAP1 POP SWAP2 SWAP1 POP JUMP JUMPDEST PUSH32 0x4E487B7100000000000000000000000000000000000000000000000000000000 PUSH1 0x0 MSTORE PUSH1 0x41 PUSH1 0x4 MSTORE PUSH1 0x24 PUSH1 0x0 REVERT JUMPDEST PUSH1 0x0 DUP2 SWAP1 POP SWAP3 SWAP2 POP POP JUMP JUMPDEST POP JUMP JUMPDEST PUSH1 0x0 PUSH2 0x960 PUSH1 0x0 DUP4 PUSH2 0x945 JUMP JUMPDEST SWAP2 POP PUSH2 0x96B DUP3 PUSH2 0x950 JUMP JUMPDEST PUSH1 0x0 DUP3 ADD SWAP1 POP SWAP2 SWAP1 POP JUMP JUMPDEST PUSH1 0x0 PUSH2 0x981 DUP3 PUSH2 0x953 JUMP JUMPDEST SWAP2 POP DUP2 SWAP1 POP SWAP2 SWAP1 POP JUMP JUMPDEST PUSH32 0x43616C6C206661696C6564000000000000000000000000000000000000000000 PUSH1 0x0 DUP3 ADD MSTORE POP JUMP JUMPDEST PUSH1 0x0 PUSH2 0x9C1 PUSH1 0xB DUP4 PUSH2 0x7F3 JUMP JUMPDEST SWAP2 POP PUSH2 0x9CC DUP3 PUSH2 0x98B JUMP JUMPDEST PUSH1 0x20 DUP3 ADD SWAP1 POP SWAP2 SWAP1 POP JUMP JUMPDEST PUSH1 0x0 PUSH1 0x20 DUP3 ADD SWAP1 POP DUP2 DUP2 SUB PUSH1 0x0 DUP4 ADD MSTORE PUSH2 0x9F0 DUP2 PUSH2 0x9B4 JUMP JUMPDEST SWAP1 POP SWAP2 SWAP1 POP JUMP JUMPDEST PUSH32 0x53656E64206D6F7265207468616E203120657468000000000000000000000000 PUSH1 0x0 DUP3 ADD MSTORE POP JUMP JUMPDEST PUSH1 0x0 PUSH2 0xA2D PUSH1 0x14 DUP4 PUSH2 0x7F3 JUMP JUMPDEST SWAP2 POP PUSH2 0xA38 DUP3 PUSH2 0x9F7 JUMP JUMPDEST PUSH1 0x20 DUP3 ADD SWAP1 POP SWAP2 SWAP1 POP JUMP JUMPDEST PUSH1 0x0 PUSH1 0x20 DUP3 ADD SWAP1 POP DUP2 DUP2 SUB PUSH1 0x0 DUP4 ADD MSTORE PUSH2 0xA5C DUP2 PUSH2 0xA20 JUMP JUMPDEST SWAP1 POP SWAP2 SWAP1 POP JUMP JUMPDEST PUSH1 0x0 PUSH2 0xA6E DUP3 PUSH2 0x73C JUMP JUMPDEST SWAP2 POP PUSH2 0xA79 DUP4 PUSH2 0x73C JUMP JUMPDEST SWAP3 POP DUP3 DUP3 ADD SWAP1 POP DUP1 DUP3 GT ISZERO PUSH2 0xA91 JUMPI PUSH2 0xA90 PUSH2 0x89F JUMP JUMPDEST JUMPDEST SWAP3 SWAP2 POP POP JUMP JUMPDEST PUSH1 0x0 PUSH2 0xAA2 DUP3 PUSH2 0x73C JUMP JUMPDEST SWAP2 POP PUSH2 0xAAD DUP4 PUSH2 0x73C JUMP JUMPDEST SWAP3 POP DUP3 DUP3 MUL PUSH2 0xABB DUP2 PUSH2 0x73C JUMP JUMPDEST SWAP2 POP DUP3 DUP3 DIV DUP5 EQ DUP4 ISZERO OR PUSH2 0xAD2 JUMPI PUSH2 0xAD1 PUSH2 0x89F JUMP JUMPDEST JUMPDEST POP SWAP3 SWAP2 POP POP JUMP JUMPDEST PUSH32 0x4E487B7100000000000000000000000000000000000000000000000000000000 PUSH1 0x0 MSTORE PUSH1 0x12 PUSH1 0x4 MSTORE PUSH1 0x24 PUSH1 0x0 REVERT JUMPDEST PUSH1 0x0 PUSH2 0xB13 DUP3 PUSH2 0x73C JUMP JUMPDEST SWAP2 POP PUSH2 0xB1E DUP4 PUSH2 0x73C JUMP JUMPDEST SWAP3 POP DUP3 PUSH2 0xB2E JUMPI PUSH2 0xB2D PUSH2 0xAD9 JUMP JUMPDEST JUMPDEST DUP3 DUP3 DIV SWAP1 POP SWAP3 SWAP2 POP POP JUMP JUMPDEST PUSH1 0x0 PUSH10 0xFFFFFFFFFFFFFFFFFFFF DUP3 AND SWAP1 POP SWAP2 SWAP1 POP JUMP JUMPDEST PUSH2 0xB58 DUP2 PUSH2 0xB39 JUMP JUMPDEST DUP2 EQ PUSH2 0xB63 JUMPI PUSH1 0x0 DUP1 REVERT JUMPDEST POP JUMP JUMPDEST PUSH1 0x0 DUP2 MLOAD SWAP1 POP PUSH2 0xB75 DUP2 PUSH2 0xB4F JUMP JUMPDEST SWAP3 SWAP2 POP POP JUMP JUMPDEST PUSH1 0x0 DUP2 SWAP1 POP SWAP2 SWAP1 POP JUMP JUMPDEST PUSH2 0xB8E DUP2 PUSH2 0xB7B JUMP JUMPDEST DUP2 EQ PUSH2 0xB99 JUMPI PUSH1 0x0 DUP1 REVERT JUMPDEST POP JUMP JUMPDEST PUSH1 0x0 DUP2 MLOAD SWAP1 POP PUSH2 0xBAB DUP2 PUSH2 0xB85 JUMP JUMPDEST SWAP3 SWAP2 POP POP JUMP JUMPDEST PUSH1 0x0 DUP2 MLOAD SWAP1 POP PUSH2 0xBC0 DUP2 PUSH2 0x79A JUMP JUMPDEST SWAP3 SWAP2 POP POP JUMP JUMPDEST PUSH1 0x0 DUP1 PUSH1 0x0 DUP1 PUSH1 0x0 PUSH1 0xA0 DUP7 DUP9 SUB SLT ISZERO PUSH2 0xBE2 JUMPI PUSH2 0xBE1 PUSH2 0x6AC JUMP JUMPDEST JUMPDEST PUSH1 0x0 PUSH2 0xBF0 DUP9 DUP3 DUP10 ADD PUSH2 0xB66 JUMP JUMPDEST SWAP6 POP POP PUSH1 0x20 PUSH2 0xC01 DUP9 DUP3 DUP10 ADD PUSH2 0xB9C JUMP JUMPDEST SWAP5 POP POP PUSH1 0x40 PUSH2 0xC12 DUP9 DUP3 DUP10 ADD PUSH2 0xBB1 JUMP JUMPDEST SWAP4 POP POP PUSH1 0x60 PUSH2 0xC23 DUP9 DUP3 DUP10 ADD PUSH2 0xBB1 JUMP JUMPDEST SWAP3 POP POP PUSH1 0x80 PUSH2 0xC34 DUP9 DUP3 DUP10 ADD PUSH2 0xB66 JUMP JUMPDEST SWAP2 POP POP SWAP3 SWAP6 POP SWAP3 SWAP6 SWAP1 SWAP4 POP JUMP JUMPDEST PUSH1 0x0 PUSH2 0xC4C DUP3 PUSH2 0xB7B JUMP JUMPDEST SWAP2 POP PUSH2 0xC57 DUP4 PUSH2 0xB7B JUMP JUMPDEST SWAP3 POP DUP3 DUP3 MUL PUSH2 0xC65 DUP2 PUSH2 0xB7B JUMP JUMPDEST SWAP2 POP PUSH32 0x8000000000000000000000000000000000000000000000000000000000000000 DUP5 EQ PUSH1 0x0 DUP5 SLT AND ISZERO PUSH2 0xC9D JUMPI PUSH2 0xC9C PUSH2 0x89F JUMP JUMPDEST JUMPDEST DUP3 DUP3 SDIV DUP5 EQ DUP4 ISZERO OR PUSH2 0xCB2 JUMPI PUSH2 0xCB1 PUSH2 0x89F JUMP JUMPDEST JUMPDEST POP SWAP3 SWAP2 POP POP JUMP INVALID LOG2 PUSH5 0x6970667358 0x22 SLT KECCAK256 0x25 CODESIZE SWAP1 PUSH19 0x87880A367BAE4353E491D714A51609AD5B7CD5 PUSH4 0xA3FFEA54 CHAINID 0xE9 DUP3 MULMOD PUSH5 0x736F6C6343 STOP ADDMOD SLT STOP CALLER "
				},
				"gasEstimates": {
					"creation": {
						"codeDepositCost": "662200",
						"executionCost": "47068",
						"totalCost": "709268"
					},
					"external": {
						"addressToAmountFund(address)": "2814",
						"funders(uint256)": "5022",
						"fundme()": "infinite",
						"minUSD()": "2517",
						"owner()": "2536",
						"withdraw()": "infinite"
					}
				},
				"methodIdentifiers": {
					"addressToAmountFund(address)": "8c04995f",
					"funders(uint256)": "dc0d3dff",
					"fundme()": "d1d9165d",
					"minUSD()": "dc992aa0",
					"owner()": "8da5cb5b",
					"withdraw()": "3ccfd60b"
				}
			},
			"storageLayout": {
				"storage": [
					{
						"astId": 56,
						"contract": "Fundme.sol:FundMe",
						"label": "minUSD",
						"offset": 0,
						"slot": "0",
						"type": "t_uint256"
					},
					{
						"astId": 59,
						"contract": "Fundme.sol:FundMe",
						"label": "funders",
						"offset": 0,
						"slot": "1",
						"type": "t_array(t_address)dyn_storage"
					},
					{
						"astId": 63,
						"contract": "Fundme.sol:FundMe",
						"label": "addressToAmountFund",
						"offset": 0,
						"slot": "2",
						"type": "t_mapping(t_address,t_uint256)"
					},
					{
						"astId": 65,
						"contract": "Fundme.sol:FundMe",
						"label": "owner",
						"offset": 0,
						"slot": "3",
						"type": "t_address"
					}
				],
				"types": {
					"t_address": {
						"encoding": "inplace",
						"label": "address",
						"numberOfBytes": "20"
					},
					"t_array(t_address)dyn_storage": {
						"base": "t_address",
						"encoding": "dynamic_array",
						"label": "address[]",
						"numberOfBytes": "32"
					},
					"t_mapping(t_address,t_uint256)": {
						"encoding": "mapping",
						"key": "t_address",
						"label": "mapping(address => uint256)",
						"numberOfBytes": "32",
						"value": "t_uint256"
					},
					"t_uint256": {
						"encoding": "inplace",
						"label": "uint256",
						"numberOfBytes": "32"
					}
				}
			},
			"userdoc": {
				"kind": "user",
				"methods": {},
				"version": 1
			}
		}
	}
}