{
	"data": {
		"bytecode": {
			"linkReferences": {},
			"object": "6080604052603260015534801561001557600080fd5b5061024d806100256000396000f3fe6080604052600436106100345760003560e01c80636c619fd014610039578063d1d9165d14610064578063dc992aa01461006e575b600080fd5b34801561004557600080fd5b5061004e610099565b60405161005b919061011f565b60405180910390f35b61006c61009f565b005b34801561007a57600080fd5b50610083610100565b604051610090919061011f565b60405180910390f35b60005481565b6001543410156100e4576040517f08c379a00000000000000000000000000000000000000000000000000000000081526004016100db90610197565b60405180910390fd5b670de0b6b3a7640000346100f891906101e6565b600081905550565b60015481565b6000819050919050565b61011981610106565b82525050565b60006020820190506101346000830184610110565b92915050565b600082825260208201905092915050565b7f53656e64206d6f7265207468616e203120657468000000000000000000000000600082015250565b600061018160148361013a565b915061018c8261014b565b602082019050919050565b600060208201905081810360008301526101b081610174565b9050919050565b7f4e487b7100000000000000000000000000000000000000000000000000000000600052601260045260246000fd5b60006101f182610106565b91506101fc83610106565b92508261020c5761020b6101b7565b5b82820490509291505056fea2646970667358221220a235b9953eba40b1e6909724965b196a3081bc2bd82ebecb5e5de91359c9a5d564736f6c63430008120033",
			"opcodes": "PUSH1 0x80 PUSH1 0x40 MSTORE PUSH1 0x32 PUSH1 0x1 SSTORE CALLVALUE DUP1 ISZERO PUSH2 0x15 JUMPI PUSH1 0x0 DUP1 REVERT JUMPDEST POP PUSH2 0x24D DUP1 PUSH2 0x25 PUSH1 0x0 CODECOPY PUSH1 0x0 RETURN INVALID PUSH1 0x80 PUSH1 0x40 MSTORE PUSH1 0x4 CALLDATASIZE LT PUSH2 0x34 JUMPI PUSH1 0x0 CALLDATALOAD PUSH1 0xE0 SHR DUP1 PUSH4 0x6C619FD0 EQ PUSH2 0x39 JUMPI DUP1 PUSH4 0xD1D9165D EQ PUSH2 0x64 JUMPI DUP1 PUSH4 0xDC992AA0 EQ PUSH2 0x6E JUMPI JUMPDEST PUSH1 0x0 DUP1 REVERT JUMPDEST CALLVALUE DUP1 ISZERO PUSH2 0x45 JUMPI PUSH1 0x0 DUP1 REVERT JUMPDEST POP PUSH2 0x4E PUSH2 0x99 JUMP JUMPDEST PUSH1 0x40 MLOAD PUSH2 0x5B SWAP2 SWAP1 PUSH2 0x11F JUMP JUMPDEST PUSH1 0x40 MLOAD DUP1 SWAP2 SUB SWAP1 RETURN JUMPDEST PUSH2 0x6C PUSH2 0x9F JUMP JUMPDEST STOP JUMPDEST CALLVALUE DUP1 ISZERO PUSH2 0x7A JUMPI PUSH1 0x0 DUP1 REVERT JUMPDEST POP PUSH2 0x83 PUSH2 0x100 JUMP JUMPDEST PUSH1 0x40 MLOAD PUSH2 0x90 SWAP2 SWAP1 PUSH2 0x11F JUMP JUMPDEST PUSH1 0x40 MLOAD DUP1 SWAP2 SUB SWAP1 RETURN JUMPDEST PUSH1 0x0 SLOAD DUP2 JUMP JUMPDEST PUSH1 0x1 SLOAD CALLVALUE LT ISZERO PUSH2 0xE4 JUMPI PUSH1 0x40 MLOAD PUSH32 0x8C379A000000000000000000000000000000000000000000000000000000000 DUP2 MSTORE PUSH1 0x4 ADD PUSH2 0xDB SWAP1 PUSH2 0x197 JUMP JUMPDEST PUSH1 0x40 MLOAD DUP1 SWAP2 SUB SWAP1 REVERT JUMPDEST PUSH8 0xDE0B6B3A7640000 CALLVALUE PUSH2 0xF8 SWAP2 SWAP1 PUSH2 0x1E6 JUMP JUMPDEST PUSH1 0x0 DUP2 SWAP1 SSTORE POP JUMP JUMPDEST PUSH1 0x1 SLOAD DUP2 JUMP JUMPDEST PUSH1 0x0 DUP2 SWAP1 POP SWAP2 SWAP1 POP JUMP JUMPDEST PUSH2 0x119 DUP2 PUSH2 0x106 JUMP JUMPDEST DUP3 MSTORE POP POP JUMP JUMPDEST PUSH1 0x0 PUSH1 0x20 DUP3 ADD SWAP1 POP PUSH2 0x134 PUSH1 0x0 DUP4 ADD DUP5 PUSH2 0x110 JUMP JUMPDEST SWAP3 SWAP2 POP POP JUMP JUMPDEST PUSH1 0x0 DUP3 DUP3 MSTORE PUSH1 0x20 DUP3 ADD SWAP1 POP SWAP3 SWAP2 POP POP JUMP JUMPDEST PUSH32 0x53656E64206D6F7265207468616E203120657468000000000000000000000000 PUSH1 0x0 DUP3 ADD MSTORE POP JUMP JUMPDEST PUSH1 0x0 PUSH2 0x181 PUSH1 0x14 DUP4 PUSH2 0x13A JUMP JUMPDEST SWAP2 POP PUSH2 0x18C DUP3 PUSH2 0x14B JUMP JUMPDEST PUSH1 0x20 DUP3 ADD SWAP1 POP SWAP2 SWAP1 POP JUMP JUMPDEST PUSH1 0x0 PUSH1 0x20 DUP3 ADD SWAP1 POP DUP2 DUP2 SUB PUSH1 0x0 DUP4 ADD MSTORE PUSH2 0x1B0 DUP2 PUSH2 0x174 JUMP JUMPDEST SWAP1 POP SWAP2 SWAP1 POP JUMP JUMPDEST PUSH32 0x4E487B7100000000000000000000000000000000000000000000000000000000 PUSH1 0x0 MSTORE PUSH1 0x12 PUSH1 0x4 MSTORE PUSH1 0x24 PUSH1 0x0 REVERT JUMPDEST PUSH1 0x0 PUSH2 0x1F1 DUP3 PUSH2 0x106 JUMP JUMPDEST SWAP2 POP PUSH2 0x1FC DUP4 PUSH2 0x106 JUMP JUMPDEST SWAP3 POP DUP3 PUSH2 0x20C JUMPI PUSH2 0x20B PUSH2 0x1B7 JUMP JUMPDEST JUMPDEST DUP3 DUP3 DIV SWAP1 POP SWAP3 SWAP2 POP POP JUMP INVALID LOG2 PUSH5 0x6970667358 0x22 SLT KECCAK256 LOG2 CALLDATALOAD 0xB9 SWAP6 RETURNDATACOPY 0xBA BLOCKHASH 0xB1 0xE6 SWAP1 SWAP8 0x24 SWAP7 JUMPDEST NOT PUSH11 0x3081BC2BD82EBECB5E5DE9 SGT MSIZE 0xC9 0xA5 0xD5 PUSH5 0x736F6C6343 STOP ADDMOD SLT STOP CALLER "
		},
		"gasEstimates": {
			"creation": {
				"codeDepositCost": "117800",
				"executionCost": "22271",
				"totalCost": "140071"
			},
			"external": {
				"ethvalue()": "2407",
				"fundme()": "infinite",
				"minUSD()": "2451"
			}
		},
		"methodIdentifiers": {
			"ethvalue()": "6c619fd0",
			"fundme()": "d1d9165d",
			"minUSD()": "dc992aa0"
		}
	},
	"abi": [
		{
			"inputs": [],
			"name": "ethvalue",
			"outputs": [
				{
					"internalType": "uint256",
					"name": "",
					"type": "uint256"
				}
			],
			"stateMutability": "view",
			"type": "function"
		},
		{
			"inputs": [],
			"name": "fundme",
			"outputs": [],
			"stateMutability": "payable",
			"type": "function"
		},
		{
			"inputs": [],
			"name": "minUSD",
			"outputs": [
				{
					"internalType": "uint256",
					"name": "",
					"type": "uint256"
				}
			],
			"stateMutability": "view",
			"type": "function"
		}
	]
}